{
	"data": {
		"bytecode": {
			"linkReferences": {},
			"object": "608060405234801561001057600080fd5b506139ff806100206000396000f3fe608060405234801561001057600080fd5b506004361061007d5760003560e01c8063715018a61161005b578063715018a6146100e45780638da5cb5b146100ec578063a6342571146100fd578063f2fde38b1461011057600080fd5b80631c1bab9b146100825780635f53837f146100c75780636b99a79b146100d1575b600080fd5b6100ab610090366004610827565b6065602052600090815260409020546001600160a01b031681565b6040516001600160a01b03909116815260200160405180910390f35b6100cf610123565b005b6100ab6100df3660046108ec565b6101e9565b6100cf610471565b6033546001600160a01b03166100ab565b6100ab61010b3660046109a5565b6104a7565b6100cf61011e366004610827565b6106a8565b600054610100900460ff1661013e5760005460ff1615610142565b303b155b6101aa5760405162461bcd60e51b815260206004820152602e60248201527f496e697469616c697a61626c653a20636f6e747261637420697320616c72656160448201526d191e481a5b9a5d1a585b1a5e995960921b60648201526084015b60405180910390fd5b600054610100900460ff161580156101cc576000805461ffff19166101011790555b6101d4610740565b80156101e6576000805461ff00191690555b50565b6033546000906001600160a01b031633146102165760405162461bcd60e51b81526004016101a190610a4f565b6000604051610224906107f1565b604051809103906000f080158015610240573d6000803e3d6000fd5b50604051635c6d8da160e01b815290915081906001600160a01b03821690635c6d8da190610278908b908b908b908a90600401610ad1565b600060405180830381600087803b15801561029257600080fd5b505af11580156102a6573d6000803e3d6000fd5b5050505060006040516102b8906107fe565b604051809103906000f0801580156102d4573d6000803e3d6000fd5b5060405163485cc95560e01b81526001600160a01b0384811660048301528781166024830152919250829182169063485cc95590604401600060405180830381600087803b15801561032557600080fd5b505af1158015610339573d6000803e3d6000fd5b5050604051631b2ce7f360e11b81526001600160a01b038a8116600483015285169250633659cfe69150602401600060405180830381600087803b15801561038057600080fd5b505af1158015610394573d6000803e3d6000fd5b505060405163f2fde38b60e01b81526001600160a01b0389811660048301528516925063f2fde38b9150602401600060405180830381600087803b1580156103db57600080fd5b505af11580156103ef573d6000803e3d6000fd5b505050506001600160a01b038b811660008181526065602090815260409182902080548886166001600160a01b031990911681179091558251938452908301529183168183015290517f8fa4046773cf696f158f6acd8fd309cb920cabe33a92e2f6ac6dee58cb39e3609181900360600190a150909998505050505050505050565b6033546001600160a01b0316331461049b5760405162461bcd60e51b81526004016101a190610a4f565b6104a5600061076f565b565b6000806040516104b6906107f1565b604051809103906000f0801580156104d2573d6000803e3d6000fd5b50604051635c6d8da160e01b815290915081906001600160a01b03821690635c6d8da19061050a908b908b908b908a90600401610ad1565b600060405180830381600087803b15801561052457600080fd5b505af1158015610538573d6000803e3d6000fd5b50505050600060405161054a906107fe565b604051809103906000f080158015610566573d6000803e3d6000fd5b5060405163485cc95560e01b81526001600160a01b0384811660048301528781166024830152919250829182169063485cc95590604401600060405180830381600087803b1580156105b757600080fd5b505af11580156105cb573d6000803e3d6000fd5b5050604051631b2ce7f360e11b81526001600160a01b038a8116600483015285169250633659cfe69150602401600060405180830381600087803b15801561061257600080fd5b505af1158015610626573d6000803e3d6000fd5b50503360008181526065602090815260409182902080546001600160a01b0319166001600160a01b038a81169182179092558351948552918401919091528516908201527f8fa4046773cf696f158f6acd8fd309cb920cabe33a92e2f6ac6dee58cb39e3609250606001905060405180910390a1509098975050505050505050565b6033546001600160a01b031633146106d25760405162461bcd60e51b81526004016101a190610a4f565b6001600160a01b0381166107375760405162461bcd60e51b815260206004820152602660248201527f4f776e61626c653a206e6577206f776e657220697320746865207a65726f206160448201526564647265737360d01b60648201526084016101a1565b6101e68161076f565b600054610100900460ff166107675760405162461bcd60e51b81526004016101a190610b24565b6104a56107c1565b603380546001600160a01b038381166001600160a01b0319831681179093556040519116919082907f8be0079c531659141344cd1fd0a4f28419497f9722a3daafe3b4186f6b6457e090600090a35050565b600054610100900460ff166107e85760405162461bcd60e51b81526004016101a190610b24565b6104a53361076f565b61221c80610b7083390190565b610c3e80612d8c83390190565b80356001600160a01b038116811461082257600080fd5b919050565b60006020828403121561083957600080fd5b6108428261080b565b9392505050565b634e487b7160e01b600052604160045260246000fd5b600082601f83011261087057600080fd5b813567ffffffffffffffff8082111561088b5761088b610849565b604051601f8301601f19908116603f011681019082821181831017156108b3576108b3610849565b816040528381528660208588010111156108cc57600080fd5b836020870160208301376000602085830101528094505050505092915050565b60008060008060008060c0878903121561090557600080fd5b61090e8761080b565b9550602087013567ffffffffffffffff8082111561092b57600080fd5b6109378a838b0161085f565b9650604089013591508082111561094d57600080fd5b6109598a838b0161085f565b9550606089013591508082111561096f57600080fd5b5061097c89828a0161085f565b93505061098b6080880161080b565b915061099960a0880161080b565b90509295509295509295565b600080600080600060a086880312156109bd57600080fd5b853567ffffffffffffffff808211156109d557600080fd5b6109e189838a0161085f565b965060208801359150808211156109f757600080fd5b610a0389838a0161085f565b95506040880135915080821115610a1957600080fd5b50610a268882890161085f565b935050610a356060870161080b565b9150610a436080870161080b565b90509295509295909350565b6020808252818101527f4f776e61626c653a2063616c6c6572206973206e6f7420746865206f776e6572604082015260600190565b6000815180845260005b81811015610aaa57602081850181015186830182015201610a8e565b81811115610abc576000602083870101525b50601f01601f19169290920160200192915050565b608081526000610ae46080830187610a84565b8281036020840152610af68187610a84565b90508281036040840152610b0a8186610a84565b91505060018060a01b038316606083015295945050505050565b6020808252602b908201527f496e697469616c697a61626c653a20636f6e7472616374206973206e6f74206960408201526a6e697469616c697a696e6760a81b60608201526080019056fe608060405234801561001057600080fd5b506121fc806100206000396000f3fe608060405234801561001057600080fd5b50600436106101735760003560e01c80636352211e116100de578063a22cb46511610097578063ca91593911610071578063ca9159391461033c578063e985e9c51461034f578063f2fde38b1461038b578063f5537ede1461039e57600080fd5b8063a22cb46514610303578063b88d4fde14610316578063c87b56dd1461032957600080fd5b80636352211e146102ab57806370a08231146102be578063715018a6146102d15780638204c326146102d95780638da5cb5b146102ea57806395d89b41146102fb57600080fd5b806329575f6a1161013057806329575f6a1461021a5780632a55205a1461022d5780632f745c591461025f57806342842e0e146102725780634f6ccce7146102855780635c6d8da11461029857600080fd5b806301ffc9a71461017857806306fdde03146101a0578063081812fc146101b5578063095ea7b3146101e057806318160ddd146101f557806323b872dd14610207575b600080fd5b61018b610186366004611ab7565b6103b1565b60405190151581526020015b60405180910390f35b6101a86103e3565b6040516101979190611b2c565b6101c86101c3366004611b3f565b610475565b6040516001600160a01b039091168152602001610197565b6101f36101ee366004611b6d565b61050f565b005b60cb545b604051908152602001610197565b6101f3610215366004611b99565b610625565b60fc546101c8906001600160a01b031681565b61024061023b366004611bda565b610656565b604080516001600160a01b039093168352602083019190915201610197565b6101f961026d366004611b6d565b610706565b6101f3610280366004611b99565b61079c565b6101f9610293366004611b3f565b6107b7565b6101f36102a6366004611ca8565b61084a565b6101c86102b9366004611b3f565b610947565b6101f96102cc366004611d43565b6109be565b6101f3610a45565b60fc546001600160a01b03166101c8565b6097546001600160a01b03166101c8565b6101a8610a7b565b6101f3610311366004611d60565b610a8a565b6101f3610324366004611d9e565b610a99565b6101a8610337366004611b3f565b610ad1565b6101f361034a366004611e1e565b610bac565b61018b61035d366004611e92565b6001600160a01b039182166000908152606a6020908152604080832093909416825291909152205460ff1690565b6101f3610399366004611d43565b610be0565b6101f36103ac366004611b99565b610c7b565b60006001600160e01b0319821663152a902d60e11b14156103d457506001919050565b6103dd82610c96565b92915050565b6060606580546103f290611ec0565b80601f016020809104026020016040519081016040528092919081815260200182805461041e90611ec0565b801561046b5780601f106104405761010080835404028352916020019161046b565b820191906000526020600020905b81548152906001019060200180831161044e57829003601f168201915b5050505050905090565b6000818152606760205260408120546001600160a01b03166104f35760405162461bcd60e51b815260206004820152602c60248201527f4552433732313a20617070726f76656420717565727920666f72206e6f6e657860448201526b34b9ba32b73a103a37b5b2b760a11b60648201526084015b60405180910390fd5b506000908152606960205260409020546001600160a01b031690565b600061051a82610947565b9050806001600160a01b0316836001600160a01b031614156105885760405162461bcd60e51b815260206004820152602160248201527f4552433732313a20617070726f76616c20746f2063757272656e74206f776e656044820152603960f91b60648201526084016104ea565b336001600160a01b03821614806105a457506105a4813361035d565b6106165760405162461bcd60e51b815260206004820152603860248201527f4552433732313a20617070726f76652063616c6c6572206973206e6f74206f7760448201527f6e6572206e6f7220617070726f76656420666f7220616c6c000000000000000060648201526084016104ea565b6106208383610cbb565b505050565b61062f3382610d29565b61064b5760405162461bcd60e51b81526004016104ea90611efb565b610620838383610e20565b60008281526067602052604081205481906001600160a01b03166106bc5760405162461bcd60e51b815260206004820152601f60248201527f717565727920666f72206e6f6e206e6f6e6578697374656e7420746f6b656e0060448201526064016104ea565b600084815260fe6020526040902060010154612710906106dc9085611f62565b6106e69190611f97565b600094855260fe6020526040909420546001600160a01b03169492505050565b6000610711836109be565b82106107735760405162461bcd60e51b815260206004820152602b60248201527f455243373231456e756d657261626c653a206f776e657220696e646578206f7560448201526a74206f6620626f756e647360a81b60648201526084016104ea565b506001600160a01b0391909116600090815260c960209081526040808320938352929052205490565b61062083838360405180602001604052806000815250610a99565b60006107c260cb5490565b82106108255760405162461bcd60e51b815260206004820152602c60248201527f455243373231456e756d657261626c653a20676c6f62616c20696e646578206f60448201526b7574206f6620626f756e647360a01b60648201526084016104ea565b60cb828154811061083857610838611fab565b90600052602060002001549050919050565b600054610100900460ff166108655760005460ff1615610869565b303b155b6108cc5760405162461bcd60e51b815260206004820152602e60248201527f496e697469616c697a61626c653a20636f6e747261637420697320616c72656160448201526d191e481a5b9a5d1a585b1a5e995960921b60648201526084016104ea565b600054610100900460ff161580156108ee576000805461ffff19166101011790555b6108f88585610fc7565b610900610ff8565b610908610ff8565b61091061101f565b6109198261104f565b50825161092d9060fb906020860190611a08565b508015610940576000805461ff00191690555b5050505050565b6000818152606760205260408120546001600160a01b0316806103dd5760405162461bcd60e51b815260206004820152602960248201527f4552433732313a206f776e657220717565727920666f72206e6f6e657869737460448201526832b73a103a37b5b2b760b91b60648201526084016104ea565b60006001600160a01b038216610a295760405162461bcd60e51b815260206004820152602a60248201527f4552433732313a2062616c616e636520717565727920666f7220746865207a65604482015269726f206164647265737360b01b60648201526084016104ea565b506001600160a01b031660009081526068602052604090205490565b6097546001600160a01b03163314610a6f5760405162461bcd60e51b81526004016104ea90611fc1565b610a796000611129565b565b6060606680546103f290611ec0565b610a9533838361117b565b5050565b610aa33383610d29565b610abf5760405162461bcd60e51b81526004016104ea90611efb565b610acb8484848461124a565b50505050565b6000818152606760205260409020546060906001600160a01b0316610b505760405162461bcd60e51b815260206004820152602f60248201527f4552433732314d657461646174613a2055524920717565727920666f72206e6f60448201526e3732bc34b9ba32b73a103a37b5b2b760891b60648201526084016104ea565b6000610b5a61127d565b90506000815111610b7a5760405180602001604052806000815250610ba5565b80610b848461128c565b604051602001610b95929190611ff6565b6040516020818303038152906040525b9392505050565b610bb6838561138a565b600084815260fd602090815260409091208351610bd592850190611a08565b50610acb84826113a4565b6097546001600160a01b03163314610c0a5760405162461bcd60e51b81526004016104ea90611fc1565b6001600160a01b038116610c6f5760405162461bcd60e51b815260206004820152602660248201527f4f776e61626c653a206e6577206f776e657220697320746865207a65726f206160448201526564647265737360d01b60648201526084016104ea565b610c7881611129565b50565b6106208383836040518060200160405280600081525061124a565b60006001600160e01b0319821663780e9d6360e01b14806103dd57506103dd82611498565b600081815260696020526040902080546001600160a01b0319166001600160a01b0384169081179091558190610cf082610947565b6001600160a01b03167f8c5be1e5ebec7d5bd14f71427d1e84f3dd0314c0f7b2291e5b200ac8c7c3b92560405160405180910390a45050565b6000818152606760205260408120546001600160a01b0316610da25760405162461bcd60e51b815260206004820152602c60248201527f4552433732313a206f70657261746f7220717565727920666f72206e6f6e657860448201526b34b9ba32b73a103a37b5b2b760a11b60648201526084016104ea565b6000610dad83610947565b9050806001600160a01b0316846001600160a01b03161480610de85750836001600160a01b0316610ddd84610475565b6001600160a01b0316145b80610e1857506001600160a01b038082166000908152606a602090815260408083209388168352929052205460ff165b949350505050565b826001600160a01b0316610e3382610947565b6001600160a01b031614610e975760405162461bcd60e51b815260206004820152602560248201527f4552433732313a207472616e736665722066726f6d20696e636f72726563742060448201526437bbb732b960d91b60648201526084016104ea565b6001600160a01b038216610ef95760405162461bcd60e51b8152602060048201526024808201527f4552433732313a207472616e7366657220746f20746865207a65726f206164646044820152637265737360e01b60648201526084016104ea565b610f048383836114e8565b610f0f600082610cbb565b6001600160a01b0383166000908152606860205260408120805460019290610f38908490612025565b90915550506001600160a01b0382166000908152606860205260408120805460019290610f6690849061203c565b909155505060008181526067602052604080822080546001600160a01b0319166001600160a01b0386811691821790925591518493918716917fddf252ad1be2c89b69c2b068fc378daa952ba7f163c4a11628f55a4df523b3ef91a4505050565b600054610100900460ff16610fee5760405162461bcd60e51b81526004016104ea90612054565b610a9582826114f3565b600054610100900460ff16610a795760405162461bcd60e51b81526004016104ea90612054565b600054610100900460ff166110465760405162461bcd60e51b81526004016104ea90612054565b610a7933611129565b6097546000906001600160a01b0316331461107c5760405162461bcd60e51b81526004016104ea90611fc1565b6001600160a01b0382166110c75760405162461bcd60e51b81526020600482015260126024820152710c081859191c995cdcc818585cda59db995960721b60448201526064016104ea565b60fc80546001600160a01b0319166001600160a01b0384169081179091556040519081527f396bdb3cda40dd739dd1d3ae00b603d5c5cf54891e0ba31af9e4d21708a824369060200160405180910390a1505060fc546001600160a01b031690565b609780546001600160a01b038381166001600160a01b0319831681179093556040519116919082907f8be0079c531659141344cd1fd0a4f28419497f9722a3daafe3b4186f6b6457e090600090a35050565b816001600160a01b0316836001600160a01b031614156111dd5760405162461bcd60e51b815260206004820152601960248201527f4552433732313a20617070726f766520746f2063616c6c65720000000000000060448201526064016104ea565b6001600160a01b038381166000818152606a6020908152604080832094871680845294825291829020805460ff191686151590811790915591519182527f17307eab39ab6107e8899845ad3d59bd9653f200f220920489ca2b5937696c31910160405180910390a3505050565b611255848484610e20565b61126184848484611541565b610acb5760405162461bcd60e51b81526004016104ea9061209f565b606060fb80546103f290611ec0565b6060816112b05750506040805180820190915260018152600360fc1b602082015290565b8160005b81156112da57806112c4816120f1565b91506112d39050600a83611f97565b91506112b4565b60008167ffffffffffffffff8111156112f5576112f5611bfc565b6040519080825280601f01601f19166020018201604052801561131f576020820181803683370190505b5090505b8415610e1857611334600183612025565b9150611341600a8661210c565b61134c90603061203c565b60f81b81838151811061136157611361611fab565b60200101906001600160f81b031916908160001a905350611383600a86611f97565b9450611323565b610a9582826040518060200160405280600081525061163f565b611f40816020013511156114065760405162461bcd60e51b815260206004820152602360248201527f726f79616c747920252073686f756c646e2774206265206c657373207468616e60448201526202038360ec1b60648201526084016104ea565b60006114156020830183611d43565b6001600160a01b031614610a9557600082815260fe60205260409020819061143d8282612120565b5061144d90506020820182611d43565b6001600160a01b0316827f1518a753ce2ba621ee225961119ac7c1dc5ed445928dc2a37e81108a24fccdf1836020013560405161148c91815260200190565b60405180910390a35050565b60006001600160e01b031982166380ac58cd60e01b14806114c957506001600160e01b03198216635b5e139f60e01b145b806103dd57506301ffc9a760e01b6001600160e01b03198316146103dd565b610620838383611672565b600054610100900460ff1661151a5760405162461bcd60e51b81526004016104ea90612054565b815161152d906065906020850190611a08565b508051610620906066906020840190611a08565b60006001600160a01b0384163b1561163457604051630a85bd0160e11b81526001600160a01b0385169063150b7a0290611585903390899088908890600401612156565b6020604051808303816000875af19250505080156115c0575060408051601f3d908101601f191682019092526115bd91810190612193565b60015b61161a573d8080156115ee576040519150601f19603f3d011682016040523d82523d6000602084013e6115f3565b606091505b5080516116125760405162461bcd60e51b81526004016104ea9061209f565b805181602001fd5b6001600160e01b031916630a85bd0160e11b149050610e18565b506001949350505050565b611649838361172a565b6116566000848484611541565b6106205760405162461bcd60e51b81526004016104ea9061209f565b6001600160a01b0383166116cd576116c88160cb8054600083815260cc60205260408120829055600182018355919091527fa7ce836d032b2bf62b7e2097a8e0a6d8aeb35405ad15271e96d3b0188a1d06fb0155565b6116f0565b816001600160a01b0316836001600160a01b0316146116f0576116f08382611878565b6001600160a01b0382166117075761062081611915565b826001600160a01b0316826001600160a01b0316146106205761062082826119c4565b6001600160a01b0382166117805760405162461bcd60e51b815260206004820181905260248201527f4552433732313a206d696e7420746f20746865207a65726f206164647265737360448201526064016104ea565b6000818152606760205260409020546001600160a01b0316156117e55760405162461bcd60e51b815260206004820152601c60248201527f4552433732313a20746f6b656e20616c7265616479206d696e7465640000000060448201526064016104ea565b6117f1600083836114e8565b6001600160a01b038216600090815260686020526040812080546001929061181a90849061203c565b909155505060008181526067602052604080822080546001600160a01b0319166001600160a01b03861690811790915590518392907fddf252ad1be2c89b69c2b068fc378daa952ba7f163c4a11628f55a4df523b3ef908290a45050565b60006001611885846109be565b61188f9190612025565b600083815260ca60205260409020549091508082146118e2576001600160a01b038416600090815260c960209081526040808320858452825280832054848452818420819055835260ca90915290208190555b50600091825260ca602090815260408084208490556001600160a01b03909416835260c981528383209183525290812055565b60cb5460009061192790600190612025565b600083815260cc602052604081205460cb805493945090928490811061194f5761194f611fab565b906000526020600020015490508060cb838154811061197057611970611fab565b600091825260208083209091019290925582815260cc909152604080822084905585825281205560cb8054806119a8576119a86121b0565b6001900381819060005260206000200160009055905550505050565b60006119cf836109be565b6001600160a01b03909316600090815260c960209081526040808320868452825280832085905593825260ca9052919091209190915550565b828054611a1490611ec0565b90600052602060002090601f016020900481019282611a365760008555611a7c565b82601f10611a4f57805160ff1916838001178555611a7c565b82800160010185558215611a7c579182015b82811115611a7c578251825591602001919060010190611a61565b50611a88929150611a8c565b5090565b5b80821115611a885760008155600101611a8d565b6001600160e01b031981168114610c7857600080fd5b600060208284031215611ac957600080fd5b8135610ba581611aa1565b60005b83811015611aef578181015183820152602001611ad7565b83811115610acb5750506000910152565b60008151808452611b18816020860160208601611ad4565b601f01601f19169290920160200192915050565b602081526000610ba56020830184611b00565b600060208284031215611b5157600080fd5b5035919050565b6001600160a01b0381168114610c7857600080fd5b60008060408385031215611b8057600080fd5b8235611b8b81611b58565b946020939093013593505050565b600080600060608486031215611bae57600080fd5b8335611bb981611b58565b92506020840135611bc981611b58565b929592945050506040919091013590565b60008060408385031215611bed57600080fd5b50508035926020909101359150565b634e487b7160e01b600052604160045260246000fd5b600067ffffffffffffffff80841115611c2d57611c2d611bfc565b604051601f8501601f19908116603f01168101908282118183101715611c5557611c55611bfc565b81604052809350858152868686011115611c6e57600080fd5b858560208301376000602087830101525050509392505050565b600082601f830112611c9957600080fd5b610ba583833560208501611c12565b60008060008060808587031215611cbe57600080fd5b843567ffffffffffffffff80821115611cd657600080fd5b611ce288838901611c88565b95506020870135915080821115611cf857600080fd5b611d0488838901611c88565b94506040870135915080821115611d1a57600080fd5b50611d2787828801611c88565b9250506060850135611d3881611b58565b939692955090935050565b600060208284031215611d5557600080fd5b8135610ba581611b58565b60008060408385031215611d7357600080fd5b8235611d7e81611b58565b915060208301358015158114611d9357600080fd5b809150509250929050565b60008060008060808587031215611db457600080fd5b8435611dbf81611b58565b93506020850135611dcf81611b58565b925060408501359150606085013567ffffffffffffffff811115611df257600080fd5b8501601f81018713611e0357600080fd5b611e1287823560208401611c12565b91505092959194509250565b60008060008084860360a0811215611e3557600080fd5b853594506020860135611e4781611b58565b9350604086013567ffffffffffffffff811115611e6357600080fd5b611e6f88828901611c88565b9350506040605f1982011215611e8457600080fd5b509295919450926060019150565b60008060408385031215611ea557600080fd5b8235611eb081611b58565b91506020830135611d9381611b58565b600181811c90821680611ed457607f821691505b60208210811415611ef557634e487b7160e01b600052602260045260246000fd5b50919050565b60208082526031908201527f4552433732313a207472616e736665722063616c6c6572206973206e6f74206f6040820152701ddb995c881b9bdc88185c1c1c9bdd9959607a1b606082015260800190565b634e487b7160e01b600052601160045260246000fd5b6000816000190483118215151615611f7c57611f7c611f4c565b500290565b634e487b7160e01b600052601260045260246000fd5b600082611fa657611fa6611f81565b500490565b634e487b7160e01b600052603260045260246000fd5b6020808252818101527f4f776e61626c653a2063616c6c6572206973206e6f7420746865206f776e6572604082015260600190565b60008351612008818460208801611ad4565b83519083019061201c818360208801611ad4565b01949350505050565b60008282101561203757612037611f4c565b500390565b6000821982111561204f5761204f611f4c565b500190565b6020808252602b908201527f496e697469616c697a61626c653a20636f6e7472616374206973206e6f74206960408201526a6e697469616c697a696e6760a81b606082015260800190565b60208082526032908201527f4552433732313a207472616e7366657220746f206e6f6e20455243373231526560408201527131b2b4bb32b91034b6b83632b6b2b73a32b960711b606082015260800190565b600060001982141561210557612105611f4c565b5060010190565b60008261211b5761211b611f81565b500690565b813561212b81611b58565b81546001600160a01b0319166001600160a01b03919091161781556020919091013560019190910155565b6001600160a01b038581168252841660208201526040810183905260806060820181905260009061218990830184611b00565b9695505050505050565b6000602082840312156121a557600080fd5b8151610ba581611aa1565b634e487b7160e01b600052603160045260246000fdfea264697066735822122076064de8469e97752bd2928c05dbc58a8c7eba82a031f38bc5fc03857f4aaedc64736f6c634300080c0033608060405234801561001057600080fd5b50606a805460ff60a01b1933166001600160a81b031990911617600160a01b179055610bfd806100416000396000f3fe60806040526004361061010d5760003560e01c8063715018a611610095578063ab101e7211610064578063ab101e721461036c578063b0cf428a146103a2578063d2f658c0146103c2578063f2fde38b146103ef578063f67cf0eb1461040f57610114565b8063715018a6146102e8578063772908bb146102fd5780638cf0e21e1461031d5780638da5cb5b1461034e57610114565b80633c6ac216116100dc5780633c6ac216146101fc578063485cc9551461025b578063574490cd1461027b5780635c1cb691146102b357806367fc9138146102d357610114565b806312a63c401461014e57806328016f9a1461018a5780632b020c72146101a15780633659cfe6146101dc57610114565b3661011457005b6067546001600160a01b03168061012a57600080fd5b3660008037600080366000845af43d6000803e808015610149573d6000f35b3d6000fd5b34801561015a57600080fd5b5061016e610169366004610a24565b610445565b6040516101819796959493929190610a8a565b60405180910390f35b34801561019657600080fd5b5061019f6105a0565b005b3480156101ad57600080fd5b506101ce6101bc366004610a24565b606b6020526000908152604090205481565b604051908152602001610181565b3480156101e857600080fd5b5061019f6101f7366004610b02565b6105e8565b34801561020857600080fd5b5061023c610217366004610a24565b606660205260009081526040902080546001909101546001600160a01b039091169082565b604080516001600160a01b039093168352602083019190915201610181565b34801561026757600080fd5b5061019f610276366004610b24565b610727565b34801561028757600080fd5b5060685461029b906001600160a01b031681565b6040516001600160a01b039091168152602001610181565b3480156102bf57600080fd5b5060695461029b906001600160a01b031681565b3480156102df57600080fd5b5061019f610881565b3480156102f457600080fd5b5061019f6108ba565b34801561030957600080fd5b5060675461029b906001600160a01b031681565b34801561032957600080fd5b50606a5461033e90600160a01b900460ff1681565b6040519015158152602001610181565b34801561035a57600080fd5b506033546001600160a01b031661029b565b34801561037857600080fd5b5061029b610387366004610a24565b606d602052600090815260409020546001600160a01b031681565b3480156103ae57600080fd5b50606a5461029b906001600160a01b031681565b3480156103ce57600080fd5b506101ce6103dd366004610a24565b60656020526000908152604090205481565b3480156103fb57600080fd5b5061019f61040a366004610b02565b6108f0565b34801561041b57600080fd5b5061029b61042a366004610a24565b606c602052600090815260409020546001600160a01b031681565b606e6020526000908152604090208054600182015460028301805460ff90931693919261047190610b57565b80601f016020809104026020016040519081016040528092919081815260200182805461049d90610b57565b80156104ea5780601f106104bf576101008083540402835291602001916104ea565b820191906000526020600020905b8154815290600101906020018083116104cd57829003601f168201915b5050505050908060030180546104ff90610b57565b80601f016020809104026020016040519081016040528092919081815260200182805461052b90610b57565b80156105785780601f1061054d57610100808354040283529160200191610578565b820191906000526020600020905b81548152906001019060200180831161055b57829003601f168201915b505050506004830154600584015460069094015492936001600160a01b039091169290915087565b6033546001600160a01b031633146105d35760405162461bcd60e51b81526004016105ca90610b92565b60405180910390fd5b606a805460ff60a01b1916600160a01b179055565b606a546001600160a01b031633148061060b57506033546001600160a01b031633145b6106575760405162461bcd60e51b815260206004820152601a60248201527f6d73672e73656e646572206973206e6f7420616e206f776e657200000000000060448201526064016105ca565b606a54600160a01b900460ff166106b05760405162461bcd60e51b815260206004820152601a60248201527f55706772616465206973206e6f7420656e61626c65642079657400000000000060448201526064016105ca565b6067546001600160a01b038281169116141561070e5760405162461bcd60e51b815260206004820152601d60248201527f497320616c72656164792074686520696d706c656d656e746174696f6e00000060448201526064016105ca565b6107178161098b565b50606a805460ff60a01b19169055565b600054610100900460ff166107425760005460ff1615610746565b303b155b6107a95760405162461bcd60e51b815260206004820152602e60248201527f496e697469616c697a61626c653a20636f6e747261637420697320616c72656160448201526d191e481a5b9a5d1a585b1a5e995960921b60648201526084016105ca565b600054610100900460ff161580156107cb576000805461ffff19166101011790555b606a546001600160a01b03163314806107ee57506033546001600160a01b031633145b61083a5760405162461bcd60e51b815260206004820152601a60248201527f6d73672e73656e646572206973206e6f7420616e206f776e657200000000000060448201526064016105ca565b606880546001600160a01b038086166001600160a01b0319928316179092556069805492851692909116919091179055801561087c576000805461ff00191690555b505050565b6033546001600160a01b031633146108ab5760405162461bcd60e51b81526004016105ca90610b92565b606a805460ff60a01b19169055565b6033546001600160a01b031633146108e45760405162461bcd60e51b81526004016105ca90610b92565b6108ee60006109d2565b565b6033546001600160a01b0316331461091a5760405162461bcd60e51b81526004016105ca90610b92565b6001600160a01b03811661097f5760405162461bcd60e51b815260206004820152602660248201527f4f776e61626c653a206e6577206f776e657220697320746865207a65726f206160448201526564647265737360d01b60648201526084016105ca565b610988816109d2565b50565b606780546001600160a01b0319166001600160a01b0383161790556040517f3dab95f89f74034beeac9f9fe9bec350186cb958223e1791afb0dbb64859cabd90600090a150565b603380546001600160a01b038381166001600160a01b0319831681179093556040519116919082907f8be0079c531659141344cd1fd0a4f28419497f9722a3daafe3b4186f6b6457e090600090a35050565b600060208284031215610a3657600080fd5b5035919050565b6000815180845260005b81811015610a6357602081850181015186830182015201610a47565b81811115610a75576000602083870101525b50601f01601f19169290920160200192915050565b871515815286602082015260e060408201526000610aab60e0830188610a3d565b8281036060840152610abd8188610a3d565b6001600160a01b03969096166080840152505060a081019290925260c090910152949350505050565b80356001600160a01b0381168114610afd57600080fd5b919050565b600060208284031215610b1457600080fd5b610b1d82610ae6565b9392505050565b60008060408385031215610b3757600080fd5b610b4083610ae6565b9150610b4e60208401610ae6565b90509250929050565b600181811c90821680610b6b57607f821691505b60208210811415610b8c57634e487b7160e01b600052602260045260246000fd5b50919050565b6020808252818101527f4f776e61626c653a2063616c6c6572206973206e6f7420746865206f776e657260408201526060019056fea26469706673582212206705da68edb40e47fd737961f6b9ecc183b148efe2ae382301d4f2e7fc143ee264736f6c634300080c0033a2646970667358221220743819b32352288ab002bf4f34fc25ba4b66e236c712994602840d63734fb1e764736f6c634300080c0033",
			"opcodes": "PUSH1 0x80 PUSH1 0x40 MSTORE CALLVALUE DUP1 ISZERO PUSH2 0x10 JUMPI PUSH1 0x0 DUP1 REVERT JUMPDEST POP PUSH2 0x39FF DUP1 PUSH2 0x20 PUSH1 0x0 CODECOPY PUSH1 0x0 RETURN INVALID PUSH1 0x80 PUSH1 0x40 MSTORE CALLVALUE DUP1 ISZERO PUSH2 0x10 JUMPI PUSH1 0x0 DUP1 REVERT JUMPDEST POP PUSH1 0x4 CALLDATASIZE LT PUSH2 0x7D JUMPI PUSH1 0x0 CALLDATALOAD PUSH1 0xE0 SHR DUP1 PUSH4 0x715018A6 GT PUSH2 0x5B JUMPI DUP1 PUSH4 0x715018A6 EQ PUSH2 0xE4 JUMPI DUP1 PUSH4 0x8DA5CB5B EQ PUSH2 0xEC JUMPI DUP1 PUSH4 0xA6342571 EQ PUSH2 0xFD JUMPI DUP1 PUSH4 0xF2FDE38B EQ PUSH2 0x110 JUMPI PUSH1 0x0 DUP1 REVERT JUMPDEST DUP1 PUSH4 0x1C1BAB9B EQ PUSH2 0x82 JUMPI DUP1 PUSH4 0x5F53837F EQ PUSH2 0xC7 JUMPI DUP1 PUSH4 0x6B99A79B EQ PUSH2 0xD1 JUMPI JUMPDEST PUSH1 0x0 DUP1 REVERT JUMPDEST PUSH2 0xAB PUSH2 0x90 CALLDATASIZE PUSH1 0x4 PUSH2 0x827 JUMP JUMPDEST PUSH1 0x65 PUSH1 0x20 MSTORE PUSH1 0x0 SWAP1 DUP2 MSTORE PUSH1 0x40 SWAP1 KECCAK256 SLOAD PUSH1 0x1 PUSH1 0x1 PUSH1 0xA0 SHL SUB AND DUP2 JUMP JUMPDEST PUSH1 0x40 MLOAD PUSH1 0x1 PUSH1 0x1 PUSH1 0xA0 SHL SUB SWAP1 SWAP2 AND DUP2 MSTORE PUSH1 0x20 ADD PUSH1 0x40 MLOAD DUP1 SWAP2 SUB SWAP1 RETURN JUMPDEST PUSH2 0xCF PUSH2 0x123 JUMP JUMPDEST STOP JUMPDEST PUSH2 0xAB PUSH2 0xDF CALLDATASIZE PUSH1 0x4 PUSH2 0x8EC JUMP JUMPDEST PUSH2 0x1E9 JUMP JUMPDEST PUSH2 0xCF PUSH2 0x471 JUMP JUMPDEST PUSH1 0x33 SLOAD PUSH1 0x1 PUSH1 0x1 PUSH1 0xA0 SHL SUB AND PUSH2 0xAB JUMP JUMPDEST PUSH2 0xAB PUSH2 0x10B CALLDATASIZE PUSH1 0x4 PUSH2 0x9A5 JUMP JUMPDEST PUSH2 0x4A7 JUMP JUMPDEST PUSH2 0xCF PUSH2 0x11E CALLDATASIZE PUSH1 0x4 PUSH2 0x827 JUMP JUMPDEST PUSH2 0x6A8 JUMP JUMPDEST PUSH1 0x0 SLOAD PUSH2 0x100 SWAP1 DIV PUSH1 0xFF AND PUSH2 0x13E JUMPI PUSH1 0x0 SLOAD PUSH1 0xFF AND ISZERO PUSH2 0x142 JUMP JUMPDEST ADDRESS EXTCODESIZE ISZERO JUMPDEST PUSH2 0x1AA JUMPI PUSH1 0x40 MLOAD PUSH3 0x461BCD PUSH1 0xE5 SHL DUP2 MSTORE PUSH1 0x20 PUSH1 0x4 DUP3 ADD MSTORE PUSH1 0x2E PUSH1 0x24 DUP3 ADD MSTORE PUSH32 0x496E697469616C697A61626C653A20636F6E747261637420697320616C726561 PUSH1 0x44 DUP3 ADD MSTORE PUSH14 0x191E481A5B9A5D1A585B1A5E9959 PUSH1 0x92 SHL PUSH1 0x64 DUP3 ADD MSTORE PUSH1 0x84 ADD JUMPDEST PUSH1 0x40 MLOAD DUP1 SWAP2 SUB SWAP1 REVERT JUMPDEST PUSH1 0x0 SLOAD PUSH2 0x100 SWAP1 DIV PUSH1 0xFF AND ISZERO DUP1 ISZERO PUSH2 0x1CC JUMPI PUSH1 0x0 DUP1 SLOAD PUSH2 0xFFFF NOT AND PUSH2 0x101 OR SWAP1 SSTORE JUMPDEST PUSH2 0x1D4 PUSH2 0x740 JUMP JUMPDEST DUP1 ISZERO PUSH2 0x1E6 JUMPI PUSH1 0x0 DUP1 SLOAD PUSH2 0xFF00 NOT AND SWAP1 SSTORE JUMPDEST POP JUMP JUMPDEST PUSH1 0x33 SLOAD PUSH1 0x0 SWAP1 PUSH1 0x1 PUSH1 0x1 PUSH1 0xA0 SHL SUB AND CALLER EQ PUSH2 0x216 JUMPI PUSH1 0x40 MLOAD PUSH3 0x461BCD PUSH1 0xE5 SHL DUP2 MSTORE PUSH1 0x4 ADD PUSH2 0x1A1 SWAP1 PUSH2 0xA4F JUMP JUMPDEST PUSH1 0x0 PUSH1 0x40 MLOAD PUSH2 0x224 SWAP1 PUSH2 0x7F1 JUMP JUMPDEST PUSH1 0x40 MLOAD DUP1 SWAP2 SUB SWAP1 PUSH1 0x0 CREATE DUP1 ISZERO DUP1 ISZERO PUSH2 0x240 JUMPI RETURNDATASIZE PUSH1 0x0 DUP1 RETURNDATACOPY RETURNDATASIZE PUSH1 0x0 REVERT JUMPDEST POP PUSH1 0x40 MLOAD PUSH4 0x5C6D8DA1 PUSH1 0xE0 SHL DUP2 MSTORE SWAP1 SWAP2 POP DUP2 SWAP1 PUSH1 0x1 PUSH1 0x1 PUSH1 0xA0 SHL SUB DUP3 AND SWAP1 PUSH4 0x5C6D8DA1 SWAP1 PUSH2 0x278 SWAP1 DUP12 SWAP1 DUP12 SWAP1 DUP12 SWAP1 DUP11 SWAP1 PUSH1 0x4 ADD PUSH2 0xAD1 JUMP JUMPDEST PUSH1 0x0 PUSH1 0x40 MLOAD DUP1 DUP4 SUB DUP2 PUSH1 0x0 DUP8 DUP1 EXTCODESIZE ISZERO DUP1 ISZERO PUSH2 0x292 JUMPI PUSH1 0x0 DUP1 REVERT JUMPDEST POP GAS CALL ISZERO DUP1 ISZERO PUSH2 0x2A6 JUMPI RETURNDATASIZE PUSH1 0x0 DUP1 RETURNDATACOPY RETURNDATASIZE PUSH1 0x0 REVERT JUMPDEST POP POP POP POP PUSH1 0x0 PUSH1 0x40 MLOAD PUSH2 0x2B8 SWAP1 PUSH2 0x7FE JUMP JUMPDEST PUSH1 0x40 MLOAD DUP1 SWAP2 SUB SWAP1 PUSH1 0x0 CREATE DUP1 ISZERO DUP1 ISZERO PUSH2 0x2D4 JUMPI RETURNDATASIZE PUSH1 0x0 DUP1 RETURNDATACOPY RETURNDATASIZE PUSH1 0x0 REVERT JUMPDEST POP PUSH1 0x40 MLOAD PUSH4 0x485CC955 PUSH1 0xE0 SHL DUP2 MSTORE PUSH1 0x1 PUSH1 0x1 PUSH1 0xA0 SHL SUB DUP5 DUP2 AND PUSH1 0x4 DUP4 ADD MSTORE DUP8 DUP2 AND PUSH1 0x24 DUP4 ADD MSTORE SWAP2 SWAP3 POP DUP3 SWAP2 DUP3 AND SWAP1 PUSH4 0x485CC955 SWAP1 PUSH1 0x44 ADD PUSH1 0x0 PUSH1 0x40 MLOAD DUP1 DUP4 SUB DUP2 PUSH1 0x0 DUP8 DUP1 EXTCODESIZE ISZERO DUP1 ISZERO PUSH2 0x325 JUMPI PUSH1 0x0 DUP1 REVERT JUMPDEST POP GAS CALL ISZERO DUP1 ISZERO PUSH2 0x339 JUMPI RETURNDATASIZE PUSH1 0x0 DUP1 RETURNDATACOPY RETURNDATASIZE PUSH1 0x0 REVERT JUMPDEST POP POP PUSH1 0x40 MLOAD PUSH4 0x1B2CE7F3 PUSH1 0xE1 SHL DUP2 MSTORE PUSH1 0x1 PUSH1 0x1 PUSH1 0xA0 SHL SUB DUP11 DUP2 AND PUSH1 0x4 DUP4 ADD MSTORE DUP6 AND SWAP3 POP PUSH4 0x3659CFE6 SWAP2 POP PUSH1 0x24 ADD PUSH1 0x0 PUSH1 0x40 MLOAD DUP1 DUP4 SUB DUP2 PUSH1 0x0 DUP8 DUP1 EXTCODESIZE ISZERO DUP1 ISZERO PUSH2 0x380 JUMPI PUSH1 0x0 DUP1 REVERT JUMPDEST POP GAS CALL ISZERO DUP1 ISZERO PUSH2 0x394 JUMPI RETURNDATASIZE PUSH1 0x0 DUP1 RETURNDATACOPY RETURNDATASIZE PUSH1 0x0 REVERT JUMPDEST POP POP PUSH1 0x40 MLOAD PUSH4 0xF2FDE38B PUSH1 0xE0 SHL DUP2 MSTORE PUSH1 0x1 PUSH1 0x1 PUSH1 0xA0 SHL SUB DUP10 DUP2 AND PUSH1 0x4 DUP4 ADD MSTORE DUP6 AND SWAP3 POP PUSH4 0xF2FDE38B SWAP2 POP PUSH1 0x24 ADD PUSH1 0x0 PUSH1 0x40 MLOAD DUP1 DUP4 SUB DUP2 PUSH1 0x0 DUP8 DUP1 EXTCODESIZE ISZERO DUP1 ISZERO PUSH2 0x3DB JUMPI PUSH1 0x0 DUP1 REVERT JUMPDEST POP GAS CALL ISZERO DUP1 ISZERO PUSH2 0x3EF JUMPI RETURNDATASIZE PUSH1 0x0 DUP1 RETURNDATACOPY RETURNDATASIZE PUSH1 0x0 REVERT JUMPDEST POP POP POP POP PUSH1 0x1 PUSH1 0x1 PUSH1 0xA0 SHL SUB DUP12 DUP2 AND PUSH1 0x0 DUP2 DUP2 MSTORE PUSH1 0x65 PUSH1 0x20 SWAP1 DUP2 MSTORE PUSH1 0x40 SWAP2 DUP3 SWAP1 KECCAK256 DUP1 SLOAD DUP9 DUP7 AND PUSH1 0x1 PUSH1 0x1 PUSH1 0xA0 SHL SUB NOT SWAP1 SWAP2 AND DUP2 OR SWAP1 SWAP2 SSTORE DUP3 MLOAD SWAP4 DUP5 MSTORE SWAP1 DUP4 ADD MSTORE SWAP2 DUP4 AND DUP2 DUP4 ADD MSTORE SWAP1 MLOAD PUSH32 0x8FA4046773CF696F158F6ACD8FD309CB920CABE33A92E2F6AC6DEE58CB39E360 SWAP2 DUP2 SWAP1 SUB PUSH1 0x60 ADD SWAP1 LOG1 POP SWAP1 SWAP10 SWAP9 POP POP POP POP POP POP POP POP POP JUMP JUMPDEST PUSH1 0x33 SLOAD PUSH1 0x1 PUSH1 0x1 PUSH1 0xA0 SHL SUB AND CALLER EQ PUSH2 0x49B JUMPI PUSH1 0x40 MLOAD PUSH3 0x461BCD PUSH1 0xE5 SHL DUP2 MSTORE PUSH1 0x4 ADD PUSH2 0x1A1 SWAP1 PUSH2 0xA4F JUMP JUMPDEST PUSH2 0x4A5 PUSH1 0x0 PUSH2 0x76F JUMP JUMPDEST JUMP JUMPDEST PUSH1 0x0 DUP1 PUSH1 0x40 MLOAD PUSH2 0x4B6 SWAP1 PUSH2 0x7F1 JUMP JUMPDEST PUSH1 0x40 MLOAD DUP1 SWAP2 SUB SWAP1 PUSH1 0x0 CREATE DUP1 ISZERO DUP1 ISZERO PUSH2 0x4D2 JUMPI RETURNDATASIZE PUSH1 0x0 DUP1 RETURNDATACOPY RETURNDATASIZE PUSH1 0x0 REVERT JUMPDEST POP PUSH1 0x40 MLOAD PUSH4 0x5C6D8DA1 PUSH1 0xE0 SHL DUP2 MSTORE SWAP1 SWAP2 POP DUP2 SWAP1 PUSH1 0x1 PUSH1 0x1 PUSH1 0xA0 SHL SUB DUP3 AND SWAP1 PUSH4 0x5C6D8DA1 SWAP1 PUSH2 0x50A SWAP1 DUP12 SWAP1 DUP12 SWAP1 DUP12 SWAP1 DUP11 SWAP1 PUSH1 0x4 ADD PUSH2 0xAD1 JUMP JUMPDEST PUSH1 0x0 PUSH1 0x40 MLOAD DUP1 DUP4 SUB DUP2 PUSH1 0x0 DUP8 DUP1 EXTCODESIZE ISZERO DUP1 ISZERO PUSH2 0x524 JUMPI PUSH1 0x0 DUP1 REVERT JUMPDEST POP GAS CALL ISZERO DUP1 ISZERO PUSH2 0x538 JUMPI RETURNDATASIZE PUSH1 0x0 DUP1 RETURNDATACOPY RETURNDATASIZE PUSH1 0x0 REVERT JUMPDEST POP POP POP POP PUSH1 0x0 PUSH1 0x40 MLOAD PUSH2 0x54A SWAP1 PUSH2 0x7FE JUMP JUMPDEST PUSH1 0x40 MLOAD DUP1 SWAP2 SUB SWAP1 PUSH1 0x0 CREATE DUP1 ISZERO DUP1 ISZERO PUSH2 0x566 JUMPI RETURNDATASIZE PUSH1 0x0 DUP1 RETURNDATACOPY RETURNDATASIZE PUSH1 0x0 REVERT JUMPDEST POP PUSH1 0x40 MLOAD PUSH4 0x485CC955 PUSH1 0xE0 SHL DUP2 MSTORE PUSH1 0x1 PUSH1 0x1 PUSH1 0xA0 SHL SUB DUP5 DUP2 AND PUSH1 0x4 DUP4 ADD MSTORE DUP8 DUP2 AND PUSH1 0x24 DUP4 ADD MSTORE SWAP2 SWAP3 POP DUP3 SWAP2 DUP3 AND SWAP1 PUSH4 0x485CC955 SWAP1 PUSH1 0x44 ADD PUSH1 0x0 PUSH1 0x40 MLOAD DUP1 DUP4 SUB DUP2 PUSH1 0x0 DUP8 DUP1 EXTCODESIZE ISZERO DUP1 ISZERO PUSH2 0x5B7 JUMPI PUSH1 0x0 DUP1 REVERT JUMPDEST POP GAS CALL ISZERO DUP1 ISZERO PUSH2 0x5CB JUMPI RETURNDATASIZE PUSH1 0x0 DUP1 RETURNDATACOPY RETURNDATASIZE PUSH1 0x0 REVERT JUMPDEST POP POP PUSH1 0x40 MLOAD PUSH4 0x1B2CE7F3 PUSH1 0xE1 SHL DUP2 MSTORE PUSH1 0x1 PUSH1 0x1 PUSH1 0xA0 SHL SUB DUP11 DUP2 AND PUSH1 0x4 DUP4 ADD MSTORE DUP6 AND SWAP3 POP PUSH4 0x3659CFE6 SWAP2 POP PUSH1 0x24 ADD PUSH1 0x0 PUSH1 0x40 MLOAD DUP1 DUP4 SUB DUP2 PUSH1 0x0 DUP8 DUP1 EXTCODESIZE ISZERO DUP1 ISZERO PUSH2 0x612 JUMPI PUSH1 0x0 DUP1 REVERT JUMPDEST POP GAS CALL ISZERO DUP1 ISZERO PUSH2 0x626 JUMPI RETURNDATASIZE PUSH1 0x0 DUP1 RETURNDATACOPY RETURNDATASIZE PUSH1 0x0 REVERT JUMPDEST POP POP CALLER PUSH1 0x0 DUP2 DUP2 MSTORE PUSH1 0x65 PUSH1 0x20 SWAP1 DUP2 MSTORE PUSH1 0x40 SWAP2 DUP3 SWAP1 KECCAK256 DUP1 SLOAD PUSH1 0x1 PUSH1 0x1 PUSH1 0xA0 SHL SUB NOT AND PUSH1 0x1 PUSH1 0x1 PUSH1 0xA0 SHL SUB DUP11 DUP2 AND SWAP2 DUP3 OR SWAP1 SWAP3 SSTORE DUP4 MLOAD SWAP5 DUP6 MSTORE SWAP2 DUP5 ADD SWAP2 SWAP1 SWAP2 MSTORE DUP6 AND SWAP1 DUP3 ADD MSTORE PUSH32 0x8FA4046773CF696F158F6ACD8FD309CB920CABE33A92E2F6AC6DEE58CB39E360 SWAP3 POP PUSH1 0x60 ADD SWAP1 POP PUSH1 0x40 MLOAD DUP1 SWAP2 SUB SWAP1 LOG1 POP SWAP1 SWAP9 SWAP8 POP POP POP POP POP POP POP POP JUMP JUMPDEST PUSH1 0x33 SLOAD PUSH1 0x1 PUSH1 0x1 PUSH1 0xA0 SHL SUB AND CALLER EQ PUSH2 0x6D2 JUMPI PUSH1 0x40 MLOAD PUSH3 0x461BCD PUSH1 0xE5 SHL DUP2 MSTORE PUSH1 0x4 ADD PUSH2 0x1A1 SWAP1 PUSH2 0xA4F JUMP JUMPDEST PUSH1 0x1 PUSH1 0x1 PUSH1 0xA0 SHL SUB DUP2 AND PUSH2 0x737 JUMPI PUSH1 0x40 MLOAD PUSH3 0x461BCD PUSH1 0xE5 SHL DUP2 MSTORE PUSH1 0x20 PUSH1 0x4 DUP3 ADD MSTORE PUSH1 0x26 PUSH1 0x24 DUP3 ADD MSTORE PUSH32 0x4F776E61626C653A206E6577206F776E657220697320746865207A65726F2061 PUSH1 0x44 DUP3 ADD MSTORE PUSH6 0x646472657373 PUSH1 0xD0 SHL PUSH1 0x64 DUP3 ADD MSTORE PUSH1 0x84 ADD PUSH2 0x1A1 JUMP JUMPDEST PUSH2 0x1E6 DUP2 PUSH2 0x76F JUMP JUMPDEST PUSH1 0x0 SLOAD PUSH2 0x100 SWAP1 DIV PUSH1 0xFF AND PUSH2 0x767 JUMPI PUSH1 0x40 MLOAD PUSH3 0x461BCD PUSH1 0xE5 SHL DUP2 MSTORE PUSH1 0x4 ADD PUSH2 0x1A1 SWAP1 PUSH2 0xB24 JUMP JUMPDEST PUSH2 0x4A5 PUSH2 0x7C1 JUMP JUMPDEST PUSH1 0x33 DUP1 SLOAD PUSH1 0x1 PUSH1 0x1 PUSH1 0xA0 SHL SUB DUP4 DUP2 AND PUSH1 0x1 PUSH1 0x1 PUSH1 0xA0 SHL SUB NOT DUP4 AND DUP2 OR SWAP1 SWAP4 SSTORE PUSH1 0x40 MLOAD SWAP2 AND SWAP2 SWAP1 DUP3 SWAP1 PUSH32 0x8BE0079C531659141344CD1FD0A4F28419497F9722A3DAAFE3B4186F6B6457E0 SWAP1 PUSH1 0x0 SWAP1 LOG3 POP POP JUMP JUMPDEST PUSH1 0x0 SLOAD PUSH2 0x100 SWAP1 DIV PUSH1 0xFF AND PUSH2 0x7E8 JUMPI PUSH1 0x40 MLOAD PUSH3 0x461BCD PUSH1 0xE5 SHL DUP2 MSTORE PUSH1 0x4 ADD PUSH2 0x1A1 SWAP1 PUSH2 0xB24 JUMP JUMPDEST PUSH2 0x4A5 CALLER PUSH2 0x76F JUMP JUMPDEST PUSH2 0x221C DUP1 PUSH2 0xB70 DUP4 CODECOPY ADD SWAP1 JUMP JUMPDEST PUSH2 0xC3E DUP1 PUSH2 0x2D8C DUP4 CODECOPY ADD SWAP1 JUMP JUMPDEST DUP1 CALLDATALOAD PUSH1 0x1 PUSH1 0x1 PUSH1 0xA0 SHL SUB DUP2 AND DUP2 EQ PUSH2 0x822 JUMPI PUSH1 0x0 DUP1 REVERT JUMPDEST SWAP2 SWAP1 POP JUMP JUMPDEST PUSH1 0x0 PUSH1 0x20 DUP3 DUP5 SUB SLT ISZERO PUSH2 0x839 JUMPI PUSH1 0x0 DUP1 REVERT JUMPDEST PUSH2 0x842 DUP3 PUSH2 0x80B JUMP JUMPDEST SWAP4 SWAP3 POP POP POP JUMP JUMPDEST PUSH4 0x4E487B71 PUSH1 0xE0 SHL PUSH1 0x0 MSTORE PUSH1 0x41 PUSH1 0x4 MSTORE PUSH1 0x24 PUSH1 0x0 REVERT JUMPDEST PUSH1 0x0 DUP3 PUSH1 0x1F DUP4 ADD SLT PUSH2 0x870 JUMPI PUSH1 0x0 DUP1 REVERT JUMPDEST DUP2 CALLDATALOAD PUSH8 0xFFFFFFFFFFFFFFFF DUP1 DUP3 GT ISZERO PUSH2 0x88B JUMPI PUSH2 0x88B PUSH2 0x849 JUMP JUMPDEST PUSH1 0x40 MLOAD PUSH1 0x1F DUP4 ADD PUSH1 0x1F NOT SWAP1 DUP2 AND PUSH1 0x3F ADD AND DUP2 ADD SWAP1 DUP3 DUP3 GT DUP2 DUP4 LT OR ISZERO PUSH2 0x8B3 JUMPI PUSH2 0x8B3 PUSH2 0x849 JUMP JUMPDEST DUP2 PUSH1 0x40 MSTORE DUP4 DUP2 MSTORE DUP7 PUSH1 0x20 DUP6 DUP9 ADD ADD GT ISZERO PUSH2 0x8CC JUMPI PUSH1 0x0 DUP1 REVERT JUMPDEST DUP4 PUSH1 0x20 DUP8 ADD PUSH1 0x20 DUP4 ADD CALLDATACOPY PUSH1 0x0 PUSH1 0x20 DUP6 DUP4 ADD ADD MSTORE DUP1 SWAP5 POP POP POP POP POP SWAP3 SWAP2 POP POP JUMP JUMPDEST PUSH1 0x0 DUP1 PUSH1 0x0 DUP1 PUSH1 0x0 DUP1 PUSH1 0xC0 DUP8 DUP10 SUB SLT ISZERO PUSH2 0x905 JUMPI PUSH1 0x0 DUP1 REVERT JUMPDEST PUSH2 0x90E DUP8 PUSH2 0x80B JUMP JUMPDEST SWAP6 POP PUSH1 0x20 DUP8 ADD CALLDATALOAD PUSH8 0xFFFFFFFFFFFFFFFF DUP1 DUP3 GT ISZERO PUSH2 0x92B JUMPI PUSH1 0x0 DUP1 REVERT JUMPDEST PUSH2 0x937 DUP11 DUP4 DUP12 ADD PUSH2 0x85F JUMP JUMPDEST SWAP7 POP PUSH1 0x40 DUP10 ADD CALLDATALOAD SWAP2 POP DUP1 DUP3 GT ISZERO PUSH2 0x94D JUMPI PUSH1 0x0 DUP1 REVERT JUMPDEST PUSH2 0x959 DUP11 DUP4 DUP12 ADD PUSH2 0x85F JUMP JUMPDEST SWAP6 POP PUSH1 0x60 DUP10 ADD CALLDATALOAD SWAP2 POP DUP1 DUP3 GT ISZERO PUSH2 0x96F JUMPI PUSH1 0x0 DUP1 REVERT JUMPDEST POP PUSH2 0x97C DUP10 DUP3 DUP11 ADD PUSH2 0x85F JUMP JUMPDEST SWAP4 POP POP PUSH2 0x98B PUSH1 0x80 DUP9 ADD PUSH2 0x80B JUMP JUMPDEST SWAP2 POP PUSH2 0x999 PUSH1 0xA0 DUP9 ADD PUSH2 0x80B JUMP JUMPDEST SWAP1 POP SWAP3 SWAP6 POP SWAP3 SWAP6 POP SWAP3 SWAP6 JUMP JUMPDEST PUSH1 0x0 DUP1 PUSH1 0x0 DUP1 PUSH1 0x0 PUSH1 0xA0 DUP7 DUP9 SUB SLT ISZERO PUSH2 0x9BD JUMPI PUSH1 0x0 DUP1 REVERT JUMPDEST DUP6 CALLDATALOAD PUSH8 0xFFFFFFFFFFFFFFFF DUP1 DUP3 GT ISZERO PUSH2 0x9D5 JUMPI PUSH1 0x0 DUP1 REVERT JUMPDEST PUSH2 0x9E1 DUP10 DUP4 DUP11 ADD PUSH2 0x85F JUMP JUMPDEST SWAP7 POP PUSH1 0x20 DUP9 ADD CALLDATALOAD SWAP2 POP DUP1 DUP3 GT ISZERO PUSH2 0x9F7 JUMPI PUSH1 0x0 DUP1 REVERT JUMPDEST PUSH2 0xA03 DUP10 DUP4 DUP11 ADD PUSH2 0x85F JUMP JUMPDEST SWAP6 POP PUSH1 0x40 DUP9 ADD CALLDATALOAD SWAP2 POP DUP1 DUP3 GT ISZERO PUSH2 0xA19 JUMPI PUSH1 0x0 DUP1 REVERT JUMPDEST POP PUSH2 0xA26 DUP9 DUP3 DUP10 ADD PUSH2 0x85F JUMP JUMPDEST SWAP4 POP POP PUSH2 0xA35 PUSH1 0x60 DUP8 ADD PUSH2 0x80B JUMP JUMPDEST SWAP2 POP PUSH2 0xA43 PUSH1 0x80 DUP8 ADD PUSH2 0x80B JUMP JUMPDEST SWAP1 POP SWAP3 SWAP6 POP SWAP3 SWAP6 SWAP1 SWAP4 POP JUMP JUMPDEST PUSH1 0x20 DUP1 DUP3 MSTORE DUP2 DUP2 ADD MSTORE PUSH32 0x4F776E61626C653A2063616C6C6572206973206E6F7420746865206F776E6572 PUSH1 0x40 DUP3 ADD MSTORE PUSH1 0x60 ADD SWAP1 JUMP JUMPDEST PUSH1 0x0 DUP2 MLOAD DUP1 DUP5 MSTORE PUSH1 0x0 JUMPDEST DUP2 DUP2 LT ISZERO PUSH2 0xAAA JUMPI PUSH1 0x20 DUP2 DUP6 ADD DUP2 ADD MLOAD DUP7 DUP4 ADD DUP3 ADD MSTORE ADD PUSH2 0xA8E JUMP JUMPDEST DUP2 DUP2 GT ISZERO PUSH2 0xABC JUMPI PUSH1 0x0 PUSH1 0x20 DUP4 DUP8 ADD ADD MSTORE JUMPDEST POP PUSH1 0x1F ADD PUSH1 0x1F NOT AND SWAP3 SWAP1 SWAP3 ADD PUSH1 0x20 ADD SWAP3 SWAP2 POP POP JUMP JUMPDEST PUSH1 0x80 DUP2 MSTORE PUSH1 0x0 PUSH2 0xAE4 PUSH1 0x80 DUP4 ADD DUP8 PUSH2 0xA84 JUMP JUMPDEST DUP3 DUP2 SUB PUSH1 0x20 DUP5 ADD MSTORE PUSH2 0xAF6 DUP2 DUP8 PUSH2 0xA84 JUMP JUMPDEST SWAP1 POP DUP3 DUP2 SUB PUSH1 0x40 DUP5 ADD MSTORE PUSH2 0xB0A DUP2 DUP7 PUSH2 0xA84 JUMP JUMPDEST SWAP2 POP POP PUSH1 0x1 DUP1 PUSH1 0xA0 SHL SUB DUP4 AND PUSH1 0x60 DUP4 ADD MSTORE SWAP6 SWAP5 POP POP POP POP POP JUMP JUMPDEST PUSH1 0x20 DUP1 DUP3 MSTORE PUSH1 0x2B SWAP1 DUP3 ADD MSTORE PUSH32 0x496E697469616C697A61626C653A20636F6E7472616374206973206E6F742069 PUSH1 0x40 DUP3 ADD MSTORE PUSH11 0x6E697469616C697A696E67 PUSH1 0xA8 SHL PUSH1 0x60 DUP3 ADD MSTORE PUSH1 0x80 ADD SWAP1 JUMP INVALID PUSH1 0x80 PUSH1 0x40 MSTORE CALLVALUE DUP1 ISZERO PUSH2 0x10 JUMPI PUSH1 0x0 DUP1 REVERT JUMPDEST POP PUSH2 0x21FC DUP1 PUSH2 0x20 PUSH1 0x0 CODECOPY PUSH1 0x0 RETURN INVALID PUSH1 0x80 PUSH1 0x40 MSTORE CALLVALUE DUP1 ISZERO PUSH2 0x10 JUMPI PUSH1 0x0 DUP1 REVERT JUMPDEST POP PUSH1 0x4 CALLDATASIZE LT PUSH2 0x173 JUMPI PUSH1 0x0 CALLDATALOAD PUSH1 0xE0 SHR DUP1 PUSH4 0x6352211E GT PUSH2 0xDE JUMPI DUP1 PUSH4 0xA22CB465 GT PUSH2 0x97 JUMPI DUP1 PUSH4 0xCA915939 GT PUSH2 0x71 JUMPI DUP1 PUSH4 0xCA915939 EQ PUSH2 0x33C JUMPI DUP1 PUSH4 0xE985E9C5 EQ PUSH2 0x34F JUMPI DUP1 PUSH4 0xF2FDE38B EQ PUSH2 0x38B JUMPI DUP1 PUSH4 0xF5537EDE EQ PUSH2 0x39E JUMPI PUSH1 0x0 DUP1 REVERT JUMPDEST DUP1 PUSH4 0xA22CB465 EQ PUSH2 0x303 JUMPI DUP1 PUSH4 0xB88D4FDE EQ PUSH2 0x316 JUMPI DUP1 PUSH4 0xC87B56DD EQ PUSH2 0x329 JUMPI PUSH1 0x0 DUP1 REVERT JUMPDEST DUP1 PUSH4 0x6352211E EQ PUSH2 0x2AB JUMPI DUP1 PUSH4 0x70A08231 EQ PUSH2 0x2BE JUMPI DUP1 PUSH4 0x715018A6 EQ PUSH2 0x2D1 JUMPI DUP1 PUSH4 0x8204C326 EQ PUSH2 0x2D9 JUMPI DUP1 PUSH4 0x8DA5CB5B EQ PUSH2 0x2EA JUMPI DUP1 PUSH4 0x95D89B41 EQ PUSH2 0x2FB JUMPI PUSH1 0x0 DUP1 REVERT JUMPDEST DUP1 PUSH4 0x29575F6A GT PUSH2 0x130 JUMPI DUP1 PUSH4 0x29575F6A EQ PUSH2 0x21A JUMPI DUP1 PUSH4 0x2A55205A EQ PUSH2 0x22D JUMPI DUP1 PUSH4 0x2F745C59 EQ PUSH2 0x25F JUMPI DUP1 PUSH4 0x42842E0E EQ PUSH2 0x272 JUMPI DUP1 PUSH4 0x4F6CCCE7 EQ PUSH2 0x285 JUMPI DUP1 PUSH4 0x5C6D8DA1 EQ PUSH2 0x298 JUMPI PUSH1 0x0 DUP1 REVERT JUMPDEST DUP1 PUSH4 0x1FFC9A7 EQ PUSH2 0x178 JUMPI DUP1 PUSH4 0x6FDDE03 EQ PUSH2 0x1A0 JUMPI DUP1 PUSH4 0x81812FC EQ PUSH2 0x1B5 JUMPI DUP1 PUSH4 0x95EA7B3 EQ PUSH2 0x1E0 JUMPI DUP1 PUSH4 0x18160DDD EQ PUSH2 0x1F5 JUMPI DUP1 PUSH4 0x23B872DD EQ PUSH2 0x207 JUMPI JUMPDEST PUSH1 0x0 DUP1 REVERT JUMPDEST PUSH2 0x18B PUSH2 0x186 CALLDATASIZE PUSH1 0x4 PUSH2 0x1AB7 JUMP JUMPDEST PUSH2 0x3B1 JUMP JUMPDEST PUSH1 0x40 MLOAD SWAP1 ISZERO ISZERO DUP2 MSTORE PUSH1 0x20 ADD JUMPDEST PUSH1 0x40 MLOAD DUP1 SWAP2 SUB SWAP1 RETURN JUMPDEST PUSH2 0x1A8 PUSH2 0x3E3 JUMP JUMPDEST PUSH1 0x40 MLOAD PUSH2 0x197 SWAP2 SWAP1 PUSH2 0x1B2C JUMP JUMPDEST PUSH2 0x1C8 PUSH2 0x1C3 CALLDATASIZE PUSH1 0x4 PUSH2 0x1B3F JUMP JUMPDEST PUSH2 0x475 JUMP JUMPDEST PUSH1 0x40 MLOAD PUSH1 0x1 PUSH1 0x1 PUSH1 0xA0 SHL SUB SWAP1 SWAP2 AND DUP2 MSTORE PUSH1 0x20 ADD PUSH2 0x197 JUMP JUMPDEST PUSH2 0x1F3 PUSH2 0x1EE CALLDATASIZE PUSH1 0x4 PUSH2 0x1B6D JUMP JUMPDEST PUSH2 0x50F JUMP JUMPDEST STOP JUMPDEST PUSH1 0xCB SLOAD JUMPDEST PUSH1 0x40 MLOAD SWAP1 DUP2 MSTORE PUSH1 0x20 ADD PUSH2 0x197 JUMP JUMPDEST PUSH2 0x1F3 PUSH2 0x215 CALLDATASIZE PUSH1 0x4 PUSH2 0x1B99 JUMP JUMPDEST PUSH2 0x625 JUMP JUMPDEST PUSH1 0xFC SLOAD PUSH2 0x1C8 SWAP1 PUSH1 0x1 PUSH1 0x1 PUSH1 0xA0 SHL SUB AND DUP2 JUMP JUMPDEST PUSH2 0x240 PUSH2 0x23B CALLDATASIZE PUSH1 0x4 PUSH2 0x1BDA JUMP JUMPDEST PUSH2 0x656 JUMP JUMPDEST PUSH1 0x40 DUP1 MLOAD PUSH1 0x1 PUSH1 0x1 PUSH1 0xA0 SHL SUB SWAP1 SWAP4 AND DUP4 MSTORE PUSH1 0x20 DUP4 ADD SWAP2 SWAP1 SWAP2 MSTORE ADD PUSH2 0x197 JUMP JUMPDEST PUSH2 0x1F9 PUSH2 0x26D CALLDATASIZE PUSH1 0x4 PUSH2 0x1B6D JUMP JUMPDEST PUSH2 0x706 JUMP JUMPDEST PUSH2 0x1F3 PUSH2 0x280 CALLDATASIZE PUSH1 0x4 PUSH2 0x1B99 JUMP JUMPDEST PUSH2 0x79C JUMP JUMPDEST PUSH2 0x1F9 PUSH2 0x293 CALLDATASIZE PUSH1 0x4 PUSH2 0x1B3F JUMP JUMPDEST PUSH2 0x7B7 JUMP JUMPDEST PUSH2 0x1F3 PUSH2 0x2A6 CALLDATASIZE PUSH1 0x4 PUSH2 0x1CA8 JUMP JUMPDEST PUSH2 0x84A JUMP JUMPDEST PUSH2 0x1C8 PUSH2 0x2B9 CALLDATASIZE PUSH1 0x4 PUSH2 0x1B3F JUMP JUMPDEST PUSH2 0x947 JUMP JUMPDEST PUSH2 0x1F9 PUSH2 0x2CC CALLDATASIZE PUSH1 0x4 PUSH2 0x1D43 JUMP JUMPDEST PUSH2 0x9BE JUMP JUMPDEST PUSH2 0x1F3 PUSH2 0xA45 JUMP JUMPDEST PUSH1 0xFC SLOAD PUSH1 0x1 PUSH1 0x1 PUSH1 0xA0 SHL SUB AND PUSH2 0x1C8 JUMP JUMPDEST PUSH1 0x97 SLOAD PUSH1 0x1 PUSH1 0x1 PUSH1 0xA0 SHL SUB AND PUSH2 0x1C8 JUMP JUMPDEST PUSH2 0x1A8 PUSH2 0xA7B JUMP JUMPDEST PUSH2 0x1F3 PUSH2 0x311 CALLDATASIZE PUSH1 0x4 PUSH2 0x1D60 JUMP JUMPDEST PUSH2 0xA8A JUMP JUMPDEST PUSH2 0x1F3 PUSH2 0x324 CALLDATASIZE PUSH1 0x4 PUSH2 0x1D9E JUMP JUMPDEST PUSH2 0xA99 JUMP JUMPDEST PUSH2 0x1A8 PUSH2 0x337 CALLDATASIZE PUSH1 0x4 PUSH2 0x1B3F JUMP JUMPDEST PUSH2 0xAD1 JUMP JUMPDEST PUSH2 0x1F3 PUSH2 0x34A CALLDATASIZE PUSH1 0x4 PUSH2 0x1E1E JUMP JUMPDEST PUSH2 0xBAC JUMP JUMPDEST PUSH2 0x18B PUSH2 0x35D CALLDATASIZE PUSH1 0x4 PUSH2 0x1E92 JUMP JUMPDEST PUSH1 0x1 PUSH1 0x1 PUSH1 0xA0 SHL SUB SWAP2 DUP3 AND PUSH1 0x0 SWAP1 DUP2 MSTORE PUSH1 0x6A PUSH1 0x20 SWAP1 DUP2 MSTORE PUSH1 0x40 DUP1 DUP4 KECCAK256 SWAP4 SWAP1 SWAP5 AND DUP3 MSTORE SWAP2 SWAP1 SWAP2 MSTORE KECCAK256 SLOAD PUSH1 0xFF AND SWAP1 JUMP JUMPDEST PUSH2 0x1F3 PUSH2 0x399 CALLDATASIZE PUSH1 0x4 PUSH2 0x1D43 JUMP JUMPDEST PUSH2 0xBE0 JUMP JUMPDEST PUSH2 0x1F3 PUSH2 0x3AC CALLDATASIZE PUSH1 0x4 PUSH2 0x1B99 JUMP JUMPDEST PUSH2 0xC7B JUMP JUMPDEST PUSH1 0x0 PUSH1 0x1 PUSH1 0x1 PUSH1 0xE0 SHL SUB NOT DUP3 AND PUSH4 0x152A902D PUSH1 0xE1 SHL EQ ISZERO PUSH2 0x3D4 JUMPI POP PUSH1 0x1 SWAP2 SWAP1 POP JUMP JUMPDEST PUSH2 0x3DD DUP3 PUSH2 0xC96 JUMP JUMPDEST SWAP3 SWAP2 POP POP JUMP JUMPDEST PUSH1 0x60 PUSH1 0x65 DUP1 SLOAD PUSH2 0x3F2 SWAP1 PUSH2 0x1EC0 JUMP JUMPDEST DUP1 PUSH1 0x1F ADD PUSH1 0x20 DUP1 SWAP2 DIV MUL PUSH1 0x20 ADD PUSH1 0x40 MLOAD SWAP1 DUP2 ADD PUSH1 0x40 MSTORE DUP1 SWAP3 SWAP2 SWAP1 DUP2 DUP2 MSTORE PUSH1 0x20 ADD DUP3 DUP1 SLOAD PUSH2 0x41E SWAP1 PUSH2 0x1EC0 JUMP JUMPDEST DUP1 ISZERO PUSH2 0x46B JUMPI DUP1 PUSH1 0x1F LT PUSH2 0x440 JUMPI PUSH2 0x100 DUP1 DUP4 SLOAD DIV MUL DUP4 MSTORE SWAP2 PUSH1 0x20 ADD SWAP2 PUSH2 0x46B JUMP JUMPDEST DUP3 ADD SWAP2 SWAP1 PUSH1 0x0 MSTORE PUSH1 0x20 PUSH1 0x0 KECCAK256 SWAP1 JUMPDEST DUP2 SLOAD DUP2 MSTORE SWAP1 PUSH1 0x1 ADD SWAP1 PUSH1 0x20 ADD DUP1 DUP4 GT PUSH2 0x44E JUMPI DUP3 SWAP1 SUB PUSH1 0x1F AND DUP3 ADD SWAP2 JUMPDEST POP POP POP POP POP SWAP1 POP SWAP1 JUMP JUMPDEST PUSH1 0x0 DUP2 DUP2 MSTORE PUSH1 0x67 PUSH1 0x20 MSTORE PUSH1 0x40 DUP2 KECCAK256 SLOAD PUSH1 0x1 PUSH1 0x1 PUSH1 0xA0 SHL SUB AND PUSH2 0x4F3 JUMPI PUSH1 0x40 MLOAD PUSH3 0x461BCD PUSH1 0xE5 SHL DUP2 MSTORE PUSH1 0x20 PUSH1 0x4 DUP3 ADD MSTORE PUSH1 0x2C PUSH1 0x24 DUP3 ADD MSTORE PUSH32 0x4552433732313A20617070726F76656420717565727920666F72206E6F6E6578 PUSH1 0x44 DUP3 ADD MSTORE PUSH12 0x34B9BA32B73A103A37B5B2B7 PUSH1 0xA1 SHL PUSH1 0x64 DUP3 ADD MSTORE PUSH1 0x84 ADD JUMPDEST PUSH1 0x40 MLOAD DUP1 SWAP2 SUB SWAP1 REVERT JUMPDEST POP PUSH1 0x0 SWAP1 DUP2 MSTORE PUSH1 0x69 PUSH1 0x20 MSTORE PUSH1 0x40 SWAP1 KECCAK256 SLOAD PUSH1 0x1 PUSH1 0x1 PUSH1 0xA0 SHL SUB AND SWAP1 JUMP JUMPDEST PUSH1 0x0 PUSH2 0x51A DUP3 PUSH2 0x947 JUMP JUMPDEST SWAP1 POP DUP1 PUSH1 0x1 PUSH1 0x1 PUSH1 0xA0 SHL SUB AND DUP4 PUSH1 0x1 PUSH1 0x1 PUSH1 0xA0 SHL SUB AND EQ ISZERO PUSH2 0x588 JUMPI PUSH1 0x40 MLOAD PUSH3 0x461BCD PUSH1 0xE5 SHL DUP2 MSTORE PUSH1 0x20 PUSH1 0x4 DUP3 ADD MSTORE PUSH1 0x21 PUSH1 0x24 DUP3 ADD MSTORE PUSH32 0x4552433732313A20617070726F76616C20746F2063757272656E74206F776E65 PUSH1 0x44 DUP3 ADD MSTORE PUSH1 0x39 PUSH1 0xF9 SHL PUSH1 0x64 DUP3 ADD MSTORE PUSH1 0x84 ADD PUSH2 0x4EA JUMP JUMPDEST CALLER PUSH1 0x1 PUSH1 0x1 PUSH1 0xA0 SHL SUB DUP3 AND EQ DUP1 PUSH2 0x5A4 JUMPI POP PUSH2 0x5A4 DUP2 CALLER PUSH2 0x35D JUMP JUMPDEST PUSH2 0x616 JUMPI PUSH1 0x40 MLOAD PUSH3 0x461BCD PUSH1 0xE5 SHL DUP2 MSTORE PUSH1 0x20 PUSH1 0x4 DUP3 ADD MSTORE PUSH1 0x38 PUSH1 0x24 DUP3 ADD MSTORE PUSH32 0x4552433732313A20617070726F76652063616C6C6572206973206E6F74206F77 PUSH1 0x44 DUP3 ADD MSTORE PUSH32 0x6E6572206E6F7220617070726F76656420666F7220616C6C0000000000000000 PUSH1 0x64 DUP3 ADD MSTORE PUSH1 0x84 ADD PUSH2 0x4EA JUMP JUMPDEST PUSH2 0x620 DUP4 DUP4 PUSH2 0xCBB JUMP JUMPDEST POP POP POP JUMP JUMPDEST PUSH2 0x62F CALLER DUP3 PUSH2 0xD29 JUMP JUMPDEST PUSH2 0x64B JUMPI PUSH1 0x40 MLOAD PUSH3 0x461BCD PUSH1 0xE5 SHL DUP2 MSTORE PUSH1 0x4 ADD PUSH2 0x4EA SWAP1 PUSH2 0x1EFB JUMP JUMPDEST PUSH2 0x620 DUP4 DUP4 DUP4 PUSH2 0xE20 JUMP JUMPDEST PUSH1 0x0 DUP3 DUP2 MSTORE PUSH1 0x67 PUSH1 0x20 MSTORE PUSH1 0x40 DUP2 KECCAK256 SLOAD DUP2 SWAP1 PUSH1 0x1 PUSH1 0x1 PUSH1 0xA0 SHL SUB AND PUSH2 0x6BC JUMPI PUSH1 0x40 MLOAD PUSH3 0x461BCD PUSH1 0xE5 SHL DUP2 MSTORE PUSH1 0x20 PUSH1 0x4 DUP3 ADD MSTORE PUSH1 0x1F PUSH1 0x24 DUP3 ADD MSTORE PUSH32 0x717565727920666F72206E6F6E206E6F6E6578697374656E7420746F6B656E00 PUSH1 0x44 DUP3 ADD MSTORE PUSH1 0x64 ADD PUSH2 0x4EA JUMP JUMPDEST PUSH1 0x0 DUP5 DUP2 MSTORE PUSH1 0xFE PUSH1 0x20 MSTORE PUSH1 0x40 SWAP1 KECCAK256 PUSH1 0x1 ADD SLOAD PUSH2 0x2710 SWAP1 PUSH2 0x6DC SWAP1 DUP6 PUSH2 0x1F62 JUMP JUMPDEST PUSH2 0x6E6 SWAP2 SWAP1 PUSH2 0x1F97 JUMP JUMPDEST PUSH1 0x0 SWAP5 DUP6 MSTORE PUSH1 0xFE PUSH1 0x20 MSTORE PUSH1 0x40 SWAP1 SWAP5 KECCAK256 SLOAD PUSH1 0x1 PUSH1 0x1 PUSH1 0xA0 SHL SUB AND SWAP5 SWAP3 POP POP POP JUMP JUMPDEST PUSH1 0x0 PUSH2 0x711 DUP4 PUSH2 0x9BE JUMP JUMPDEST DUP3 LT PUSH2 0x773 JUMPI PUSH1 0x40 MLOAD PUSH3 0x461BCD PUSH1 0xE5 SHL DUP2 MSTORE PUSH1 0x20 PUSH1 0x4 DUP3 ADD MSTORE PUSH1 0x2B PUSH1 0x24 DUP3 ADD MSTORE PUSH32 0x455243373231456E756D657261626C653A206F776E657220696E646578206F75 PUSH1 0x44 DUP3 ADD MSTORE PUSH11 0x74206F6620626F756E6473 PUSH1 0xA8 SHL PUSH1 0x64 DUP3 ADD MSTORE PUSH1 0x84 ADD PUSH2 0x4EA JUMP JUMPDEST POP PUSH1 0x1 PUSH1 0x1 PUSH1 0xA0 SHL SUB SWAP2 SWAP1 SWAP2 AND PUSH1 0x0 SWAP1 DUP2 MSTORE PUSH1 0xC9 PUSH1 0x20 SWAP1 DUP2 MSTORE PUSH1 0x40 DUP1 DUP4 KECCAK256 SWAP4 DUP4 MSTORE SWAP3 SWAP1 MSTORE KECCAK256 SLOAD SWAP1 JUMP JUMPDEST PUSH2 0x620 DUP4 DUP4 DUP4 PUSH1 0x40 MLOAD DUP1 PUSH1 0x20 ADD PUSH1 0x40 MSTORE DUP1 PUSH1 0x0 DUP2 MSTORE POP PUSH2 0xA99 JUMP JUMPDEST PUSH1 0x0 PUSH2 0x7C2 PUSH1 0xCB SLOAD SWAP1 JUMP JUMPDEST DUP3 LT PUSH2 0x825 JUMPI PUSH1 0x40 MLOAD PUSH3 0x461BCD PUSH1 0xE5 SHL DUP2 MSTORE PUSH1 0x20 PUSH1 0x4 DUP3 ADD MSTORE PUSH1 0x2C PUSH1 0x24 DUP3 ADD MSTORE PUSH32 0x455243373231456E756D657261626C653A20676C6F62616C20696E646578206F PUSH1 0x44 DUP3 ADD MSTORE PUSH12 0x7574206F6620626F756E6473 PUSH1 0xA0 SHL PUSH1 0x64 DUP3 ADD MSTORE PUSH1 0x84 ADD PUSH2 0x4EA JUMP JUMPDEST PUSH1 0xCB DUP3 DUP2 SLOAD DUP2 LT PUSH2 0x838 JUMPI PUSH2 0x838 PUSH2 0x1FAB JUMP JUMPDEST SWAP1 PUSH1 0x0 MSTORE PUSH1 0x20 PUSH1 0x0 KECCAK256 ADD SLOAD SWAP1 POP SWAP2 SWAP1 POP JUMP JUMPDEST PUSH1 0x0 SLOAD PUSH2 0x100 SWAP1 DIV PUSH1 0xFF AND PUSH2 0x865 JUMPI PUSH1 0x0 SLOAD PUSH1 0xFF AND ISZERO PUSH2 0x869 JUMP JUMPDEST ADDRESS EXTCODESIZE ISZERO JUMPDEST PUSH2 0x8CC JUMPI PUSH1 0x40 MLOAD PUSH3 0x461BCD PUSH1 0xE5 SHL DUP2 MSTORE PUSH1 0x20 PUSH1 0x4 DUP3 ADD MSTORE PUSH1 0x2E PUSH1 0x24 DUP3 ADD MSTORE PUSH32 0x496E697469616C697A61626C653A20636F6E747261637420697320616C726561 PUSH1 0x44 DUP3 ADD MSTORE PUSH14 0x191E481A5B9A5D1A585B1A5E9959 PUSH1 0x92 SHL PUSH1 0x64 DUP3 ADD MSTORE PUSH1 0x84 ADD PUSH2 0x4EA JUMP JUMPDEST PUSH1 0x0 SLOAD PUSH2 0x100 SWAP1 DIV PUSH1 0xFF AND ISZERO DUP1 ISZERO PUSH2 0x8EE JUMPI PUSH1 0x0 DUP1 SLOAD PUSH2 0xFFFF NOT AND PUSH2 0x101 OR SWAP1 SSTORE JUMPDEST PUSH2 0x8F8 DUP6 DUP6 PUSH2 0xFC7 JUMP JUMPDEST PUSH2 0x900 PUSH2 0xFF8 JUMP JUMPDEST PUSH2 0x908 PUSH2 0xFF8 JUMP JUMPDEST PUSH2 0x910 PUSH2 0x101F JUMP JUMPDEST PUSH2 0x919 DUP3 PUSH2 0x104F JUMP JUMPDEST POP DUP3 MLOAD PUSH2 0x92D SWAP1 PUSH1 0xFB SWAP1 PUSH1 0x20 DUP7 ADD SWAP1 PUSH2 0x1A08 JUMP JUMPDEST POP DUP1 ISZERO PUSH2 0x940 JUMPI PUSH1 0x0 DUP1 SLOAD PUSH2 0xFF00 NOT AND SWAP1 SSTORE JUMPDEST POP POP POP POP POP JUMP JUMPDEST PUSH1 0x0 DUP2 DUP2 MSTORE PUSH1 0x67 PUSH1 0x20 MSTORE PUSH1 0x40 DUP2 KECCAK256 SLOAD PUSH1 0x1 PUSH1 0x1 PUSH1 0xA0 SHL SUB AND DUP1 PUSH2 0x3DD JUMPI PUSH1 0x40 MLOAD PUSH3 0x461BCD PUSH1 0xE5 SHL DUP2 MSTORE PUSH1 0x20 PUSH1 0x4 DUP3 ADD MSTORE PUSH1 0x29 PUSH1 0x24 DUP3 ADD MSTORE PUSH32 0x4552433732313A206F776E657220717565727920666F72206E6F6E6578697374 PUSH1 0x44 DUP3 ADD MSTORE PUSH9 0x32B73A103A37B5B2B7 PUSH1 0xB9 SHL PUSH1 0x64 DUP3 ADD MSTORE PUSH1 0x84 ADD PUSH2 0x4EA JUMP JUMPDEST PUSH1 0x0 PUSH1 0x1 PUSH1 0x1 PUSH1 0xA0 SHL SUB DUP3 AND PUSH2 0xA29 JUMPI PUSH1 0x40 MLOAD PUSH3 0x461BCD PUSH1 0xE5 SHL DUP2 MSTORE PUSH1 0x20 PUSH1 0x4 DUP3 ADD MSTORE PUSH1 0x2A PUSH1 0x24 DUP3 ADD MSTORE PUSH32 0x4552433732313A2062616C616E636520717565727920666F7220746865207A65 PUSH1 0x44 DUP3 ADD MSTORE PUSH10 0x726F2061646472657373 PUSH1 0xB0 SHL PUSH1 0x64 DUP3 ADD MSTORE PUSH1 0x84 ADD PUSH2 0x4EA JUMP JUMPDEST POP PUSH1 0x1 PUSH1 0x1 PUSH1 0xA0 SHL SUB AND PUSH1 0x0 SWAP1 DUP2 MSTORE PUSH1 0x68 PUSH1 0x20 MSTORE PUSH1 0x40 SWAP1 KECCAK256 SLOAD SWAP1 JUMP JUMPDEST PUSH1 0x97 SLOAD PUSH1 0x1 PUSH1 0x1 PUSH1 0xA0 SHL SUB AND CALLER EQ PUSH2 0xA6F JUMPI PUSH1 0x40 MLOAD PUSH3 0x461BCD PUSH1 0xE5 SHL DUP2 MSTORE PUSH1 0x4 ADD PUSH2 0x4EA SWAP1 PUSH2 0x1FC1 JUMP JUMPDEST PUSH2 0xA79 PUSH1 0x0 PUSH2 0x1129 JUMP JUMPDEST JUMP JUMPDEST PUSH1 0x60 PUSH1 0x66 DUP1 SLOAD PUSH2 0x3F2 SWAP1 PUSH2 0x1EC0 JUMP JUMPDEST PUSH2 0xA95 CALLER DUP4 DUP4 PUSH2 0x117B JUMP JUMPDEST POP POP JUMP JUMPDEST PUSH2 0xAA3 CALLER DUP4 PUSH2 0xD29 JUMP JUMPDEST PUSH2 0xABF JUMPI PUSH1 0x40 MLOAD PUSH3 0x461BCD PUSH1 0xE5 SHL DUP2 MSTORE PUSH1 0x4 ADD PUSH2 0x4EA SWAP1 PUSH2 0x1EFB JUMP JUMPDEST PUSH2 0xACB DUP5 DUP5 DUP5 DUP5 PUSH2 0x124A JUMP JUMPDEST POP POP POP POP JUMP JUMPDEST PUSH1 0x0 DUP2 DUP2 MSTORE PUSH1 0x67 PUSH1 0x20 MSTORE PUSH1 0x40 SWAP1 KECCAK256 SLOAD PUSH1 0x60 SWAP1 PUSH1 0x1 PUSH1 0x1 PUSH1 0xA0 SHL SUB AND PUSH2 0xB50 JUMPI PUSH1 0x40 MLOAD PUSH3 0x461BCD PUSH1 0xE5 SHL DUP2 MSTORE PUSH1 0x20 PUSH1 0x4 DUP3 ADD MSTORE PUSH1 0x2F PUSH1 0x24 DUP3 ADD MSTORE PUSH32 0x4552433732314D657461646174613A2055524920717565727920666F72206E6F PUSH1 0x44 DUP3 ADD MSTORE PUSH15 0x3732BC34B9BA32B73A103A37B5B2B7 PUSH1 0x89 SHL PUSH1 0x64 DUP3 ADD MSTORE PUSH1 0x84 ADD PUSH2 0x4EA JUMP JUMPDEST PUSH1 0x0 PUSH2 0xB5A PUSH2 0x127D JUMP JUMPDEST SWAP1 POP PUSH1 0x0 DUP2 MLOAD GT PUSH2 0xB7A JUMPI PUSH1 0x40 MLOAD DUP1 PUSH1 0x20 ADD PUSH1 0x40 MSTORE DUP1 PUSH1 0x0 DUP2 MSTORE POP PUSH2 0xBA5 JUMP JUMPDEST DUP1 PUSH2 0xB84 DUP5 PUSH2 0x128C JUMP JUMPDEST PUSH1 0x40 MLOAD PUSH1 0x20 ADD PUSH2 0xB95 SWAP3 SWAP2 SWAP1 PUSH2 0x1FF6 JUMP JUMPDEST PUSH1 0x40 MLOAD PUSH1 0x20 DUP2 DUP4 SUB SUB DUP2 MSTORE SWAP1 PUSH1 0x40 MSTORE JUMPDEST SWAP4 SWAP3 POP POP POP JUMP JUMPDEST PUSH2 0xBB6 DUP4 DUP6 PUSH2 0x138A JUMP JUMPDEST PUSH1 0x0 DUP5 DUP2 MSTORE PUSH1 0xFD PUSH1 0x20 SWAP1 DUP2 MSTORE PUSH1 0x40 SWAP1 SWAP2 KECCAK256 DUP4 MLOAD PUSH2 0xBD5 SWAP3 DUP6 ADD SWAP1 PUSH2 0x1A08 JUMP JUMPDEST POP PUSH2 0xACB DUP5 DUP3 PUSH2 0x13A4 JUMP JUMPDEST PUSH1 0x97 SLOAD PUSH1 0x1 PUSH1 0x1 PUSH1 0xA0 SHL SUB AND CALLER EQ PUSH2 0xC0A JUMPI PUSH1 0x40 MLOAD PUSH3 0x461BCD PUSH1 0xE5 SHL DUP2 MSTORE PUSH1 0x4 ADD PUSH2 0x4EA SWAP1 PUSH2 0x1FC1 JUMP JUMPDEST PUSH1 0x1 PUSH1 0x1 PUSH1 0xA0 SHL SUB DUP2 AND PUSH2 0xC6F JUMPI PUSH1 0x40 MLOAD PUSH3 0x461BCD PUSH1 0xE5 SHL DUP2 MSTORE PUSH1 0x20 PUSH1 0x4 DUP3 ADD MSTORE PUSH1 0x26 PUSH1 0x24 DUP3 ADD MSTORE PUSH32 0x4F776E61626C653A206E6577206F776E657220697320746865207A65726F2061 PUSH1 0x44 DUP3 ADD MSTORE PUSH6 0x646472657373 PUSH1 0xD0 SHL PUSH1 0x64 DUP3 ADD MSTORE PUSH1 0x84 ADD PUSH2 0x4EA JUMP JUMPDEST PUSH2 0xC78 DUP2 PUSH2 0x1129 JUMP JUMPDEST POP JUMP JUMPDEST PUSH2 0x620 DUP4 DUP4 DUP4 PUSH1 0x40 MLOAD DUP1 PUSH1 0x20 ADD PUSH1 0x40 MSTORE DUP1 PUSH1 0x0 DUP2 MSTORE POP PUSH2 0x124A JUMP JUMPDEST PUSH1 0x0 PUSH1 0x1 PUSH1 0x1 PUSH1 0xE0 SHL SUB NOT DUP3 AND PUSH4 0x780E9D63 PUSH1 0xE0 SHL EQ DUP1 PUSH2 0x3DD JUMPI POP PUSH2 0x3DD DUP3 PUSH2 0x1498 JUMP JUMPDEST PUSH1 0x0 DUP2 DUP2 MSTORE PUSH1 0x69 PUSH1 0x20 MSTORE PUSH1 0x40 SWAP1 KECCAK256 DUP1 SLOAD PUSH1 0x1 PUSH1 0x1 PUSH1 0xA0 SHL SUB NOT AND PUSH1 0x1 PUSH1 0x1 PUSH1 0xA0 SHL SUB DUP5 AND SWAP1 DUP2 OR SWAP1 SWAP2 SSTORE DUP2 SWAP1 PUSH2 0xCF0 DUP3 PUSH2 0x947 JUMP JUMPDEST PUSH1 0x1 PUSH1 0x1 PUSH1 0xA0 SHL SUB AND PUSH32 0x8C5BE1E5EBEC7D5BD14F71427D1E84F3DD0314C0F7B2291E5B200AC8C7C3B925 PUSH1 0x40 MLOAD PUSH1 0x40 MLOAD DUP1 SWAP2 SUB SWAP1 LOG4 POP POP JUMP JUMPDEST PUSH1 0x0 DUP2 DUP2 MSTORE PUSH1 0x67 PUSH1 0x20 MSTORE PUSH1 0x40 DUP2 KECCAK256 SLOAD PUSH1 0x1 PUSH1 0x1 PUSH1 0xA0 SHL SUB AND PUSH2 0xDA2 JUMPI PUSH1 0x40 MLOAD PUSH3 0x461BCD PUSH1 0xE5 SHL DUP2 MSTORE PUSH1 0x20 PUSH1 0x4 DUP3 ADD MSTORE PUSH1 0x2C PUSH1 0x24 DUP3 ADD MSTORE PUSH32 0x4552433732313A206F70657261746F7220717565727920666F72206E6F6E6578 PUSH1 0x44 DUP3 ADD MSTORE PUSH12 0x34B9BA32B73A103A37B5B2B7 PUSH1 0xA1 SHL PUSH1 0x64 DUP3 ADD MSTORE PUSH1 0x84 ADD PUSH2 0x4EA JUMP JUMPDEST PUSH1 0x0 PUSH2 0xDAD DUP4 PUSH2 0x947 JUMP JUMPDEST SWAP1 POP DUP1 PUSH1 0x1 PUSH1 0x1 PUSH1 0xA0 SHL SUB AND DUP5 PUSH1 0x1 PUSH1 0x1 PUSH1 0xA0 SHL SUB AND EQ DUP1 PUSH2 0xDE8 JUMPI POP DUP4 PUSH1 0x1 PUSH1 0x1 PUSH1 0xA0 SHL SUB AND PUSH2 0xDDD DUP5 PUSH2 0x475 JUMP JUMPDEST PUSH1 0x1 PUSH1 0x1 PUSH1 0xA0 SHL SUB AND EQ JUMPDEST DUP1 PUSH2 0xE18 JUMPI POP PUSH1 0x1 PUSH1 0x1 PUSH1 0xA0 SHL SUB DUP1 DUP3 AND PUSH1 0x0 SWAP1 DUP2 MSTORE PUSH1 0x6A PUSH1 0x20 SWAP1 DUP2 MSTORE PUSH1 0x40 DUP1 DUP4 KECCAK256 SWAP4 DUP9 AND DUP4 MSTORE SWAP3 SWAP1 MSTORE KECCAK256 SLOAD PUSH1 0xFF AND JUMPDEST SWAP5 SWAP4 POP POP POP POP JUMP JUMPDEST DUP3 PUSH1 0x1 PUSH1 0x1 PUSH1 0xA0 SHL SUB AND PUSH2 0xE33 DUP3 PUSH2 0x947 JUMP JUMPDEST PUSH1 0x1 PUSH1 0x1 PUSH1 0xA0 SHL SUB AND EQ PUSH2 0xE97 JUMPI PUSH1 0x40 MLOAD PUSH3 0x461BCD PUSH1 0xE5 SHL DUP2 MSTORE PUSH1 0x20 PUSH1 0x4 DUP3 ADD MSTORE PUSH1 0x25 PUSH1 0x24 DUP3 ADD MSTORE PUSH32 0x4552433732313A207472616E736665722066726F6D20696E636F727265637420 PUSH1 0x44 DUP3 ADD MSTORE PUSH5 0x37BBB732B9 PUSH1 0xD9 SHL PUSH1 0x64 DUP3 ADD MSTORE PUSH1 0x84 ADD PUSH2 0x4EA JUMP JUMPDEST PUSH1 0x1 PUSH1 0x1 PUSH1 0xA0 SHL SUB DUP3 AND PUSH2 0xEF9 JUMPI PUSH1 0x40 MLOAD PUSH3 0x461BCD PUSH1 0xE5 SHL DUP2 MSTORE PUSH1 0x20 PUSH1 0x4 DUP3 ADD MSTORE PUSH1 0x24 DUP1 DUP3 ADD MSTORE PUSH32 0x4552433732313A207472616E7366657220746F20746865207A65726F20616464 PUSH1 0x44 DUP3 ADD MSTORE PUSH4 0x72657373 PUSH1 0xE0 SHL PUSH1 0x64 DUP3 ADD MSTORE PUSH1 0x84 ADD PUSH2 0x4EA JUMP JUMPDEST PUSH2 0xF04 DUP4 DUP4 DUP4 PUSH2 0x14E8 JUMP JUMPDEST PUSH2 0xF0F PUSH1 0x0 DUP3 PUSH2 0xCBB JUMP JUMPDEST PUSH1 0x1 PUSH1 0x1 PUSH1 0xA0 SHL SUB DUP4 AND PUSH1 0x0 SWAP1 DUP2 MSTORE PUSH1 0x68 PUSH1 0x20 MSTORE PUSH1 0x40 DUP2 KECCAK256 DUP1 SLOAD PUSH1 0x1 SWAP3 SWAP1 PUSH2 0xF38 SWAP1 DUP5 SWAP1 PUSH2 0x2025 JUMP JUMPDEST SWAP1 SWAP2 SSTORE POP POP PUSH1 0x1 PUSH1 0x1 PUSH1 0xA0 SHL SUB DUP3 AND PUSH1 0x0 SWAP1 DUP2 MSTORE PUSH1 0x68 PUSH1 0x20 MSTORE PUSH1 0x40 DUP2 KECCAK256 DUP1 SLOAD PUSH1 0x1 SWAP3 SWAP1 PUSH2 0xF66 SWAP1 DUP5 SWAP1 PUSH2 0x203C JUMP JUMPDEST SWAP1 SWAP2 SSTORE POP POP PUSH1 0x0 DUP2 DUP2 MSTORE PUSH1 0x67 PUSH1 0x20 MSTORE PUSH1 0x40 DUP1 DUP3 KECCAK256 DUP1 SLOAD PUSH1 0x1 PUSH1 0x1 PUSH1 0xA0 SHL SUB NOT AND PUSH1 0x1 PUSH1 0x1 PUSH1 0xA0 SHL SUB DUP7 DUP2 AND SWAP2 DUP3 OR SWAP1 SWAP3 SSTORE SWAP2 MLOAD DUP5 SWAP4 SWAP2 DUP8 AND SWAP2 PUSH32 0xDDF252AD1BE2C89B69C2B068FC378DAA952BA7F163C4A11628F55A4DF523B3EF SWAP2 LOG4 POP POP POP JUMP JUMPDEST PUSH1 0x0 SLOAD PUSH2 0x100 SWAP1 DIV PUSH1 0xFF AND PUSH2 0xFEE JUMPI PUSH1 0x40 MLOAD PUSH3 0x461BCD PUSH1 0xE5 SHL DUP2 MSTORE PUSH1 0x4 ADD PUSH2 0x4EA SWAP1 PUSH2 0x2054 JUMP JUMPDEST PUSH2 0xA95 DUP3 DUP3 PUSH2 0x14F3 JUMP JUMPDEST PUSH1 0x0 SLOAD PUSH2 0x100 SWAP1 DIV PUSH1 0xFF AND PUSH2 0xA79 JUMPI PUSH1 0x40 MLOAD PUSH3 0x461BCD PUSH1 0xE5 SHL DUP2 MSTORE PUSH1 0x4 ADD PUSH2 0x4EA SWAP1 PUSH2 0x2054 JUMP JUMPDEST PUSH1 0x0 SLOAD PUSH2 0x100 SWAP1 DIV PUSH1 0xFF AND PUSH2 0x1046 JUMPI PUSH1 0x40 MLOAD PUSH3 0x461BCD PUSH1 0xE5 SHL DUP2 MSTORE PUSH1 0x4 ADD PUSH2 0x4EA SWAP1 PUSH2 0x2054 JUMP JUMPDEST PUSH2 0xA79 CALLER PUSH2 0x1129 JUMP JUMPDEST PUSH1 0x97 SLOAD PUSH1 0x0 SWAP1 PUSH1 0x1 PUSH1 0x1 PUSH1 0xA0 SHL SUB AND CALLER EQ PUSH2 0x107C JUMPI PUSH1 0x40 MLOAD PUSH3 0x461BCD PUSH1 0xE5 SHL DUP2 MSTORE PUSH1 0x4 ADD PUSH2 0x4EA SWAP1 PUSH2 0x1FC1 JUMP JUMPDEST PUSH1 0x1 PUSH1 0x1 PUSH1 0xA0 SHL SUB DUP3 AND PUSH2 0x10C7 JUMPI PUSH1 0x40 MLOAD PUSH3 0x461BCD PUSH1 0xE5 SHL DUP2 MSTORE PUSH1 0x20 PUSH1 0x4 DUP3 ADD MSTORE PUSH1 0x12 PUSH1 0x24 DUP3 ADD MSTORE PUSH18 0xC081859191C995CDCC818585CDA59DB9959 PUSH1 0x72 SHL PUSH1 0x44 DUP3 ADD MSTORE PUSH1 0x64 ADD PUSH2 0x4EA JUMP JUMPDEST PUSH1 0xFC DUP1 SLOAD PUSH1 0x1 PUSH1 0x1 PUSH1 0xA0 SHL SUB NOT AND PUSH1 0x1 PUSH1 0x1 PUSH1 0xA0 SHL SUB DUP5 AND SWAP1 DUP2 OR SWAP1 SWAP2 SSTORE PUSH1 0x40 MLOAD SWAP1 DUP2 MSTORE PUSH32 0x396BDB3CDA40DD739DD1D3AE00B603D5C5CF54891E0BA31AF9E4D21708A82436 SWAP1 PUSH1 0x20 ADD PUSH1 0x40 MLOAD DUP1 SWAP2 SUB SWAP1 LOG1 POP POP PUSH1 0xFC SLOAD PUSH1 0x1 PUSH1 0x1 PUSH1 0xA0 SHL SUB AND SWAP1 JUMP JUMPDEST PUSH1 0x97 DUP1 SLOAD PUSH1 0x1 PUSH1 0x1 PUSH1 0xA0 SHL SUB DUP4 DUP2 AND PUSH1 0x1 PUSH1 0x1 PUSH1 0xA0 SHL SUB NOT DUP4 AND DUP2 OR SWAP1 SWAP4 SSTORE PUSH1 0x40 MLOAD SWAP2 AND SWAP2 SWAP1 DUP3 SWAP1 PUSH32 0x8BE0079C531659141344CD1FD0A4F28419497F9722A3DAAFE3B4186F6B6457E0 SWAP1 PUSH1 0x0 SWAP1 LOG3 POP POP JUMP JUMPDEST DUP2 PUSH1 0x1 PUSH1 0x1 PUSH1 0xA0 SHL SUB AND DUP4 PUSH1 0x1 PUSH1 0x1 PUSH1 0xA0 SHL SUB AND EQ ISZERO PUSH2 0x11DD JUMPI PUSH1 0x40 MLOAD PUSH3 0x461BCD PUSH1 0xE5 SHL DUP2 MSTORE PUSH1 0x20 PUSH1 0x4 DUP3 ADD MSTORE PUSH1 0x19 PUSH1 0x24 DUP3 ADD MSTORE PUSH32 0x4552433732313A20617070726F766520746F2063616C6C657200000000000000 PUSH1 0x44 DUP3 ADD MSTORE PUSH1 0x64 ADD PUSH2 0x4EA JUMP JUMPDEST PUSH1 0x1 PUSH1 0x1 PUSH1 0xA0 SHL SUB DUP4 DUP2 AND PUSH1 0x0 DUP2 DUP2 MSTORE PUSH1 0x6A PUSH1 0x20 SWAP1 DUP2 MSTORE PUSH1 0x40 DUP1 DUP4 KECCAK256 SWAP5 DUP8 AND DUP1 DUP5 MSTORE SWAP5 DUP3 MSTORE SWAP2 DUP3 SWAP1 KECCAK256 DUP1 SLOAD PUSH1 0xFF NOT AND DUP7 ISZERO ISZERO SWAP1 DUP2 OR SWAP1 SWAP2 SSTORE SWAP2 MLOAD SWAP2 DUP3 MSTORE PUSH32 0x17307EAB39AB6107E8899845AD3D59BD9653F200F220920489CA2B5937696C31 SWAP2 ADD PUSH1 0x40 MLOAD DUP1 SWAP2 SUB SWAP1 LOG3 POP POP POP JUMP JUMPDEST PUSH2 0x1255 DUP5 DUP5 DUP5 PUSH2 0xE20 JUMP JUMPDEST PUSH2 0x1261 DUP5 DUP5 DUP5 DUP5 PUSH2 0x1541 JUMP JUMPDEST PUSH2 0xACB JUMPI PUSH1 0x40 MLOAD PUSH3 0x461BCD PUSH1 0xE5 SHL DUP2 MSTORE PUSH1 0x4 ADD PUSH2 0x4EA SWAP1 PUSH2 0x209F JUMP JUMPDEST PUSH1 0x60 PUSH1 0xFB DUP1 SLOAD PUSH2 0x3F2 SWAP1 PUSH2 0x1EC0 JUMP JUMPDEST PUSH1 0x60 DUP2 PUSH2 0x12B0 JUMPI POP POP PUSH1 0x40 DUP1 MLOAD DUP1 DUP3 ADD SWAP1 SWAP2 MSTORE PUSH1 0x1 DUP2 MSTORE PUSH1 0x3 PUSH1 0xFC SHL PUSH1 0x20 DUP3 ADD MSTORE SWAP1 JUMP JUMPDEST DUP2 PUSH1 0x0 JUMPDEST DUP2 ISZERO PUSH2 0x12DA JUMPI DUP1 PUSH2 0x12C4 DUP2 PUSH2 0x20F1 JUMP JUMPDEST SWAP2 POP PUSH2 0x12D3 SWAP1 POP PUSH1 0xA DUP4 PUSH2 0x1F97 JUMP JUMPDEST SWAP2 POP PUSH2 0x12B4 JUMP JUMPDEST PUSH1 0x0 DUP2 PUSH8 0xFFFFFFFFFFFFFFFF DUP2 GT ISZERO PUSH2 0x12F5 JUMPI PUSH2 0x12F5 PUSH2 0x1BFC JUMP JUMPDEST PUSH1 0x40 MLOAD SWAP1 DUP1 DUP3 MSTORE DUP1 PUSH1 0x1F ADD PUSH1 0x1F NOT AND PUSH1 0x20 ADD DUP3 ADD PUSH1 0x40 MSTORE DUP1 ISZERO PUSH2 0x131F JUMPI PUSH1 0x20 DUP3 ADD DUP2 DUP1 CALLDATASIZE DUP4 CALLDATACOPY ADD SWAP1 POP JUMPDEST POP SWAP1 POP JUMPDEST DUP5 ISZERO PUSH2 0xE18 JUMPI PUSH2 0x1334 PUSH1 0x1 DUP4 PUSH2 0x2025 JUMP JUMPDEST SWAP2 POP PUSH2 0x1341 PUSH1 0xA DUP7 PUSH2 0x210C JUMP JUMPDEST PUSH2 0x134C SWAP1 PUSH1 0x30 PUSH2 0x203C JUMP JUMPDEST PUSH1 0xF8 SHL DUP2 DUP4 DUP2 MLOAD DUP2 LT PUSH2 0x1361 JUMPI PUSH2 0x1361 PUSH2 0x1FAB JUMP JUMPDEST PUSH1 0x20 ADD ADD SWAP1 PUSH1 0x1 PUSH1 0x1 PUSH1 0xF8 SHL SUB NOT AND SWAP1 DUP2 PUSH1 0x0 BYTE SWAP1 MSTORE8 POP PUSH2 0x1383 PUSH1 0xA DUP7 PUSH2 0x1F97 JUMP JUMPDEST SWAP5 POP PUSH2 0x1323 JUMP JUMPDEST PUSH2 0xA95 DUP3 DUP3 PUSH1 0x40 MLOAD DUP1 PUSH1 0x20 ADD PUSH1 0x40 MSTORE DUP1 PUSH1 0x0 DUP2 MSTORE POP PUSH2 0x163F JUMP JUMPDEST PUSH2 0x1F40 DUP2 PUSH1 0x20 ADD CALLDATALOAD GT ISZERO PUSH2 0x1406 JUMPI PUSH1 0x40 MLOAD PUSH3 0x461BCD PUSH1 0xE5 SHL DUP2 MSTORE PUSH1 0x20 PUSH1 0x4 DUP3 ADD MSTORE PUSH1 0x23 PUSH1 0x24 DUP3 ADD MSTORE PUSH32 0x726F79616C747920252073686F756C646E2774206265206C657373207468616E PUSH1 0x44 DUP3 ADD MSTORE PUSH3 0x20383 PUSH1 0xEC SHL PUSH1 0x64 DUP3 ADD MSTORE PUSH1 0x84 ADD PUSH2 0x4EA JUMP JUMPDEST PUSH1 0x0 PUSH2 0x1415 PUSH1 0x20 DUP4 ADD DUP4 PUSH2 0x1D43 JUMP JUMPDEST PUSH1 0x1 PUSH1 0x1 PUSH1 0xA0 SHL SUB AND EQ PUSH2 0xA95 JUMPI PUSH1 0x0 DUP3 DUP2 MSTORE PUSH1 0xFE PUSH1 0x20 MSTORE PUSH1 0x40 SWAP1 KECCAK256 DUP2 SWAP1 PUSH2 0x143D DUP3 DUP3 PUSH2 0x2120 JUMP JUMPDEST POP PUSH2 0x144D SWAP1 POP PUSH1 0x20 DUP3 ADD DUP3 PUSH2 0x1D43 JUMP JUMPDEST PUSH1 0x1 PUSH1 0x1 PUSH1 0xA0 SHL SUB AND DUP3 PUSH32 0x1518A753CE2BA621EE225961119AC7C1DC5ED445928DC2A37E81108A24FCCDF1 DUP4 PUSH1 0x20 ADD CALLDATALOAD PUSH1 0x40 MLOAD PUSH2 0x148C SWAP2 DUP2 MSTORE PUSH1 0x20 ADD SWAP1 JUMP JUMPDEST PUSH1 0x40 MLOAD DUP1 SWAP2 SUB SWAP1 LOG3 POP POP JUMP JUMPDEST PUSH1 0x0 PUSH1 0x1 PUSH1 0x1 PUSH1 0xE0 SHL SUB NOT DUP3 AND PUSH4 0x80AC58CD PUSH1 0xE0 SHL EQ DUP1 PUSH2 0x14C9 JUMPI POP PUSH1 0x1 PUSH1 0x1 PUSH1 0xE0 SHL SUB NOT DUP3 AND PUSH4 0x5B5E139F PUSH1 0xE0 SHL EQ JUMPDEST DUP1 PUSH2 0x3DD JUMPI POP PUSH4 0x1FFC9A7 PUSH1 0xE0 SHL PUSH1 0x1 PUSH1 0x1 PUSH1 0xE0 SHL SUB NOT DUP4 AND EQ PUSH2 0x3DD JUMP JUMPDEST PUSH2 0x620 DUP4 DUP4 DUP4 PUSH2 0x1672 JUMP JUMPDEST PUSH1 0x0 SLOAD PUSH2 0x100 SWAP1 DIV PUSH1 0xFF AND PUSH2 0x151A JUMPI PUSH1 0x40 MLOAD PUSH3 0x461BCD PUSH1 0xE5 SHL DUP2 MSTORE PUSH1 0x4 ADD PUSH2 0x4EA SWAP1 PUSH2 0x2054 JUMP JUMPDEST DUP2 MLOAD PUSH2 0x152D SWAP1 PUSH1 0x65 SWAP1 PUSH1 0x20 DUP6 ADD SWAP1 PUSH2 0x1A08 JUMP JUMPDEST POP DUP1 MLOAD PUSH2 0x620 SWAP1 PUSH1 0x66 SWAP1 PUSH1 0x20 DUP5 ADD SWAP1 PUSH2 0x1A08 JUMP JUMPDEST PUSH1 0x0 PUSH1 0x1 PUSH1 0x1 PUSH1 0xA0 SHL SUB DUP5 AND EXTCODESIZE ISZERO PUSH2 0x1634 JUMPI PUSH1 0x40 MLOAD PUSH4 0xA85BD01 PUSH1 0xE1 SHL DUP2 MSTORE PUSH1 0x1 PUSH1 0x1 PUSH1 0xA0 SHL SUB DUP6 AND SWAP1 PUSH4 0x150B7A02 SWAP1 PUSH2 0x1585 SWAP1 CALLER SWAP1 DUP10 SWAP1 DUP9 SWAP1 DUP9 SWAP1 PUSH1 0x4 ADD PUSH2 0x2156 JUMP JUMPDEST PUSH1 0x20 PUSH1 0x40 MLOAD DUP1 DUP4 SUB DUP2 PUSH1 0x0 DUP8 GAS CALL SWAP3 POP POP POP DUP1 ISZERO PUSH2 0x15C0 JUMPI POP PUSH1 0x40 DUP1 MLOAD PUSH1 0x1F RETURNDATASIZE SWAP1 DUP2 ADD PUSH1 0x1F NOT AND DUP3 ADD SWAP1 SWAP3 MSTORE PUSH2 0x15BD SWAP2 DUP2 ADD SWAP1 PUSH2 0x2193 JUMP JUMPDEST PUSH1 0x1 JUMPDEST PUSH2 0x161A JUMPI RETURNDATASIZE DUP1 DUP1 ISZERO PUSH2 0x15EE JUMPI PUSH1 0x40 MLOAD SWAP2 POP PUSH1 0x1F NOT PUSH1 0x3F RETURNDATASIZE ADD AND DUP3 ADD PUSH1 0x40 MSTORE RETURNDATASIZE DUP3 MSTORE RETURNDATASIZE PUSH1 0x0 PUSH1 0x20 DUP5 ADD RETURNDATACOPY PUSH2 0x15F3 JUMP JUMPDEST PUSH1 0x60 SWAP2 POP JUMPDEST POP DUP1 MLOAD PUSH2 0x1612 JUMPI PUSH1 0x40 MLOAD PUSH3 0x461BCD PUSH1 0xE5 SHL DUP2 MSTORE PUSH1 0x4 ADD PUSH2 0x4EA SWAP1 PUSH2 0x209F JUMP JUMPDEST DUP1 MLOAD DUP2 PUSH1 0x20 ADD REVERT JUMPDEST PUSH1 0x1 PUSH1 0x1 PUSH1 0xE0 SHL SUB NOT AND PUSH4 0xA85BD01 PUSH1 0xE1 SHL EQ SWAP1 POP PUSH2 0xE18 JUMP JUMPDEST POP PUSH1 0x1 SWAP5 SWAP4 POP POP POP POP JUMP JUMPDEST PUSH2 0x1649 DUP4 DUP4 PUSH2 0x172A JUMP JUMPDEST PUSH2 0x1656 PUSH1 0x0 DUP5 DUP5 DUP5 PUSH2 0x1541 JUMP JUMPDEST PUSH2 0x620 JUMPI PUSH1 0x40 MLOAD PUSH3 0x461BCD PUSH1 0xE5 SHL DUP2 MSTORE PUSH1 0x4 ADD PUSH2 0x4EA SWAP1 PUSH2 0x209F JUMP JUMPDEST PUSH1 0x1 PUSH1 0x1 PUSH1 0xA0 SHL SUB DUP4 AND PUSH2 0x16CD JUMPI PUSH2 0x16C8 DUP2 PUSH1 0xCB DUP1 SLOAD PUSH1 0x0 DUP4 DUP2 MSTORE PUSH1 0xCC PUSH1 0x20 MSTORE PUSH1 0x40 DUP2 KECCAK256 DUP3 SWAP1 SSTORE PUSH1 0x1 DUP3 ADD DUP4 SSTORE SWAP2 SWAP1 SWAP2 MSTORE PUSH32 0xA7CE836D032B2BF62B7E2097A8E0A6D8AEB35405AD15271E96D3B0188A1D06FB ADD SSTORE JUMP JUMPDEST PUSH2 0x16F0 JUMP JUMPDEST DUP2 PUSH1 0x1 PUSH1 0x1 PUSH1 0xA0 SHL SUB AND DUP4 PUSH1 0x1 PUSH1 0x1 PUSH1 0xA0 SHL SUB AND EQ PUSH2 0x16F0 JUMPI PUSH2 0x16F0 DUP4 DUP3 PUSH2 0x1878 JUMP JUMPDEST PUSH1 0x1 PUSH1 0x1 PUSH1 0xA0 SHL SUB DUP3 AND PUSH2 0x1707 JUMPI PUSH2 0x620 DUP2 PUSH2 0x1915 JUMP JUMPDEST DUP3 PUSH1 0x1 PUSH1 0x1 PUSH1 0xA0 SHL SUB AND DUP3 PUSH1 0x1 PUSH1 0x1 PUSH1 0xA0 SHL SUB AND EQ PUSH2 0x620 JUMPI PUSH2 0x620 DUP3 DUP3 PUSH2 0x19C4 JUMP JUMPDEST PUSH1 0x1 PUSH1 0x1 PUSH1 0xA0 SHL SUB DUP3 AND PUSH2 0x1780 JUMPI PUSH1 0x40 MLOAD PUSH3 0x461BCD PUSH1 0xE5 SHL DUP2 MSTORE PUSH1 0x20 PUSH1 0x4 DUP3 ADD DUP2 SWAP1 MSTORE PUSH1 0x24 DUP3 ADD MSTORE PUSH32 0x4552433732313A206D696E7420746F20746865207A65726F2061646472657373 PUSH1 0x44 DUP3 ADD MSTORE PUSH1 0x64 ADD PUSH2 0x4EA JUMP JUMPDEST PUSH1 0x0 DUP2 DUP2 MSTORE PUSH1 0x67 PUSH1 0x20 MSTORE PUSH1 0x40 SWAP1 KECCAK256 SLOAD PUSH1 0x1 PUSH1 0x1 PUSH1 0xA0 SHL SUB AND ISZERO PUSH2 0x17E5 JUMPI PUSH1 0x40 MLOAD PUSH3 0x461BCD PUSH1 0xE5 SHL DUP2 MSTORE PUSH1 0x20 PUSH1 0x4 DUP3 ADD MSTORE PUSH1 0x1C PUSH1 0x24 DUP3 ADD MSTORE PUSH32 0x4552433732313A20746F6B656E20616C7265616479206D696E74656400000000 PUSH1 0x44 DUP3 ADD MSTORE PUSH1 0x64 ADD PUSH2 0x4EA JUMP JUMPDEST PUSH2 0x17F1 PUSH1 0x0 DUP4 DUP4 PUSH2 0x14E8 JUMP JUMPDEST PUSH1 0x1 PUSH1 0x1 PUSH1 0xA0 SHL SUB DUP3 AND PUSH1 0x0 SWAP1 DUP2 MSTORE PUSH1 0x68 PUSH1 0x20 MSTORE PUSH1 0x40 DUP2 KECCAK256 DUP1 SLOAD PUSH1 0x1 SWAP3 SWAP1 PUSH2 0x181A SWAP1 DUP5 SWAP1 PUSH2 0x203C JUMP JUMPDEST SWAP1 SWAP2 SSTORE POP POP PUSH1 0x0 DUP2 DUP2 MSTORE PUSH1 0x67 PUSH1 0x20 MSTORE PUSH1 0x40 DUP1 DUP3 KECCAK256 DUP1 SLOAD PUSH1 0x1 PUSH1 0x1 PUSH1 0xA0 SHL SUB NOT AND PUSH1 0x1 PUSH1 0x1 PUSH1 0xA0 SHL SUB DUP7 AND SWAP1 DUP2 OR SWAP1 SWAP2 SSTORE SWAP1 MLOAD DUP4 SWAP3 SWAP1 PUSH32 0xDDF252AD1BE2C89B69C2B068FC378DAA952BA7F163C4A11628F55A4DF523B3EF SWAP1 DUP3 SWAP1 LOG4 POP POP JUMP JUMPDEST PUSH1 0x0 PUSH1 0x1 PUSH2 0x1885 DUP5 PUSH2 0x9BE JUMP JUMPDEST PUSH2 0x188F SWAP2 SWAP1 PUSH2 0x2025 JUMP JUMPDEST PUSH1 0x0 DUP4 DUP2 MSTORE PUSH1 0xCA PUSH1 0x20 MSTORE PUSH1 0x40 SWAP1 KECCAK256 SLOAD SWAP1 SWAP2 POP DUP1 DUP3 EQ PUSH2 0x18E2 JUMPI PUSH1 0x1 PUSH1 0x1 PUSH1 0xA0 SHL SUB DUP5 AND PUSH1 0x0 SWAP1 DUP2 MSTORE PUSH1 0xC9 PUSH1 0x20 SWAP1 DUP2 MSTORE PUSH1 0x40 DUP1 DUP4 KECCAK256 DUP6 DUP5 MSTORE DUP3 MSTORE DUP1 DUP4 KECCAK256 SLOAD DUP5 DUP5 MSTORE DUP2 DUP5 KECCAK256 DUP2 SWAP1 SSTORE DUP4 MSTORE PUSH1 0xCA SWAP1 SWAP2 MSTORE SWAP1 KECCAK256 DUP2 SWAP1 SSTORE JUMPDEST POP PUSH1 0x0 SWAP2 DUP3 MSTORE PUSH1 0xCA PUSH1 0x20 SWAP1 DUP2 MSTORE PUSH1 0x40 DUP1 DUP5 KECCAK256 DUP5 SWAP1 SSTORE PUSH1 0x1 PUSH1 0x1 PUSH1 0xA0 SHL SUB SWAP1 SWAP5 AND DUP4 MSTORE PUSH1 0xC9 DUP2 MSTORE DUP4 DUP4 KECCAK256 SWAP2 DUP4 MSTORE MSTORE SWAP1 DUP2 KECCAK256 SSTORE JUMP JUMPDEST PUSH1 0xCB SLOAD PUSH1 0x0 SWAP1 PUSH2 0x1927 SWAP1 PUSH1 0x1 SWAP1 PUSH2 0x2025 JUMP JUMPDEST PUSH1 0x0 DUP4 DUP2 MSTORE PUSH1 0xCC PUSH1 0x20 MSTORE PUSH1 0x40 DUP2 KECCAK256 SLOAD PUSH1 0xCB DUP1 SLOAD SWAP4 SWAP5 POP SWAP1 SWAP3 DUP5 SWAP1 DUP2 LT PUSH2 0x194F JUMPI PUSH2 0x194F PUSH2 0x1FAB JUMP JUMPDEST SWAP1 PUSH1 0x0 MSTORE PUSH1 0x20 PUSH1 0x0 KECCAK256 ADD SLOAD SWAP1 POP DUP1 PUSH1 0xCB DUP4 DUP2 SLOAD DUP2 LT PUSH2 0x1970 JUMPI PUSH2 0x1970 PUSH2 0x1FAB JUMP JUMPDEST PUSH1 0x0 SWAP2 DUP3 MSTORE PUSH1 0x20 DUP1 DUP4 KECCAK256 SWAP1 SWAP2 ADD SWAP3 SWAP1 SWAP3 SSTORE DUP3 DUP2 MSTORE PUSH1 0xCC SWAP1 SWAP2 MSTORE PUSH1 0x40 DUP1 DUP3 KECCAK256 DUP5 SWAP1 SSTORE DUP6 DUP3 MSTORE DUP2 KECCAK256 SSTORE PUSH1 0xCB DUP1 SLOAD DUP1 PUSH2 0x19A8 JUMPI PUSH2 0x19A8 PUSH2 0x21B0 JUMP JUMPDEST PUSH1 0x1 SWAP1 SUB DUP2 DUP2 SWAP1 PUSH1 0x0 MSTORE PUSH1 0x20 PUSH1 0x0 KECCAK256 ADD PUSH1 0x0 SWAP1 SSTORE SWAP1 SSTORE POP POP POP POP JUMP JUMPDEST PUSH1 0x0 PUSH2 0x19CF DUP4 PUSH2 0x9BE JUMP JUMPDEST PUSH1 0x1 PUSH1 0x1 PUSH1 0xA0 SHL SUB SWAP1 SWAP4 AND PUSH1 0x0 SWAP1 DUP2 MSTORE PUSH1 0xC9 PUSH1 0x20 SWAP1 DUP2 MSTORE PUSH1 0x40 DUP1 DUP4 KECCAK256 DUP7 DUP5 MSTORE DUP3 MSTORE DUP1 DUP4 KECCAK256 DUP6 SWAP1 SSTORE SWAP4 DUP3 MSTORE PUSH1 0xCA SWAP1 MSTORE SWAP2 SWAP1 SWAP2 KECCAK256 SWAP2 SWAP1 SWAP2 SSTORE POP JUMP JUMPDEST DUP3 DUP1 SLOAD PUSH2 0x1A14 SWAP1 PUSH2 0x1EC0 JUMP JUMPDEST SWAP1 PUSH1 0x0 MSTORE PUSH1 0x20 PUSH1 0x0 KECCAK256 SWAP1 PUSH1 0x1F ADD PUSH1 0x20 SWAP1 DIV DUP2 ADD SWAP3 DUP3 PUSH2 0x1A36 JUMPI PUSH1 0x0 DUP6 SSTORE PUSH2 0x1A7C JUMP JUMPDEST DUP3 PUSH1 0x1F LT PUSH2 0x1A4F JUMPI DUP1 MLOAD PUSH1 0xFF NOT AND DUP4 DUP1 ADD OR DUP6 SSTORE PUSH2 0x1A7C JUMP JUMPDEST DUP3 DUP1 ADD PUSH1 0x1 ADD DUP6 SSTORE DUP3 ISZERO PUSH2 0x1A7C JUMPI SWAP2 DUP3 ADD JUMPDEST DUP3 DUP2 GT ISZERO PUSH2 0x1A7C JUMPI DUP3 MLOAD DUP3 SSTORE SWAP2 PUSH1 0x20 ADD SWAP2 SWAP1 PUSH1 0x1 ADD SWAP1 PUSH2 0x1A61 JUMP JUMPDEST POP PUSH2 0x1A88 SWAP3 SWAP2 POP PUSH2 0x1A8C JUMP JUMPDEST POP SWAP1 JUMP JUMPDEST JUMPDEST DUP1 DUP3 GT ISZERO PUSH2 0x1A88 JUMPI PUSH1 0x0 DUP2 SSTORE PUSH1 0x1 ADD PUSH2 0x1A8D JUMP JUMPDEST PUSH1 0x1 PUSH1 0x1 PUSH1 0xE0 SHL SUB NOT DUP2 AND DUP2 EQ PUSH2 0xC78 JUMPI PUSH1 0x0 DUP1 REVERT JUMPDEST PUSH1 0x0 PUSH1 0x20 DUP3 DUP5 SUB SLT ISZERO PUSH2 0x1AC9 JUMPI PUSH1 0x0 DUP1 REVERT JUMPDEST DUP2 CALLDATALOAD PUSH2 0xBA5 DUP2 PUSH2 0x1AA1 JUMP JUMPDEST PUSH1 0x0 JUMPDEST DUP4 DUP2 LT ISZERO PUSH2 0x1AEF JUMPI DUP2 DUP2 ADD MLOAD DUP4 DUP3 ADD MSTORE PUSH1 0x20 ADD PUSH2 0x1AD7 JUMP JUMPDEST DUP4 DUP2 GT ISZERO PUSH2 0xACB JUMPI POP POP PUSH1 0x0 SWAP2 ADD MSTORE JUMP JUMPDEST PUSH1 0x0 DUP2 MLOAD DUP1 DUP5 MSTORE PUSH2 0x1B18 DUP2 PUSH1 0x20 DUP7 ADD PUSH1 0x20 DUP7 ADD PUSH2 0x1AD4 JUMP JUMPDEST PUSH1 0x1F ADD PUSH1 0x1F NOT AND SWAP3 SWAP1 SWAP3 ADD PUSH1 0x20 ADD SWAP3 SWAP2 POP POP JUMP JUMPDEST PUSH1 0x20 DUP2 MSTORE PUSH1 0x0 PUSH2 0xBA5 PUSH1 0x20 DUP4 ADD DUP5 PUSH2 0x1B00 JUMP JUMPDEST PUSH1 0x0 PUSH1 0x20 DUP3 DUP5 SUB SLT ISZERO PUSH2 0x1B51 JUMPI PUSH1 0x0 DUP1 REVERT JUMPDEST POP CALLDATALOAD SWAP2 SWAP1 POP JUMP JUMPDEST PUSH1 0x1 PUSH1 0x1 PUSH1 0xA0 SHL SUB DUP2 AND DUP2 EQ PUSH2 0xC78 JUMPI PUSH1 0x0 DUP1 REVERT JUMPDEST PUSH1 0x0 DUP1 PUSH1 0x40 DUP4 DUP6 SUB SLT ISZERO PUSH2 0x1B80 JUMPI PUSH1 0x0 DUP1 REVERT JUMPDEST DUP3 CALLDATALOAD PUSH2 0x1B8B DUP2 PUSH2 0x1B58 JUMP JUMPDEST SWAP5 PUSH1 0x20 SWAP4 SWAP1 SWAP4 ADD CALLDATALOAD SWAP4 POP POP POP JUMP JUMPDEST PUSH1 0x0 DUP1 PUSH1 0x0 PUSH1 0x60 DUP5 DUP7 SUB SLT ISZERO PUSH2 0x1BAE JUMPI PUSH1 0x0 DUP1 REVERT JUMPDEST DUP4 CALLDATALOAD PUSH2 0x1BB9 DUP2 PUSH2 0x1B58 JUMP JUMPDEST SWAP3 POP PUSH1 0x20 DUP5 ADD CALLDATALOAD PUSH2 0x1BC9 DUP2 PUSH2 0x1B58 JUMP JUMPDEST SWAP3 SWAP6 SWAP3 SWAP5 POP POP POP PUSH1 0x40 SWAP2 SWAP1 SWAP2 ADD CALLDATALOAD SWAP1 JUMP JUMPDEST PUSH1 0x0 DUP1 PUSH1 0x40 DUP4 DUP6 SUB SLT ISZERO PUSH2 0x1BED JUMPI PUSH1 0x0 DUP1 REVERT JUMPDEST POP POP DUP1 CALLDATALOAD SWAP3 PUSH1 0x20 SWAP1 SWAP2 ADD CALLDATALOAD SWAP2 POP JUMP JUMPDEST PUSH4 0x4E487B71 PUSH1 0xE0 SHL PUSH1 0x0 MSTORE PUSH1 0x41 PUSH1 0x4 MSTORE PUSH1 0x24 PUSH1 0x0 REVERT JUMPDEST PUSH1 0x0 PUSH8 0xFFFFFFFFFFFFFFFF DUP1 DUP5 GT ISZERO PUSH2 0x1C2D JUMPI PUSH2 0x1C2D PUSH2 0x1BFC JUMP JUMPDEST PUSH1 0x40 MLOAD PUSH1 0x1F DUP6 ADD PUSH1 0x1F NOT SWAP1 DUP2 AND PUSH1 0x3F ADD AND DUP2 ADD SWAP1 DUP3 DUP3 GT DUP2 DUP4 LT OR ISZERO PUSH2 0x1C55 JUMPI PUSH2 0x1C55 PUSH2 0x1BFC JUMP JUMPDEST DUP2 PUSH1 0x40 MSTORE DUP1 SWAP4 POP DUP6 DUP2 MSTORE DUP7 DUP7 DUP7 ADD GT ISZERO PUSH2 0x1C6E JUMPI PUSH1 0x0 DUP1 REVERT JUMPDEST DUP6 DUP6 PUSH1 0x20 DUP4 ADD CALLDATACOPY PUSH1 0x0 PUSH1 0x20 DUP8 DUP4 ADD ADD MSTORE POP POP POP SWAP4 SWAP3 POP POP POP JUMP JUMPDEST PUSH1 0x0 DUP3 PUSH1 0x1F DUP4 ADD SLT PUSH2 0x1C99 JUMPI PUSH1 0x0 DUP1 REVERT JUMPDEST PUSH2 0xBA5 DUP4 DUP4 CALLDATALOAD PUSH1 0x20 DUP6 ADD PUSH2 0x1C12 JUMP JUMPDEST PUSH1 0x0 DUP1 PUSH1 0x0 DUP1 PUSH1 0x80 DUP6 DUP8 SUB SLT ISZERO PUSH2 0x1CBE JUMPI PUSH1 0x0 DUP1 REVERT JUMPDEST DUP5 CALLDATALOAD PUSH8 0xFFFFFFFFFFFFFFFF DUP1 DUP3 GT ISZERO PUSH2 0x1CD6 JUMPI PUSH1 0x0 DUP1 REVERT JUMPDEST PUSH2 0x1CE2 DUP9 DUP4 DUP10 ADD PUSH2 0x1C88 JUMP JUMPDEST SWAP6 POP PUSH1 0x20 DUP8 ADD CALLDATALOAD SWAP2 POP DUP1 DUP3 GT ISZERO PUSH2 0x1CF8 JUMPI PUSH1 0x0 DUP1 REVERT JUMPDEST PUSH2 0x1D04 DUP9 DUP4 DUP10 ADD PUSH2 0x1C88 JUMP JUMPDEST SWAP5 POP PUSH1 0x40 DUP8 ADD CALLDATALOAD SWAP2 POP DUP1 DUP3 GT ISZERO PUSH2 0x1D1A JUMPI PUSH1 0x0 DUP1 REVERT JUMPDEST POP PUSH2 0x1D27 DUP8 DUP3 DUP9 ADD PUSH2 0x1C88 JUMP JUMPDEST SWAP3 POP POP PUSH1 0x60 DUP6 ADD CALLDATALOAD PUSH2 0x1D38 DUP2 PUSH2 0x1B58 JUMP JUMPDEST SWAP4 SWAP7 SWAP3 SWAP6 POP SWAP1 SWAP4 POP POP JUMP JUMPDEST PUSH1 0x0 PUSH1 0x20 DUP3 DUP5 SUB SLT ISZERO PUSH2 0x1D55 JUMPI PUSH1 0x0 DUP1 REVERT JUMPDEST DUP2 CALLDATALOAD PUSH2 0xBA5 DUP2 PUSH2 0x1B58 JUMP JUMPDEST PUSH1 0x0 DUP1 PUSH1 0x40 DUP4 DUP6 SUB SLT ISZERO PUSH2 0x1D73 JUMPI PUSH1 0x0 DUP1 REVERT JUMPDEST DUP3 CALLDATALOAD PUSH2 0x1D7E DUP2 PUSH2 0x1B58 JUMP JUMPDEST SWAP2 POP PUSH1 0x20 DUP4 ADD CALLDATALOAD DUP1 ISZERO ISZERO DUP2 EQ PUSH2 0x1D93 JUMPI PUSH1 0x0 DUP1 REVERT JUMPDEST DUP1 SWAP2 POP POP SWAP3 POP SWAP3 SWAP1 POP JUMP JUMPDEST PUSH1 0x0 DUP1 PUSH1 0x0 DUP1 PUSH1 0x80 DUP6 DUP8 SUB SLT ISZERO PUSH2 0x1DB4 JUMPI PUSH1 0x0 DUP1 REVERT JUMPDEST DUP5 CALLDATALOAD PUSH2 0x1DBF DUP2 PUSH2 0x1B58 JUMP JUMPDEST SWAP4 POP PUSH1 0x20 DUP6 ADD CALLDATALOAD PUSH2 0x1DCF DUP2 PUSH2 0x1B58 JUMP JUMPDEST SWAP3 POP PUSH1 0x40 DUP6 ADD CALLDATALOAD SWAP2 POP PUSH1 0x60 DUP6 ADD CALLDATALOAD PUSH8 0xFFFFFFFFFFFFFFFF DUP2 GT ISZERO PUSH2 0x1DF2 JUMPI PUSH1 0x0 DUP1 REVERT JUMPDEST DUP6 ADD PUSH1 0x1F DUP2 ADD DUP8 SGT PUSH2 0x1E03 JUMPI PUSH1 0x0 DUP1 REVERT JUMPDEST PUSH2 0x1E12 DUP8 DUP3 CALLDATALOAD PUSH1 0x20 DUP5 ADD PUSH2 0x1C12 JUMP JUMPDEST SWAP2 POP POP SWAP3 SWAP6 SWAP2 SWAP5 POP SWAP3 POP JUMP JUMPDEST PUSH1 0x0 DUP1 PUSH1 0x0 DUP1 DUP5 DUP7 SUB PUSH1 0xA0 DUP2 SLT ISZERO PUSH2 0x1E35 JUMPI PUSH1 0x0 DUP1 REVERT JUMPDEST DUP6 CALLDATALOAD SWAP5 POP PUSH1 0x20 DUP7 ADD CALLDATALOAD PUSH2 0x1E47 DUP2 PUSH2 0x1B58 JUMP JUMPDEST SWAP4 POP PUSH1 0x40 DUP7 ADD CALLDATALOAD PUSH8 0xFFFFFFFFFFFFFFFF DUP2 GT ISZERO PUSH2 0x1E63 JUMPI PUSH1 0x0 DUP1 REVERT JUMPDEST PUSH2 0x1E6F DUP9 DUP3 DUP10 ADD PUSH2 0x1C88 JUMP JUMPDEST SWAP4 POP POP PUSH1 0x40 PUSH1 0x5F NOT DUP3 ADD SLT ISZERO PUSH2 0x1E84 JUMPI PUSH1 0x0 DUP1 REVERT JUMPDEST POP SWAP3 SWAP6 SWAP2 SWAP5 POP SWAP3 PUSH1 0x60 ADD SWAP2 POP JUMP JUMPDEST PUSH1 0x0 DUP1 PUSH1 0x40 DUP4 DUP6 SUB SLT ISZERO PUSH2 0x1EA5 JUMPI PUSH1 0x0 DUP1 REVERT JUMPDEST DUP3 CALLDATALOAD PUSH2 0x1EB0 DUP2 PUSH2 0x1B58 JUMP JUMPDEST SWAP2 POP PUSH1 0x20 DUP4 ADD CALLDATALOAD PUSH2 0x1D93 DUP2 PUSH2 0x1B58 JUMP JUMPDEST PUSH1 0x1 DUP2 DUP2 SHR SWAP1 DUP3 AND DUP1 PUSH2 0x1ED4 JUMPI PUSH1 0x7F DUP3 AND SWAP2 POP JUMPDEST PUSH1 0x20 DUP3 LT DUP2 EQ ISZERO PUSH2 0x1EF5 JUMPI PUSH4 0x4E487B71 PUSH1 0xE0 SHL PUSH1 0x0 MSTORE PUSH1 0x22 PUSH1 0x4 MSTORE PUSH1 0x24 PUSH1 0x0 REVERT JUMPDEST POP SWAP2 SWAP1 POP JUMP JUMPDEST PUSH1 0x20 DUP1 DUP3 MSTORE PUSH1 0x31 SWAP1 DUP3 ADD MSTORE PUSH32 0x4552433732313A207472616E736665722063616C6C6572206973206E6F74206F PUSH1 0x40 DUP3 ADD MSTORE PUSH17 0x1DDB995C881B9BDC88185C1C1C9BDD9959 PUSH1 0x7A SHL PUSH1 0x60 DUP3 ADD MSTORE PUSH1 0x80 ADD SWAP1 JUMP JUMPDEST PUSH4 0x4E487B71 PUSH1 0xE0 SHL PUSH1 0x0 MSTORE PUSH1 0x11 PUSH1 0x4 MSTORE PUSH1 0x24 PUSH1 0x0 REVERT JUMPDEST PUSH1 0x0 DUP2 PUSH1 0x0 NOT DIV DUP4 GT DUP3 ISZERO ISZERO AND ISZERO PUSH2 0x1F7C JUMPI PUSH2 0x1F7C PUSH2 0x1F4C JUMP JUMPDEST POP MUL SWAP1 JUMP JUMPDEST PUSH4 0x4E487B71 PUSH1 0xE0 SHL PUSH1 0x0 MSTORE PUSH1 0x12 PUSH1 0x4 MSTORE PUSH1 0x24 PUSH1 0x0 REVERT JUMPDEST PUSH1 0x0 DUP3 PUSH2 0x1FA6 JUMPI PUSH2 0x1FA6 PUSH2 0x1F81 JUMP JUMPDEST POP DIV SWAP1 JUMP JUMPDEST PUSH4 0x4E487B71 PUSH1 0xE0 SHL PUSH1 0x0 MSTORE PUSH1 0x32 PUSH1 0x4 MSTORE PUSH1 0x24 PUSH1 0x0 REVERT JUMPDEST PUSH1 0x20 DUP1 DUP3 MSTORE DUP2 DUP2 ADD MSTORE PUSH32 0x4F776E61626C653A2063616C6C6572206973206E6F7420746865206F776E6572 PUSH1 0x40 DUP3 ADD MSTORE PUSH1 0x60 ADD SWAP1 JUMP JUMPDEST PUSH1 0x0 DUP4 MLOAD PUSH2 0x2008 DUP2 DUP5 PUSH1 0x20 DUP9 ADD PUSH2 0x1AD4 JUMP JUMPDEST DUP4 MLOAD SWAP1 DUP4 ADD SWAP1 PUSH2 0x201C DUP2 DUP4 PUSH1 0x20 DUP9 ADD PUSH2 0x1AD4 JUMP JUMPDEST ADD SWAP5 SWAP4 POP POP POP POP JUMP JUMPDEST PUSH1 0x0 DUP3 DUP3 LT ISZERO PUSH2 0x2037 JUMPI PUSH2 0x2037 PUSH2 0x1F4C JUMP JUMPDEST POP SUB SWAP1 JUMP JUMPDEST PUSH1 0x0 DUP3 NOT DUP3 GT ISZERO PUSH2 0x204F JUMPI PUSH2 0x204F PUSH2 0x1F4C JUMP JUMPDEST POP ADD SWAP1 JUMP JUMPDEST PUSH1 0x20 DUP1 DUP3 MSTORE PUSH1 0x2B SWAP1 DUP3 ADD MSTORE PUSH32 0x496E697469616C697A61626C653A20636F6E7472616374206973206E6F742069 PUSH1 0x40 DUP3 ADD MSTORE PUSH11 0x6E697469616C697A696E67 PUSH1 0xA8 SHL PUSH1 0x60 DUP3 ADD MSTORE PUSH1 0x80 ADD SWAP1 JUMP JUMPDEST PUSH1 0x20 DUP1 DUP3 MSTORE PUSH1 0x32 SWAP1 DUP3 ADD MSTORE PUSH32 0x4552433732313A207472616E7366657220746F206E6F6E204552433732315265 PUSH1 0x40 DUP3 ADD MSTORE PUSH18 0x31B2B4BB32B91034B6B83632B6B2B73A32B9 PUSH1 0x71 SHL PUSH1 0x60 DUP3 ADD MSTORE PUSH1 0x80 ADD SWAP1 JUMP JUMPDEST PUSH1 0x0 PUSH1 0x0 NOT DUP3 EQ ISZERO PUSH2 0x2105 JUMPI PUSH2 0x2105 PUSH2 0x1F4C JUMP JUMPDEST POP PUSH1 0x1 ADD SWAP1 JUMP JUMPDEST PUSH1 0x0 DUP3 PUSH2 0x211B JUMPI PUSH2 0x211B PUSH2 0x1F81 JUMP JUMPDEST POP MOD SWAP1 JUMP JUMPDEST DUP2 CALLDATALOAD PUSH2 0x212B DUP2 PUSH2 0x1B58 JUMP JUMPDEST DUP2 SLOAD PUSH1 0x1 PUSH1 0x1 PUSH1 0xA0 SHL SUB NOT AND PUSH1 0x1 PUSH1 0x1 PUSH1 0xA0 SHL SUB SWAP2 SWAP1 SWAP2 AND OR DUP2 SSTORE PUSH1 0x20 SWAP2 SWAP1 SWAP2 ADD CALLDATALOAD PUSH1 0x1 SWAP2 SWAP1 SWAP2 ADD SSTORE JUMP JUMPDEST PUSH1 0x1 PUSH1 0x1 PUSH1 0xA0 SHL SUB DUP6 DUP2 AND DUP3 MSTORE DUP5 AND PUSH1 0x20 DUP3 ADD MSTORE PUSH1 0x40 DUP2 ADD DUP4 SWAP1 MSTORE PUSH1 0x80 PUSH1 0x60 DUP3 ADD DUP2 SWAP1 MSTORE PUSH1 0x0 SWAP1 PUSH2 0x2189 SWAP1 DUP4 ADD DUP5 PUSH2 0x1B00 JUMP JUMPDEST SWAP7 SWAP6 POP POP POP POP POP POP JUMP JUMPDEST PUSH1 0x0 PUSH1 0x20 DUP3 DUP5 SUB SLT ISZERO PUSH2 0x21A5 JUMPI PUSH1 0x0 DUP1 REVERT JUMPDEST DUP2 MLOAD PUSH2 0xBA5 DUP2 PUSH2 0x1AA1 JUMP JUMPDEST PUSH4 0x4E487B71 PUSH1 0xE0 SHL PUSH1 0x0 MSTORE PUSH1 0x31 PUSH1 0x4 MSTORE PUSH1 0x24 PUSH1 0x0 REVERT INVALID LOG2 PUSH5 0x6970667358 0x22 SLT KECCAK256 PUSH23 0x64DE8469E97752BD2928C05DBC58A8C7EBA82A031F38B 0xC5 0xFC SUB DUP6 PUSH32 0x4AAEDC64736F6C634300080C0033608060405234801561001057600080FD5B50 PUSH1 0x6A DUP1 SLOAD PUSH1 0xFF PUSH1 0xA0 SHL NOT CALLER AND PUSH1 0x1 PUSH1 0x1 PUSH1 0xA8 SHL SUB NOT SWAP1 SWAP2 AND OR PUSH1 0x1 PUSH1 0xA0 SHL OR SWAP1 SSTORE PUSH2 0xBFD DUP1 PUSH2 0x41 PUSH1 0x0 CODECOPY PUSH1 0x0 RETURN INVALID PUSH1 0x80 PUSH1 0x40 MSTORE PUSH1 0x4 CALLDATASIZE LT PUSH2 0x10D JUMPI PUSH1 0x0 CALLDATALOAD PUSH1 0xE0 SHR DUP1 PUSH4 0x715018A6 GT PUSH2 0x95 JUMPI DUP1 PUSH4 0xAB101E72 GT PUSH2 0x64 JUMPI DUP1 PUSH4 0xAB101E72 EQ PUSH2 0x36C JUMPI DUP1 PUSH4 0xB0CF428A EQ PUSH2 0x3A2 JUMPI DUP1 PUSH4 0xD2F658C0 EQ PUSH2 0x3C2 JUMPI DUP1 PUSH4 0xF2FDE38B EQ PUSH2 0x3EF JUMPI DUP1 PUSH4 0xF67CF0EB EQ PUSH2 0x40F JUMPI PUSH2 0x114 JUMP JUMPDEST DUP1 PUSH4 0x715018A6 EQ PUSH2 0x2E8 JUMPI DUP1 PUSH4 0x772908BB EQ PUSH2 0x2FD JUMPI DUP1 PUSH4 0x8CF0E21E EQ PUSH2 0x31D JUMPI DUP1 PUSH4 0x8DA5CB5B EQ PUSH2 0x34E JUMPI PUSH2 0x114 JUMP JUMPDEST DUP1 PUSH4 0x3C6AC216 GT PUSH2 0xDC JUMPI DUP1 PUSH4 0x3C6AC216 EQ PUSH2 0x1FC JUMPI DUP1 PUSH4 0x485CC955 EQ PUSH2 0x25B JUMPI DUP1 PUSH4 0x574490CD EQ PUSH2 0x27B JUMPI DUP1 PUSH4 0x5C1CB691 EQ PUSH2 0x2B3 JUMPI DUP1 PUSH4 0x67FC9138 EQ PUSH2 0x2D3 JUMPI PUSH2 0x114 JUMP JUMPDEST DUP1 PUSH4 0x12A63C40 EQ PUSH2 0x14E JUMPI DUP1 PUSH4 0x28016F9A EQ PUSH2 0x18A JUMPI DUP1 PUSH4 0x2B020C72 EQ PUSH2 0x1A1 JUMPI DUP1 PUSH4 0x3659CFE6 EQ PUSH2 0x1DC JUMPI PUSH2 0x114 JUMP JUMPDEST CALLDATASIZE PUSH2 0x114 JUMPI STOP JUMPDEST PUSH1 0x67 SLOAD PUSH1 0x1 PUSH1 0x1 PUSH1 0xA0 SHL SUB AND DUP1 PUSH2 0x12A JUMPI PUSH1 0x0 DUP1 REVERT JUMPDEST CALLDATASIZE PUSH1 0x0 DUP1 CALLDATACOPY PUSH1 0x0 DUP1 CALLDATASIZE PUSH1 0x0 DUP5 GAS DELEGATECALL RETURNDATASIZE PUSH1 0x0 DUP1 RETURNDATACOPY DUP1 DUP1 ISZERO PUSH2 0x149 JUMPI RETURNDATASIZE PUSH1 0x0 RETURN JUMPDEST RETURNDATASIZE PUSH1 0x0 REVERT JUMPDEST CALLVALUE DUP1 ISZERO PUSH2 0x15A JUMPI PUSH1 0x0 DUP1 REVERT JUMPDEST POP PUSH2 0x16E PUSH2 0x169 CALLDATASIZE PUSH1 0x4 PUSH2 0xA24 JUMP JUMPDEST PUSH2 0x445 JUMP JUMPDEST PUSH1 0x40 MLOAD PUSH2 0x181 SWAP8 SWAP7 SWAP6 SWAP5 SWAP4 SWAP3 SWAP2 SWAP1 PUSH2 0xA8A JUMP JUMPDEST PUSH1 0x40 MLOAD DUP1 SWAP2 SUB SWAP1 RETURN JUMPDEST CALLVALUE DUP1 ISZERO PUSH2 0x196 JUMPI PUSH1 0x0 DUP1 REVERT JUMPDEST POP PUSH2 0x19F PUSH2 0x5A0 JUMP JUMPDEST STOP JUMPDEST CALLVALUE DUP1 ISZERO PUSH2 0x1AD JUMPI PUSH1 0x0 DUP1 REVERT JUMPDEST POP PUSH2 0x1CE PUSH2 0x1BC CALLDATASIZE PUSH1 0x4 PUSH2 0xA24 JUMP JUMPDEST PUSH1 0x6B PUSH1 0x20 MSTORE PUSH1 0x0 SWAP1 DUP2 MSTORE PUSH1 0x40 SWAP1 KECCAK256 SLOAD DUP2 JUMP JUMPDEST PUSH1 0x40 MLOAD SWAP1 DUP2 MSTORE PUSH1 0x20 ADD PUSH2 0x181 JUMP JUMPDEST CALLVALUE DUP1 ISZERO PUSH2 0x1E8 JUMPI PUSH1 0x0 DUP1 REVERT JUMPDEST POP PUSH2 0x19F PUSH2 0x1F7 CALLDATASIZE PUSH1 0x4 PUSH2 0xB02 JUMP JUMPDEST PUSH2 0x5E8 JUMP JUMPDEST CALLVALUE DUP1 ISZERO PUSH2 0x208 JUMPI PUSH1 0x0 DUP1 REVERT JUMPDEST POP PUSH2 0x23C PUSH2 0x217 CALLDATASIZE PUSH1 0x4 PUSH2 0xA24 JUMP JUMPDEST PUSH1 0x66 PUSH1 0x20 MSTORE PUSH1 0x0 SWAP1 DUP2 MSTORE PUSH1 0x40 SWAP1 KECCAK256 DUP1 SLOAD PUSH1 0x1 SWAP1 SWAP2 ADD SLOAD PUSH1 0x1 PUSH1 0x1 PUSH1 0xA0 SHL SUB SWAP1 SWAP2 AND SWAP1 DUP3 JUMP JUMPDEST PUSH1 0x40 DUP1 MLOAD PUSH1 0x1 PUSH1 0x1 PUSH1 0xA0 SHL SUB SWAP1 SWAP4 AND DUP4 MSTORE PUSH1 0x20 DUP4 ADD SWAP2 SWAP1 SWAP2 MSTORE ADD PUSH2 0x181 JUMP JUMPDEST CALLVALUE DUP1 ISZERO PUSH2 0x267 JUMPI PUSH1 0x0 DUP1 REVERT JUMPDEST POP PUSH2 0x19F PUSH2 0x276 CALLDATASIZE PUSH1 0x4 PUSH2 0xB24 JUMP JUMPDEST PUSH2 0x727 JUMP JUMPDEST CALLVALUE DUP1 ISZERO PUSH2 0x287 JUMPI PUSH1 0x0 DUP1 REVERT JUMPDEST POP PUSH1 0x68 SLOAD PUSH2 0x29B SWAP1 PUSH1 0x1 PUSH1 0x1 PUSH1 0xA0 SHL SUB AND DUP2 JUMP JUMPDEST PUSH1 0x40 MLOAD PUSH1 0x1 PUSH1 0x1 PUSH1 0xA0 SHL SUB SWAP1 SWAP2 AND DUP2 MSTORE PUSH1 0x20 ADD PUSH2 0x181 JUMP JUMPDEST CALLVALUE DUP1 ISZERO PUSH2 0x2BF JUMPI PUSH1 0x0 DUP1 REVERT JUMPDEST POP PUSH1 0x69 SLOAD PUSH2 0x29B SWAP1 PUSH1 0x1 PUSH1 0x1 PUSH1 0xA0 SHL SUB AND DUP2 JUMP JUMPDEST CALLVALUE DUP1 ISZERO PUSH2 0x2DF JUMPI PUSH1 0x0 DUP1 REVERT JUMPDEST POP PUSH2 0x19F PUSH2 0x881 JUMP JUMPDEST CALLVALUE DUP1 ISZERO PUSH2 0x2F4 JUMPI PUSH1 0x0 DUP1 REVERT JUMPDEST POP PUSH2 0x19F PUSH2 0x8BA JUMP JUMPDEST CALLVALUE DUP1 ISZERO PUSH2 0x309 JUMPI PUSH1 0x0 DUP1 REVERT JUMPDEST POP PUSH1 0x67 SLOAD PUSH2 0x29B SWAP1 PUSH1 0x1 PUSH1 0x1 PUSH1 0xA0 SHL SUB AND DUP2 JUMP JUMPDEST CALLVALUE DUP1 ISZERO PUSH2 0x329 JUMPI PUSH1 0x0 DUP1 REVERT JUMPDEST POP PUSH1 0x6A SLOAD PUSH2 0x33E SWAP1 PUSH1 0x1 PUSH1 0xA0 SHL SWAP1 DIV PUSH1 0xFF AND DUP2 JUMP JUMPDEST PUSH1 0x40 MLOAD SWAP1 ISZERO ISZERO DUP2 MSTORE PUSH1 0x20 ADD PUSH2 0x181 JUMP JUMPDEST CALLVALUE DUP1 ISZERO PUSH2 0x35A JUMPI PUSH1 0x0 DUP1 REVERT JUMPDEST POP PUSH1 0x33 SLOAD PUSH1 0x1 PUSH1 0x1 PUSH1 0xA0 SHL SUB AND PUSH2 0x29B JUMP JUMPDEST CALLVALUE DUP1 ISZERO PUSH2 0x378 JUMPI PUSH1 0x0 DUP1 REVERT JUMPDEST POP PUSH2 0x29B PUSH2 0x387 CALLDATASIZE PUSH1 0x4 PUSH2 0xA24 JUMP JUMPDEST PUSH1 0x6D PUSH1 0x20 MSTORE PUSH1 0x0 SWAP1 DUP2 MSTORE PUSH1 0x40 SWAP1 KECCAK256 SLOAD PUSH1 0x1 PUSH1 0x1 PUSH1 0xA0 SHL SUB AND DUP2 JUMP JUMPDEST CALLVALUE DUP1 ISZERO PUSH2 0x3AE JUMPI PUSH1 0x0 DUP1 REVERT JUMPDEST POP PUSH1 0x6A SLOAD PUSH2 0x29B SWAP1 PUSH1 0x1 PUSH1 0x1 PUSH1 0xA0 SHL SUB AND DUP2 JUMP JUMPDEST CALLVALUE DUP1 ISZERO PUSH2 0x3CE JUMPI PUSH1 0x0 DUP1 REVERT JUMPDEST POP PUSH2 0x1CE PUSH2 0x3DD CALLDATASIZE PUSH1 0x4 PUSH2 0xA24 JUMP JUMPDEST PUSH1 0x65 PUSH1 0x20 MSTORE PUSH1 0x0 SWAP1 DUP2 MSTORE PUSH1 0x40 SWAP1 KECCAK256 SLOAD DUP2 JUMP JUMPDEST CALLVALUE DUP1 ISZERO PUSH2 0x3FB JUMPI PUSH1 0x0 DUP1 REVERT JUMPDEST POP PUSH2 0x19F PUSH2 0x40A CALLDATASIZE PUSH1 0x4 PUSH2 0xB02 JUMP JUMPDEST PUSH2 0x8F0 JUMP JUMPDEST CALLVALUE DUP1 ISZERO PUSH2 0x41B JUMPI PUSH1 0x0 DUP1 REVERT JUMPDEST POP PUSH2 0x29B PUSH2 0x42A CALLDATASIZE PUSH1 0x4 PUSH2 0xA24 JUMP JUMPDEST PUSH1 0x6C PUSH1 0x20 MSTORE PUSH1 0x0 SWAP1 DUP2 MSTORE PUSH1 0x40 SWAP1 KECCAK256 SLOAD PUSH1 0x1 PUSH1 0x1 PUSH1 0xA0 SHL SUB AND DUP2 JUMP JUMPDEST PUSH1 0x6E PUSH1 0x20 MSTORE PUSH1 0x0 SWAP1 DUP2 MSTORE PUSH1 0x40 SWAP1 KECCAK256 DUP1 SLOAD PUSH1 0x1 DUP3 ADD SLOAD PUSH1 0x2 DUP4 ADD DUP1 SLOAD PUSH1 0xFF SWAP1 SWAP4 AND SWAP4 SWAP2 SWAP3 PUSH2 0x471 SWAP1 PUSH2 0xB57 JUMP JUMPDEST DUP1 PUSH1 0x1F ADD PUSH1 0x20 DUP1 SWAP2 DIV MUL PUSH1 0x20 ADD PUSH1 0x40 MLOAD SWAP1 DUP2 ADD PUSH1 0x40 MSTORE DUP1 SWAP3 SWAP2 SWAP1 DUP2 DUP2 MSTORE PUSH1 0x20 ADD DUP3 DUP1 SLOAD PUSH2 0x49D SWAP1 PUSH2 0xB57 JUMP JUMPDEST DUP1 ISZERO PUSH2 0x4EA JUMPI DUP1 PUSH1 0x1F LT PUSH2 0x4BF JUMPI PUSH2 0x100 DUP1 DUP4 SLOAD DIV MUL DUP4 MSTORE SWAP2 PUSH1 0x20 ADD SWAP2 PUSH2 0x4EA JUMP JUMPDEST DUP3 ADD SWAP2 SWAP1 PUSH1 0x0 MSTORE PUSH1 0x20 PUSH1 0x0 KECCAK256 SWAP1 JUMPDEST DUP2 SLOAD DUP2 MSTORE SWAP1 PUSH1 0x1 ADD SWAP1 PUSH1 0x20 ADD DUP1 DUP4 GT PUSH2 0x4CD JUMPI DUP3 SWAP1 SUB PUSH1 0x1F AND DUP3 ADD SWAP2 JUMPDEST POP POP POP POP POP SWAP1 DUP1 PUSH1 0x3 ADD DUP1 SLOAD PUSH2 0x4FF SWAP1 PUSH2 0xB57 JUMP JUMPDEST DUP1 PUSH1 0x1F ADD PUSH1 0x20 DUP1 SWAP2 DIV MUL PUSH1 0x20 ADD PUSH1 0x40 MLOAD SWAP1 DUP2 ADD PUSH1 0x40 MSTORE DUP1 SWAP3 SWAP2 SWAP1 DUP2 DUP2 MSTORE PUSH1 0x20 ADD DUP3 DUP1 SLOAD PUSH2 0x52B SWAP1 PUSH2 0xB57 JUMP JUMPDEST DUP1 ISZERO PUSH2 0x578 JUMPI DUP1 PUSH1 0x1F LT PUSH2 0x54D JUMPI PUSH2 0x100 DUP1 DUP4 SLOAD DIV MUL DUP4 MSTORE SWAP2 PUSH1 0x20 ADD SWAP2 PUSH2 0x578 JUMP JUMPDEST DUP3 ADD SWAP2 SWAP1 PUSH1 0x0 MSTORE PUSH1 0x20 PUSH1 0x0 KECCAK256 SWAP1 JUMPDEST DUP2 SLOAD DUP2 MSTORE SWAP1 PUSH1 0x1 ADD SWAP1 PUSH1 0x20 ADD DUP1 DUP4 GT PUSH2 0x55B JUMPI DUP3 SWAP1 SUB PUSH1 0x1F AND DUP3 ADD SWAP2 JUMPDEST POP POP POP POP PUSH1 0x4 DUP4 ADD SLOAD PUSH1 0x5 DUP5 ADD SLOAD PUSH1 0x6 SWAP1 SWAP5 ADD SLOAD SWAP3 SWAP4 PUSH1 0x1 PUSH1 0x1 PUSH1 0xA0 SHL SUB SWAP1 SWAP2 AND SWAP3 SWAP1 SWAP2 POP DUP8 JUMP JUMPDEST PUSH1 0x33 SLOAD PUSH1 0x1 PUSH1 0x1 PUSH1 0xA0 SHL SUB AND CALLER EQ PUSH2 0x5D3 JUMPI PUSH1 0x40 MLOAD PUSH3 0x461BCD PUSH1 0xE5 SHL DUP2 MSTORE PUSH1 0x4 ADD PUSH2 0x5CA SWAP1 PUSH2 0xB92 JUMP JUMPDEST PUSH1 0x40 MLOAD DUP1 SWAP2 SUB SWAP1 REVERT JUMPDEST PUSH1 0x6A DUP1 SLOAD PUSH1 0xFF PUSH1 0xA0 SHL NOT AND PUSH1 0x1 PUSH1 0xA0 SHL OR SWAP1 SSTORE JUMP JUMPDEST PUSH1 0x6A SLOAD PUSH1 0x1 PUSH1 0x1 PUSH1 0xA0 SHL SUB AND CALLER EQ DUP1 PUSH2 0x60B JUMPI POP PUSH1 0x33 SLOAD PUSH1 0x1 PUSH1 0x1 PUSH1 0xA0 SHL SUB AND CALLER EQ JUMPDEST PUSH2 0x657 JUMPI PUSH1 0x40 MLOAD PUSH3 0x461BCD PUSH1 0xE5 SHL DUP2 MSTORE PUSH1 0x20 PUSH1 0x4 DUP3 ADD MSTORE PUSH1 0x1A PUSH1 0x24 DUP3 ADD MSTORE PUSH32 0x6D73672E73656E646572206973206E6F7420616E206F776E6572000000000000 PUSH1 0x44 DUP3 ADD MSTORE PUSH1 0x64 ADD PUSH2 0x5CA JUMP JUMPDEST PUSH1 0x6A SLOAD PUSH1 0x1 PUSH1 0xA0 SHL SWAP1 DIV PUSH1 0xFF AND PUSH2 0x6B0 JUMPI PUSH1 0x40 MLOAD PUSH3 0x461BCD PUSH1 0xE5 SHL DUP2 MSTORE PUSH1 0x20 PUSH1 0x4 DUP3 ADD MSTORE PUSH1 0x1A PUSH1 0x24 DUP3 ADD MSTORE PUSH32 0x55706772616465206973206E6F7420656E61626C656420796574000000000000 PUSH1 0x44 DUP3 ADD MSTORE PUSH1 0x64 ADD PUSH2 0x5CA JUMP JUMPDEST PUSH1 0x67 SLOAD PUSH1 0x1 PUSH1 0x1 PUSH1 0xA0 SHL SUB DUP3 DUP2 AND SWAP2 AND EQ ISZERO PUSH2 0x70E JUMPI PUSH1 0x40 MLOAD PUSH3 0x461BCD PUSH1 0xE5 SHL DUP2 MSTORE PUSH1 0x20 PUSH1 0x4 DUP3 ADD MSTORE PUSH1 0x1D PUSH1 0x24 DUP3 ADD MSTORE PUSH32 0x497320616C72656164792074686520696D706C656D656E746174696F6E000000 PUSH1 0x44 DUP3 ADD MSTORE PUSH1 0x64 ADD PUSH2 0x5CA JUMP JUMPDEST PUSH2 0x717 DUP2 PUSH2 0x98B JUMP JUMPDEST POP PUSH1 0x6A DUP1 SLOAD PUSH1 0xFF PUSH1 0xA0 SHL NOT AND SWAP1 SSTORE JUMP JUMPDEST PUSH1 0x0 SLOAD PUSH2 0x100 SWAP1 DIV PUSH1 0xFF AND PUSH2 0x742 JUMPI PUSH1 0x0 SLOAD PUSH1 0xFF AND ISZERO PUSH2 0x746 JUMP JUMPDEST ADDRESS EXTCODESIZE ISZERO JUMPDEST PUSH2 0x7A9 JUMPI PUSH1 0x40 MLOAD PUSH3 0x461BCD PUSH1 0xE5 SHL DUP2 MSTORE PUSH1 0x20 PUSH1 0x4 DUP3 ADD MSTORE PUSH1 0x2E PUSH1 0x24 DUP3 ADD MSTORE PUSH32 0x496E697469616C697A61626C653A20636F6E747261637420697320616C726561 PUSH1 0x44 DUP3 ADD MSTORE PUSH14 0x191E481A5B9A5D1A585B1A5E9959 PUSH1 0x92 SHL PUSH1 0x64 DUP3 ADD MSTORE PUSH1 0x84 ADD PUSH2 0x5CA JUMP JUMPDEST PUSH1 0x0 SLOAD PUSH2 0x100 SWAP1 DIV PUSH1 0xFF AND ISZERO DUP1 ISZERO PUSH2 0x7CB JUMPI PUSH1 0x0 DUP1 SLOAD PUSH2 0xFFFF NOT AND PUSH2 0x101 OR SWAP1 SSTORE JUMPDEST PUSH1 0x6A SLOAD PUSH1 0x1 PUSH1 0x1 PUSH1 0xA0 SHL SUB AND CALLER EQ DUP1 PUSH2 0x7EE JUMPI POP PUSH1 0x33 SLOAD PUSH1 0x1 PUSH1 0x1 PUSH1 0xA0 SHL SUB AND CALLER EQ JUMPDEST PUSH2 0x83A JUMPI PUSH1 0x40 MLOAD PUSH3 0x461BCD PUSH1 0xE5 SHL DUP2 MSTORE PUSH1 0x20 PUSH1 0x4 DUP3 ADD MSTORE PUSH1 0x1A PUSH1 0x24 DUP3 ADD MSTORE PUSH32 0x6D73672E73656E646572206973206E6F7420616E206F776E6572000000000000 PUSH1 0x44 DUP3 ADD MSTORE PUSH1 0x64 ADD PUSH2 0x5CA JUMP JUMPDEST PUSH1 0x68 DUP1 SLOAD PUSH1 0x1 PUSH1 0x1 PUSH1 0xA0 SHL SUB DUP1 DUP7 AND PUSH1 0x1 PUSH1 0x1 PUSH1 0xA0 SHL SUB NOT SWAP3 DUP4 AND OR SWAP1 SWAP3 SSTORE PUSH1 0x69 DUP1 SLOAD SWAP3 DUP6 AND SWAP3 SWAP1 SWAP2 AND SWAP2 SWAP1 SWAP2 OR SWAP1 SSTORE DUP1 ISZERO PUSH2 0x87C JUMPI PUSH1 0x0 DUP1 SLOAD PUSH2 0xFF00 NOT AND SWAP1 SSTORE JUMPDEST POP POP POP JUMP JUMPDEST PUSH1 0x33 SLOAD PUSH1 0x1 PUSH1 0x1 PUSH1 0xA0 SHL SUB AND CALLER EQ PUSH2 0x8AB JUMPI PUSH1 0x40 MLOAD PUSH3 0x461BCD PUSH1 0xE5 SHL DUP2 MSTORE PUSH1 0x4 ADD PUSH2 0x5CA SWAP1 PUSH2 0xB92 JUMP JUMPDEST PUSH1 0x6A DUP1 SLOAD PUSH1 0xFF PUSH1 0xA0 SHL NOT AND SWAP1 SSTORE JUMP JUMPDEST PUSH1 0x33 SLOAD PUSH1 0x1 PUSH1 0x1 PUSH1 0xA0 SHL SUB AND CALLER EQ PUSH2 0x8E4 JUMPI PUSH1 0x40 MLOAD PUSH3 0x461BCD PUSH1 0xE5 SHL DUP2 MSTORE PUSH1 0x4 ADD PUSH2 0x5CA SWAP1 PUSH2 0xB92 JUMP JUMPDEST PUSH2 0x8EE PUSH1 0x0 PUSH2 0x9D2 JUMP JUMPDEST JUMP JUMPDEST PUSH1 0x33 SLOAD PUSH1 0x1 PUSH1 0x1 PUSH1 0xA0 SHL SUB AND CALLER EQ PUSH2 0x91A JUMPI PUSH1 0x40 MLOAD PUSH3 0x461BCD PUSH1 0xE5 SHL DUP2 MSTORE PUSH1 0x4 ADD PUSH2 0x5CA SWAP1 PUSH2 0xB92 JUMP JUMPDEST PUSH1 0x1 PUSH1 0x1 PUSH1 0xA0 SHL SUB DUP2 AND PUSH2 0x97F JUMPI PUSH1 0x40 MLOAD PUSH3 0x461BCD PUSH1 0xE5 SHL DUP2 MSTORE PUSH1 0x20 PUSH1 0x4 DUP3 ADD MSTORE PUSH1 0x26 PUSH1 0x24 DUP3 ADD MSTORE PUSH32 0x4F776E61626C653A206E6577206F776E657220697320746865207A65726F2061 PUSH1 0x44 DUP3 ADD MSTORE PUSH6 0x646472657373 PUSH1 0xD0 SHL PUSH1 0x64 DUP3 ADD MSTORE PUSH1 0x84 ADD PUSH2 0x5CA JUMP JUMPDEST PUSH2 0x988 DUP2 PUSH2 0x9D2 JUMP JUMPDEST POP JUMP JUMPDEST PUSH1 0x67 DUP1 SLOAD PUSH1 0x1 PUSH1 0x1 PUSH1 0xA0 SHL SUB NOT AND PUSH1 0x1 PUSH1 0x1 PUSH1 0xA0 SHL SUB DUP4 AND OR SWAP1 SSTORE PUSH1 0x40 MLOAD PUSH32 0x3DAB95F89F74034BEEAC9F9FE9BEC350186CB958223E1791AFB0DBB64859CABD SWAP1 PUSH1 0x0 SWAP1 LOG1 POP JUMP JUMPDEST PUSH1 0x33 DUP1 SLOAD PUSH1 0x1 PUSH1 0x1 PUSH1 0xA0 SHL SUB DUP4 DUP2 AND PUSH1 0x1 PUSH1 0x1 PUSH1 0xA0 SHL SUB NOT DUP4 AND DUP2 OR SWAP1 SWAP4 SSTORE PUSH1 0x40 MLOAD SWAP2 AND SWAP2 SWAP1 DUP3 SWAP1 PUSH32 0x8BE0079C531659141344CD1FD0A4F28419497F9722A3DAAFE3B4186F6B6457E0 SWAP1 PUSH1 0x0 SWAP1 LOG3 POP POP JUMP JUMPDEST PUSH1 0x0 PUSH1 0x20 DUP3 DUP5 SUB SLT ISZERO PUSH2 0xA36 JUMPI PUSH1 0x0 DUP1 REVERT JUMPDEST POP CALLDATALOAD SWAP2 SWAP1 POP JUMP JUMPDEST PUSH1 0x0 DUP2 MLOAD DUP1 DUP5 MSTORE PUSH1 0x0 JUMPDEST DUP2 DUP2 LT ISZERO PUSH2 0xA63 JUMPI PUSH1 0x20 DUP2 DUP6 ADD DUP2 ADD MLOAD DUP7 DUP4 ADD DUP3 ADD MSTORE ADD PUSH2 0xA47 JUMP JUMPDEST DUP2 DUP2 GT ISZERO PUSH2 0xA75 JUMPI PUSH1 0x0 PUSH1 0x20 DUP4 DUP8 ADD ADD MSTORE JUMPDEST POP PUSH1 0x1F ADD PUSH1 0x1F NOT AND SWAP3 SWAP1 SWAP3 ADD PUSH1 0x20 ADD SWAP3 SWAP2 POP POP JUMP JUMPDEST DUP8 ISZERO ISZERO DUP2 MSTORE DUP7 PUSH1 0x20 DUP3 ADD MSTORE PUSH1 0xE0 PUSH1 0x40 DUP3 ADD MSTORE PUSH1 0x0 PUSH2 0xAAB PUSH1 0xE0 DUP4 ADD DUP9 PUSH2 0xA3D JUMP JUMPDEST DUP3 DUP2 SUB PUSH1 0x60 DUP5 ADD MSTORE PUSH2 0xABD DUP2 DUP9 PUSH2 0xA3D JUMP JUMPDEST PUSH1 0x1 PUSH1 0x1 PUSH1 0xA0 SHL SUB SWAP7 SWAP1 SWAP7 AND PUSH1 0x80 DUP5 ADD MSTORE POP POP PUSH1 0xA0 DUP2 ADD SWAP3 SWAP1 SWAP3 MSTORE PUSH1 0xC0 SWAP1 SWAP2 ADD MSTORE SWAP5 SWAP4 POP POP POP POP JUMP JUMPDEST DUP1 CALLDATALOAD PUSH1 0x1 PUSH1 0x1 PUSH1 0xA0 SHL SUB DUP2 AND DUP2 EQ PUSH2 0xAFD JUMPI PUSH1 0x0 DUP1 REVERT JUMPDEST SWAP2 SWAP1 POP JUMP JUMPDEST PUSH1 0x0 PUSH1 0x20 DUP3 DUP5 SUB SLT ISZERO PUSH2 0xB14 JUMPI PUSH1 0x0 DUP1 REVERT JUMPDEST PUSH2 0xB1D DUP3 PUSH2 0xAE6 JUMP JUMPDEST SWAP4 SWAP3 POP POP POP JUMP JUMPDEST PUSH1 0x0 DUP1 PUSH1 0x40 DUP4 DUP6 SUB SLT ISZERO PUSH2 0xB37 JUMPI PUSH1 0x0 DUP1 REVERT JUMPDEST PUSH2 0xB40 DUP4 PUSH2 0xAE6 JUMP JUMPDEST SWAP2 POP PUSH2 0xB4E PUSH1 0x20 DUP5 ADD PUSH2 0xAE6 JUMP JUMPDEST SWAP1 POP SWAP3 POP SWAP3 SWAP1 POP JUMP JUMPDEST PUSH1 0x1 DUP2 DUP2 SHR SWAP1 DUP3 AND DUP1 PUSH2 0xB6B JUMPI PUSH1 0x7F DUP3 AND SWAP2 POP JUMPDEST PUSH1 0x20 DUP3 LT DUP2 EQ ISZERO PUSH2 0xB8C JUMPI PUSH4 0x4E487B71 PUSH1 0xE0 SHL PUSH1 0x0 MSTORE PUSH1 0x22 PUSH1 0x4 MSTORE PUSH1 0x24 PUSH1 0x0 REVERT JUMPDEST POP SWAP2 SWAP1 POP JUMP JUMPDEST PUSH1 0x20 DUP1 DUP3 MSTORE DUP2 DUP2 ADD MSTORE PUSH32 0x4F776E61626C653A2063616C6C6572206973206E6F7420746865206F776E6572 PUSH1 0x40 DUP3 ADD MSTORE PUSH1 0x60 ADD SWAP1 JUMP INVALID LOG2 PUSH5 0x6970667358 0x22 SLT KECCAK256 PUSH8 0x5DA68EDB40E47FD PUSH20 0x7961F6B9ECC183B148EFE2AE382301D4F2E7FC14 RETURNDATACOPY 0xE2 PUSH5 0x736F6C6343 STOP ADDMOD 0xC STOP CALLER LOG2 PUSH5 0x6970667358 0x22 SLT KECCAK256 PUSH21 0x3819B32352288AB002BF4F34FC25BA4B66E236C712 SWAP10 CHAINID MUL DUP5 0xD PUSH4 0x734FB1E7 PUSH5 0x736F6C6343 STOP ADDMOD 0xC STOP CALLER "
		},
		"gasEstimates": {
			"creation": {
				"codeDepositCost": "2969400",
				"executionCost": "3255",
				"totalCost": "2972655"
			},
			"external": {
				"addCreator(address,string,string,string,address,address)": "infinite",
				"createInstance(string,string,string,address,address)": "infinite",
				"initializeOwner()": "infinite",
				"owner()": "2341",
				"renounceOwnership()": "28117",
				"transferOwnership(address)": "28378",
				"userToContractInstance(address)": "2547"
			}
		},
		"methodIdentifiers": {
			"addCreator(address,string,string,string,address,address)": "6b99a79b",
			"createInstance(string,string,string,address,address)": "a6342571",
			"initializeOwner()": "5f53837f",
			"owner()": "8da5cb5b",
			"renounceOwnership()": "715018a6",
			"transferOwnership(address)": "f2fde38b",
			"userToContractInstance(address)": "1c1bab9b"
		}
	},
	"abi": [
		{
			"anonymous": false,
			"inputs": [
				{
					"indexed": true,
					"internalType": "address",
					"name": "previousOwner",
					"type": "address"
				},
				{
					"indexed": true,
					"internalType": "address",
					"name": "newOwner",
					"type": "address"
				}
			],
			"name": "OwnershipTransferred",
			"type": "event"
		},
		{
			"anonymous": false,
			"inputs": [
				{
					"indexed": false,
					"internalType": "address",
					"name": "creator",
					"type": "address"
				},
				{
					"indexed": false,
					"internalType": "address",
					"name": "ERC721",
					"type": "address"
				},
				{
					"indexed": false,
					"internalType": "address",
					"name": "marketProxy",
					"type": "address"
				}
			],
			"name": "instanceCreated",
			"type": "event"
		},
		{
			"inputs": [
				{
					"internalType": "address",
					"name": "_creator",
					"type": "address"
				},
				{
					"internalType": "string",
					"name": "_name",
					"type": "string"
				},
				{
					"internalType": "string",
					"name": "_symbol",
					"type": "string"
				},
				{
					"internalType": "string",
					"name": "_baseTokenURI",
					"type": "string"
				},
				{
					"internalType": "address",
					"name": "MarketImplementationAddress",
					"type": "address"
				},
				{
					"internalType": "address",
					"name": "_superAdmin",
					"type": "address"
				}
			],
			"name": "addCreator",
			"outputs": [
				{
					"internalType": "address",
					"name": "",
					"type": "address"
				}
			],
			"stateMutability": "nonpayable",
			"type": "function"
		},
		{
			"inputs": [
				{
					"internalType": "string",
					"name": "_name",
					"type": "string"
				},
				{
					"internalType": "string",
					"name": "_symbol",
					"type": "string"
				},
				{
					"internalType": "string",
					"name": "_baseTokenURI",
					"type": "string"
				},
				{
					"internalType": "address",
					"name": "MarketImplementationAddress",
					"type": "address"
				},
				{
					"internalType": "address",
					"name": "_superAdmin",
					"type": "address"
				}
			],
			"name": "createInstance",
			"outputs": [
				{
					"internalType": "address",
					"name": "",
					"type": "address"
				}
			],
			"stateMutability": "nonpayable",
			"type": "function"
		},
		{
			"inputs": [],
			"name": "initializeOwner",
			"outputs": [],
			"stateMutability": "nonpayable",
			"type": "function"
		},
		{
			"inputs": [],
			"name": "owner",
			"outputs": [
				{
					"internalType": "address",
					"name": "",
					"type": "address"
				}
			],
			"stateMutability": "view",
			"type": "function"
		},
		{
			"inputs": [],
			"name": "renounceOwnership",
			"outputs": [],
			"stateMutability": "nonpayable",
			"type": "function"
		},
		{
			"inputs": [
				{
					"internalType": "address",
					"name": "newOwner",
					"type": "address"
				}
			],
			"name": "transferOwnership",
			"outputs": [],
			"stateMutability": "nonpayable",
			"type": "function"
		},
		{
			"inputs": [
				{
					"internalType": "address",
					"name": "",
					"type": "address"
				}
			],
			"name": "userToContractInstance",
			"outputs": [
				{
					"internalType": "address",
					"name": "",
					"type": "address"
				}
			],
			"stateMutability": "view",
			"type": "function"
		}
	]
}