{
	"data": {
		"bytecode": {
			"linkReferences": {},
			"object": "608060405234801561001057600080fd5b50606b80546001600160a01b03191633179055610c67806100326000396000f3fe6080604052600436106101025760003560e01c8063715018a611610095578063ab101e7211610064578063ab101e7214610324578063b0cf428a1461035a578063d2f658c01461037a578063f2fde38b146103b5578063f67cf0eb146103d557610109565b8063715018a6146102a0578063772908bb146102b55780638cf0e21e146102d55780638da5cb5b1461030657610109565b8063485cc955116100d1578063485cc95514610213578063574490cd146102335780635c1cb6911461026b57806367fc91381461028b57610109565b806312a63c401461014357806328016f9a1461017d5780633659cfe6146101945780633c6ac216146101b457610109565b3661010957005b6068546001600160a01b03168061011f57600080fd5b3660008037600080366000845af43d6000803e80801561013e573d6000f35b3d6000fd5b34801561014f57600080fd5b5061016361015e366004610a53565b61040b565b604051610174959493929190610ab9565b60405180910390f35b34801561018957600080fd5b50610192610555565b005b3480156101a057600080fd5b506101926101af366004610b21565b61059d565b3480156101c057600080fd5b506101f46101cf366004610a53565b606660205260009081526040902080546001909101546001600160a01b039091169082565b604080516001600160a01b039093168352602083019190915201610174565b34801561021f57600080fd5b5061019261022e366004610b43565b6106dc565b34801561023f57600080fd5b50606954610253906001600160a01b031681565b6040516001600160a01b039091168152602001610174565b34801561027757600080fd5b50606a54610253906001600160a01b031681565b34801561029757600080fd5b50610192610851565b3480156102ac57600080fd5b5061019261088a565b3480156102c157600080fd5b50606854610253906001600160a01b031681565b3480156102e157600080fd5b50606b546102f690600160a01b900460ff1681565b6040519015158152602001610174565b34801561031257600080fd5b506033546001600160a01b0316610253565b34801561033057600080fd5b5061025361033f366004610a53565b606d602052600090815260409020546001600160a01b031681565b34801561036657600080fd5b50606b54610253906001600160a01b031681565b34801561038657600080fd5b506103a7610395366004610a53565b60656020526000908152604090205481565b604051908152602001610174565b3480156103c157600080fd5b506101926103d0366004610b21565b6108c0565b3480156103e157600080fd5b506102536103f0366004610a53565b606c602052600090815260409020546001600160a01b031681565b606e6020526000908152604090208054819061042690610b76565b80601f016020809104026020016040519081016040528092919081815260200182805461045290610b76565b801561049f5780601f106104745761010080835404028352916020019161049f565b820191906000526020600020905b81548152906001019060200180831161048257829003601f168201915b5050505050908060010180546104b490610b76565b80601f01602080910402602001604051908101604052809291908181526020018280546104e090610b76565b801561052d5780601f106105025761010080835404028352916020019161052d565b820191906000526020600020905b81548152906001019060200180831161051057829003601f168201915b505050506002830154600384015460049094015492936001600160a01b039091169290915085565b6033546001600160a01b031633146105885760405162461bcd60e51b815260040161057f90610bb1565b60405180910390fd5b606b805460ff60a01b1916600160a01b179055565b606b546001600160a01b03163314806105c057506033546001600160a01b031633145b61060c5760405162461bcd60e51b815260206004820152601a60248201527f6d73672e73656e646572206973206e6f7420616e206f776e6572000000000000604482015260640161057f565b606b54600160a01b900460ff166106655760405162461bcd60e51b815260206004820152601a60248201527f55706772616465206973206e6f7420656e61626c656420796574000000000000604482015260640161057f565b6068546001600160a01b03828116911614156106c35760405162461bcd60e51b815260206004820152601d60248201527f497320616c72656164792074686520696d706c656d656e746174696f6e000000604482015260640161057f565b6106cc8161095b565b50606b805460ff60a01b19169055565b600054610100900460ff166106f75760005460ff16156106fb565b303b155b61075e5760405162461bcd60e51b815260206004820152602e60248201527f496e697469616c697a61626c653a20636f6e747261637420697320616c72656160448201526d191e481a5b9a5d1a585b1a5e995960921b606482015260840161057f565b600054610100900460ff16158015610780576000805461ffff19166101011790555b606b546001600160a01b03163314806107a357506033546001600160a01b031633145b6107ef5760405162461bcd60e51b815260206004820152601a60248201527f6d73672e73656e646572206973206e6f7420616e206f776e6572000000000000604482015260640161057f565b606980546001600160a01b038086166001600160a01b031992831617909255606a805492851692909116919091179055606b805460ff60a01b1916600160a01b17905561083a6109a2565b801561084c576000805461ff00191690555b505050565b6033546001600160a01b0316331461087b5760405162461bcd60e51b815260040161057f90610bb1565b606b805460ff60a01b19169055565b6033546001600160a01b031633146108b45760405162461bcd60e51b815260040161057f90610bb1565b6108be60006109d1565b565b6033546001600160a01b031633146108ea5760405162461bcd60e51b815260040161057f90610bb1565b6001600160a01b03811661094f5760405162461bcd60e51b815260206004820152602660248201527f4f776e61626c653a206e6577206f776e657220697320746865207a65726f206160448201526564647265737360d01b606482015260840161057f565b610958816109d1565b50565b606880546001600160a01b0319166001600160a01b0383161790556040517f3dab95f89f74034beeac9f9fe9bec350186cb958223e1791afb0dbb64859cabd90600090a150565b600054610100900460ff166109c95760405162461bcd60e51b815260040161057f90610be6565b6108be610a23565b603380546001600160a01b038381166001600160a01b0319831681179093556040519116919082907f8be0079c531659141344cd1fd0a4f28419497f9722a3daafe3b4186f6b6457e090600090a35050565b600054610100900460ff16610a4a5760405162461bcd60e51b815260040161057f90610be6565b6108be336109d1565b600060208284031215610a6557600080fd5b5035919050565b6000815180845260005b81811015610a9257602081850181015186830182015201610a76565b81811115610aa4576000602083870101525b50601f01601f19169290920160200192915050565b60a081526000610acc60a0830188610a6c565b8281036020840152610ade8188610a6c565b6001600160a01b039690961660408401525050606081019290925260809091015292915050565b80356001600160a01b0381168114610b1c57600080fd5b919050565b600060208284031215610b3357600080fd5b610b3c82610b05565b9392505050565b60008060408385031215610b5657600080fd5b610b5f83610b05565b9150610b6d60208401610b05565b90509250929050565b600181811c90821680610b8a57607f821691505b60208210811415610bab57634e487b7160e01b600052602260045260246000fd5b50919050565b6020808252818101527f4f776e61626c653a2063616c6c6572206973206e6f7420746865206f776e6572604082015260600190565b6020808252602b908201527f496e697469616c697a61626c653a20636f6e7472616374206973206e6f74206960408201526a6e697469616c697a696e6760a81b60608201526080019056fea26469706673582212200b2513b7288c08c88f08bb293c442158ee164af756c9f73ba8e98f61db461f7064736f6c634300080c0033",
			"opcodes": "PUSH1 0x80 PUSH1 0x40 MSTORE CALLVALUE DUP1 ISZERO PUSH2 0x10 JUMPI PUSH1 0x0 DUP1 REVERT JUMPDEST POP PUSH1 0x6B DUP1 SLOAD PUSH1 0x1 PUSH1 0x1 PUSH1 0xA0 SHL SUB NOT AND CALLER OR SWAP1 SSTORE PUSH2 0xC67 DUP1 PUSH2 0x32 PUSH1 0x0 CODECOPY PUSH1 0x0 RETURN INVALID PUSH1 0x80 PUSH1 0x40 MSTORE PUSH1 0x4 CALLDATASIZE LT PUSH2 0x102 JUMPI PUSH1 0x0 CALLDATALOAD PUSH1 0xE0 SHR DUP1 PUSH4 0x715018A6 GT PUSH2 0x95 JUMPI DUP1 PUSH4 0xAB101E72 GT PUSH2 0x64 JUMPI DUP1 PUSH4 0xAB101E72 EQ PUSH2 0x324 JUMPI DUP1 PUSH4 0xB0CF428A EQ PUSH2 0x35A JUMPI DUP1 PUSH4 0xD2F658C0 EQ PUSH2 0x37A JUMPI DUP1 PUSH4 0xF2FDE38B EQ PUSH2 0x3B5 JUMPI DUP1 PUSH4 0xF67CF0EB EQ PUSH2 0x3D5 JUMPI PUSH2 0x109 JUMP JUMPDEST DUP1 PUSH4 0x715018A6 EQ PUSH2 0x2A0 JUMPI DUP1 PUSH4 0x772908BB EQ PUSH2 0x2B5 JUMPI DUP1 PUSH4 0x8CF0E21E EQ PUSH2 0x2D5 JUMPI DUP1 PUSH4 0x8DA5CB5B EQ PUSH2 0x306 JUMPI PUSH2 0x109 JUMP JUMPDEST DUP1 PUSH4 0x485CC955 GT PUSH2 0xD1 JUMPI DUP1 PUSH4 0x485CC955 EQ PUSH2 0x213 JUMPI DUP1 PUSH4 0x574490CD EQ PUSH2 0x233 JUMPI DUP1 PUSH4 0x5C1CB691 EQ PUSH2 0x26B JUMPI DUP1 PUSH4 0x67FC9138 EQ PUSH2 0x28B JUMPI PUSH2 0x109 JUMP JUMPDEST DUP1 PUSH4 0x12A63C40 EQ PUSH2 0x143 JUMPI DUP1 PUSH4 0x28016F9A EQ PUSH2 0x17D JUMPI DUP1 PUSH4 0x3659CFE6 EQ PUSH2 0x194 JUMPI DUP1 PUSH4 0x3C6AC216 EQ PUSH2 0x1B4 JUMPI PUSH2 0x109 JUMP JUMPDEST CALLDATASIZE PUSH2 0x109 JUMPI STOP JUMPDEST PUSH1 0x68 SLOAD PUSH1 0x1 PUSH1 0x1 PUSH1 0xA0 SHL SUB AND DUP1 PUSH2 0x11F JUMPI PUSH1 0x0 DUP1 REVERT JUMPDEST CALLDATASIZE PUSH1 0x0 DUP1 CALLDATACOPY PUSH1 0x0 DUP1 CALLDATASIZE PUSH1 0x0 DUP5 GAS DELEGATECALL RETURNDATASIZE PUSH1 0x0 DUP1 RETURNDATACOPY DUP1 DUP1 ISZERO PUSH2 0x13E JUMPI RETURNDATASIZE PUSH1 0x0 RETURN JUMPDEST RETURNDATASIZE PUSH1 0x0 REVERT JUMPDEST CALLVALUE DUP1 ISZERO PUSH2 0x14F JUMPI PUSH1 0x0 DUP1 REVERT JUMPDEST POP PUSH2 0x163 PUSH2 0x15E CALLDATASIZE PUSH1 0x4 PUSH2 0xA53 JUMP JUMPDEST PUSH2 0x40B JUMP JUMPDEST PUSH1 0x40 MLOAD PUSH2 0x174 SWAP6 SWAP5 SWAP4 SWAP3 SWAP2 SWAP1 PUSH2 0xAB9 JUMP JUMPDEST PUSH1 0x40 MLOAD DUP1 SWAP2 SUB SWAP1 RETURN JUMPDEST CALLVALUE DUP1 ISZERO PUSH2 0x189 JUMPI PUSH1 0x0 DUP1 REVERT JUMPDEST POP PUSH2 0x192 PUSH2 0x555 JUMP JUMPDEST STOP JUMPDEST CALLVALUE DUP1 ISZERO PUSH2 0x1A0 JUMPI PUSH1 0x0 DUP1 REVERT JUMPDEST POP PUSH2 0x192 PUSH2 0x1AF CALLDATASIZE PUSH1 0x4 PUSH2 0xB21 JUMP JUMPDEST PUSH2 0x59D JUMP JUMPDEST CALLVALUE DUP1 ISZERO PUSH2 0x1C0 JUMPI PUSH1 0x0 DUP1 REVERT JUMPDEST POP PUSH2 0x1F4 PUSH2 0x1CF CALLDATASIZE PUSH1 0x4 PUSH2 0xA53 JUMP JUMPDEST PUSH1 0x66 PUSH1 0x20 MSTORE PUSH1 0x0 SWAP1 DUP2 MSTORE PUSH1 0x40 SWAP1 KECCAK256 DUP1 SLOAD PUSH1 0x1 SWAP1 SWAP2 ADD SLOAD PUSH1 0x1 PUSH1 0x1 PUSH1 0xA0 SHL SUB SWAP1 SWAP2 AND SWAP1 DUP3 JUMP JUMPDEST PUSH1 0x40 DUP1 MLOAD PUSH1 0x1 PUSH1 0x1 PUSH1 0xA0 SHL SUB SWAP1 SWAP4 AND DUP4 MSTORE PUSH1 0x20 DUP4 ADD SWAP2 SWAP1 SWAP2 MSTORE ADD PUSH2 0x174 JUMP JUMPDEST CALLVALUE DUP1 ISZERO PUSH2 0x21F JUMPI PUSH1 0x0 DUP1 REVERT JUMPDEST POP PUSH2 0x192 PUSH2 0x22E CALLDATASIZE PUSH1 0x4 PUSH2 0xB43 JUMP JUMPDEST PUSH2 0x6DC JUMP JUMPDEST CALLVALUE DUP1 ISZERO PUSH2 0x23F JUMPI PUSH1 0x0 DUP1 REVERT JUMPDEST POP PUSH1 0x69 SLOAD PUSH2 0x253 SWAP1 PUSH1 0x1 PUSH1 0x1 PUSH1 0xA0 SHL SUB AND DUP2 JUMP JUMPDEST PUSH1 0x40 MLOAD PUSH1 0x1 PUSH1 0x1 PUSH1 0xA0 SHL SUB SWAP1 SWAP2 AND DUP2 MSTORE PUSH1 0x20 ADD PUSH2 0x174 JUMP JUMPDEST CALLVALUE DUP1 ISZERO PUSH2 0x277 JUMPI PUSH1 0x0 DUP1 REVERT JUMPDEST POP PUSH1 0x6A SLOAD PUSH2 0x253 SWAP1 PUSH1 0x1 PUSH1 0x1 PUSH1 0xA0 SHL SUB AND DUP2 JUMP JUMPDEST CALLVALUE DUP1 ISZERO PUSH2 0x297 JUMPI PUSH1 0x0 DUP1 REVERT JUMPDEST POP PUSH2 0x192 PUSH2 0x851 JUMP JUMPDEST CALLVALUE DUP1 ISZERO PUSH2 0x2AC JUMPI PUSH1 0x0 DUP1 REVERT JUMPDEST POP PUSH2 0x192 PUSH2 0x88A JUMP JUMPDEST CALLVALUE DUP1 ISZERO PUSH2 0x2C1 JUMPI PUSH1 0x0 DUP1 REVERT JUMPDEST POP PUSH1 0x68 SLOAD PUSH2 0x253 SWAP1 PUSH1 0x1 PUSH1 0x1 PUSH1 0xA0 SHL SUB AND DUP2 JUMP JUMPDEST CALLVALUE DUP1 ISZERO PUSH2 0x2E1 JUMPI PUSH1 0x0 DUP1 REVERT JUMPDEST POP PUSH1 0x6B SLOAD PUSH2 0x2F6 SWAP1 PUSH1 0x1 PUSH1 0xA0 SHL SWAP1 DIV PUSH1 0xFF AND DUP2 JUMP JUMPDEST PUSH1 0x40 MLOAD SWAP1 ISZERO ISZERO DUP2 MSTORE PUSH1 0x20 ADD PUSH2 0x174 JUMP JUMPDEST CALLVALUE DUP1 ISZERO PUSH2 0x312 JUMPI PUSH1 0x0 DUP1 REVERT JUMPDEST POP PUSH1 0x33 SLOAD PUSH1 0x1 PUSH1 0x1 PUSH1 0xA0 SHL SUB AND PUSH2 0x253 JUMP JUMPDEST CALLVALUE DUP1 ISZERO PUSH2 0x330 JUMPI PUSH1 0x0 DUP1 REVERT JUMPDEST POP PUSH2 0x253 PUSH2 0x33F CALLDATASIZE PUSH1 0x4 PUSH2 0xA53 JUMP JUMPDEST PUSH1 0x6D PUSH1 0x20 MSTORE PUSH1 0x0 SWAP1 DUP2 MSTORE PUSH1 0x40 SWAP1 KECCAK256 SLOAD PUSH1 0x1 PUSH1 0x1 PUSH1 0xA0 SHL SUB AND DUP2 JUMP JUMPDEST CALLVALUE DUP1 ISZERO PUSH2 0x366 JUMPI PUSH1 0x0 DUP1 REVERT JUMPDEST POP PUSH1 0x6B SLOAD PUSH2 0x253 SWAP1 PUSH1 0x1 PUSH1 0x1 PUSH1 0xA0 SHL SUB AND DUP2 JUMP JUMPDEST CALLVALUE DUP1 ISZERO PUSH2 0x386 JUMPI PUSH1 0x0 DUP1 REVERT JUMPDEST POP PUSH2 0x3A7 PUSH2 0x395 CALLDATASIZE PUSH1 0x4 PUSH2 0xA53 JUMP JUMPDEST PUSH1 0x65 PUSH1 0x20 MSTORE PUSH1 0x0 SWAP1 DUP2 MSTORE PUSH1 0x40 SWAP1 KECCAK256 SLOAD DUP2 JUMP JUMPDEST PUSH1 0x40 MLOAD SWAP1 DUP2 MSTORE PUSH1 0x20 ADD PUSH2 0x174 JUMP JUMPDEST CALLVALUE DUP1 ISZERO PUSH2 0x3C1 JUMPI PUSH1 0x0 DUP1 REVERT JUMPDEST POP PUSH2 0x192 PUSH2 0x3D0 CALLDATASIZE PUSH1 0x4 PUSH2 0xB21 JUMP JUMPDEST PUSH2 0x8C0 JUMP JUMPDEST CALLVALUE DUP1 ISZERO PUSH2 0x3E1 JUMPI PUSH1 0x0 DUP1 REVERT JUMPDEST POP PUSH2 0x253 PUSH2 0x3F0 CALLDATASIZE PUSH1 0x4 PUSH2 0xA53 JUMP JUMPDEST PUSH1 0x6C PUSH1 0x20 MSTORE PUSH1 0x0 SWAP1 DUP2 MSTORE PUSH1 0x40 SWAP1 KECCAK256 SLOAD PUSH1 0x1 PUSH1 0x1 PUSH1 0xA0 SHL SUB AND DUP2 JUMP JUMPDEST PUSH1 0x6E PUSH1 0x20 MSTORE PUSH1 0x0 SWAP1 DUP2 MSTORE PUSH1 0x40 SWAP1 KECCAK256 DUP1 SLOAD DUP2 SWAP1 PUSH2 0x426 SWAP1 PUSH2 0xB76 JUMP JUMPDEST DUP1 PUSH1 0x1F ADD PUSH1 0x20 DUP1 SWAP2 DIV MUL PUSH1 0x20 ADD PUSH1 0x40 MLOAD SWAP1 DUP2 ADD PUSH1 0x40 MSTORE DUP1 SWAP3 SWAP2 SWAP1 DUP2 DUP2 MSTORE PUSH1 0x20 ADD DUP3 DUP1 SLOAD PUSH2 0x452 SWAP1 PUSH2 0xB76 JUMP JUMPDEST DUP1 ISZERO PUSH2 0x49F JUMPI DUP1 PUSH1 0x1F LT PUSH2 0x474 JUMPI PUSH2 0x100 DUP1 DUP4 SLOAD DIV MUL DUP4 MSTORE SWAP2 PUSH1 0x20 ADD SWAP2 PUSH2 0x49F JUMP JUMPDEST DUP3 ADD SWAP2 SWAP1 PUSH1 0x0 MSTORE PUSH1 0x20 PUSH1 0x0 KECCAK256 SWAP1 JUMPDEST DUP2 SLOAD DUP2 MSTORE SWAP1 PUSH1 0x1 ADD SWAP1 PUSH1 0x20 ADD DUP1 DUP4 GT PUSH2 0x482 JUMPI DUP3 SWAP1 SUB PUSH1 0x1F AND DUP3 ADD SWAP2 JUMPDEST POP POP POP POP POP SWAP1 DUP1 PUSH1 0x1 ADD DUP1 SLOAD PUSH2 0x4B4 SWAP1 PUSH2 0xB76 JUMP JUMPDEST DUP1 PUSH1 0x1F ADD PUSH1 0x20 DUP1 SWAP2 DIV MUL PUSH1 0x20 ADD PUSH1 0x40 MLOAD SWAP1 DUP2 ADD PUSH1 0x40 MSTORE DUP1 SWAP3 SWAP2 SWAP1 DUP2 DUP2 MSTORE PUSH1 0x20 ADD DUP3 DUP1 SLOAD PUSH2 0x4E0 SWAP1 PUSH2 0xB76 JUMP JUMPDEST DUP1 ISZERO PUSH2 0x52D JUMPI DUP1 PUSH1 0x1F LT PUSH2 0x502 JUMPI PUSH2 0x100 DUP1 DUP4 SLOAD DIV MUL DUP4 MSTORE SWAP2 PUSH1 0x20 ADD SWAP2 PUSH2 0x52D JUMP JUMPDEST DUP3 ADD SWAP2 SWAP1 PUSH1 0x0 MSTORE PUSH1 0x20 PUSH1 0x0 KECCAK256 SWAP1 JUMPDEST DUP2 SLOAD DUP2 MSTORE SWAP1 PUSH1 0x1 ADD SWAP1 PUSH1 0x20 ADD DUP1 DUP4 GT PUSH2 0x510 JUMPI DUP3 SWAP1 SUB PUSH1 0x1F AND DUP3 ADD SWAP2 JUMPDEST POP POP POP POP PUSH1 0x2 DUP4 ADD SLOAD PUSH1 0x3 DUP5 ADD SLOAD PUSH1 0x4 SWAP1 SWAP5 ADD SLOAD SWAP3 SWAP4 PUSH1 0x1 PUSH1 0x1 PUSH1 0xA0 SHL SUB SWAP1 SWAP2 AND SWAP3 SWAP1 SWAP2 POP DUP6 JUMP JUMPDEST PUSH1 0x33 SLOAD PUSH1 0x1 PUSH1 0x1 PUSH1 0xA0 SHL SUB AND CALLER EQ PUSH2 0x588 JUMPI PUSH1 0x40 MLOAD PUSH3 0x461BCD PUSH1 0xE5 SHL DUP2 MSTORE PUSH1 0x4 ADD PUSH2 0x57F SWAP1 PUSH2 0xBB1 JUMP JUMPDEST PUSH1 0x40 MLOAD DUP1 SWAP2 SUB SWAP1 REVERT JUMPDEST PUSH1 0x6B DUP1 SLOAD PUSH1 0xFF PUSH1 0xA0 SHL NOT AND PUSH1 0x1 PUSH1 0xA0 SHL OR SWAP1 SSTORE JUMP JUMPDEST PUSH1 0x6B SLOAD PUSH1 0x1 PUSH1 0x1 PUSH1 0xA0 SHL SUB AND CALLER EQ DUP1 PUSH2 0x5C0 JUMPI POP PUSH1 0x33 SLOAD PUSH1 0x1 PUSH1 0x1 PUSH1 0xA0 SHL SUB AND CALLER EQ JUMPDEST PUSH2 0x60C JUMPI PUSH1 0x40 MLOAD PUSH3 0x461BCD PUSH1 0xE5 SHL DUP2 MSTORE PUSH1 0x20 PUSH1 0x4 DUP3 ADD MSTORE PUSH1 0x1A PUSH1 0x24 DUP3 ADD MSTORE PUSH32 0x6D73672E73656E646572206973206E6F7420616E206F776E6572000000000000 PUSH1 0x44 DUP3 ADD MSTORE PUSH1 0x64 ADD PUSH2 0x57F JUMP JUMPDEST PUSH1 0x6B SLOAD PUSH1 0x1 PUSH1 0xA0 SHL SWAP1 DIV PUSH1 0xFF AND PUSH2 0x665 JUMPI PUSH1 0x40 MLOAD PUSH3 0x461BCD PUSH1 0xE5 SHL DUP2 MSTORE PUSH1 0x20 PUSH1 0x4 DUP3 ADD MSTORE PUSH1 0x1A PUSH1 0x24 DUP3 ADD MSTORE PUSH32 0x55706772616465206973206E6F7420656E61626C656420796574000000000000 PUSH1 0x44 DUP3 ADD MSTORE PUSH1 0x64 ADD PUSH2 0x57F JUMP JUMPDEST PUSH1 0x68 SLOAD PUSH1 0x1 PUSH1 0x1 PUSH1 0xA0 SHL SUB DUP3 DUP2 AND SWAP2 AND EQ ISZERO PUSH2 0x6C3 JUMPI PUSH1 0x40 MLOAD PUSH3 0x461BCD PUSH1 0xE5 SHL DUP2 MSTORE PUSH1 0x20 PUSH1 0x4 DUP3 ADD MSTORE PUSH1 0x1D PUSH1 0x24 DUP3 ADD MSTORE PUSH32 0x497320616C72656164792074686520696D706C656D656E746174696F6E000000 PUSH1 0x44 DUP3 ADD MSTORE PUSH1 0x64 ADD PUSH2 0x57F JUMP JUMPDEST PUSH2 0x6CC DUP2 PUSH2 0x95B JUMP JUMPDEST POP PUSH1 0x6B DUP1 SLOAD PUSH1 0xFF PUSH1 0xA0 SHL NOT AND SWAP1 SSTORE JUMP JUMPDEST PUSH1 0x0 SLOAD PUSH2 0x100 SWAP1 DIV PUSH1 0xFF AND PUSH2 0x6F7 JUMPI PUSH1 0x0 SLOAD PUSH1 0xFF AND ISZERO PUSH2 0x6FB JUMP JUMPDEST ADDRESS EXTCODESIZE ISZERO JUMPDEST PUSH2 0x75E JUMPI PUSH1 0x40 MLOAD PUSH3 0x461BCD PUSH1 0xE5 SHL DUP2 MSTORE PUSH1 0x20 PUSH1 0x4 DUP3 ADD MSTORE PUSH1 0x2E PUSH1 0x24 DUP3 ADD MSTORE PUSH32 0x496E697469616C697A61626C653A20636F6E747261637420697320616C726561 PUSH1 0x44 DUP3 ADD MSTORE PUSH14 0x191E481A5B9A5D1A585B1A5E9959 PUSH1 0x92 SHL PUSH1 0x64 DUP3 ADD MSTORE PUSH1 0x84 ADD PUSH2 0x57F JUMP JUMPDEST PUSH1 0x0 SLOAD PUSH2 0x100 SWAP1 DIV PUSH1 0xFF AND ISZERO DUP1 ISZERO PUSH2 0x780 JUMPI PUSH1 0x0 DUP1 SLOAD PUSH2 0xFFFF NOT AND PUSH2 0x101 OR SWAP1 SSTORE JUMPDEST PUSH1 0x6B SLOAD PUSH1 0x1 PUSH1 0x1 PUSH1 0xA0 SHL SUB AND CALLER EQ DUP1 PUSH2 0x7A3 JUMPI POP PUSH1 0x33 SLOAD PUSH1 0x1 PUSH1 0x1 PUSH1 0xA0 SHL SUB AND CALLER EQ JUMPDEST PUSH2 0x7EF JUMPI PUSH1 0x40 MLOAD PUSH3 0x461BCD PUSH1 0xE5 SHL DUP2 MSTORE PUSH1 0x20 PUSH1 0x4 DUP3 ADD MSTORE PUSH1 0x1A PUSH1 0x24 DUP3 ADD MSTORE PUSH32 0x6D73672E73656E646572206973206E6F7420616E206F776E6572000000000000 PUSH1 0x44 DUP3 ADD MSTORE PUSH1 0x64 ADD PUSH2 0x57F JUMP JUMPDEST PUSH1 0x69 DUP1 SLOAD PUSH1 0x1 PUSH1 0x1 PUSH1 0xA0 SHL SUB DUP1 DUP7 AND PUSH1 0x1 PUSH1 0x1 PUSH1 0xA0 SHL SUB NOT SWAP3 DUP4 AND OR SWAP1 SWAP3 SSTORE PUSH1 0x6A DUP1 SLOAD SWAP3 DUP6 AND SWAP3 SWAP1 SWAP2 AND SWAP2 SWAP1 SWAP2 OR SWAP1 SSTORE PUSH1 0x6B DUP1 SLOAD PUSH1 0xFF PUSH1 0xA0 SHL NOT AND PUSH1 0x1 PUSH1 0xA0 SHL OR SWAP1 SSTORE PUSH2 0x83A PUSH2 0x9A2 JUMP JUMPDEST DUP1 ISZERO PUSH2 0x84C JUMPI PUSH1 0x0 DUP1 SLOAD PUSH2 0xFF00 NOT AND SWAP1 SSTORE JUMPDEST POP POP POP JUMP JUMPDEST PUSH1 0x33 SLOAD PUSH1 0x1 PUSH1 0x1 PUSH1 0xA0 SHL SUB AND CALLER EQ PUSH2 0x87B JUMPI PUSH1 0x40 MLOAD PUSH3 0x461BCD PUSH1 0xE5 SHL DUP2 MSTORE PUSH1 0x4 ADD PUSH2 0x57F SWAP1 PUSH2 0xBB1 JUMP JUMPDEST PUSH1 0x6B DUP1 SLOAD PUSH1 0xFF PUSH1 0xA0 SHL NOT AND SWAP1 SSTORE JUMP JUMPDEST PUSH1 0x33 SLOAD PUSH1 0x1 PUSH1 0x1 PUSH1 0xA0 SHL SUB AND CALLER EQ PUSH2 0x8B4 JUMPI PUSH1 0x40 MLOAD PUSH3 0x461BCD PUSH1 0xE5 SHL DUP2 MSTORE PUSH1 0x4 ADD PUSH2 0x57F SWAP1 PUSH2 0xBB1 JUMP JUMPDEST PUSH2 0x8BE PUSH1 0x0 PUSH2 0x9D1 JUMP JUMPDEST JUMP JUMPDEST PUSH1 0x33 SLOAD PUSH1 0x1 PUSH1 0x1 PUSH1 0xA0 SHL SUB AND CALLER EQ PUSH2 0x8EA JUMPI PUSH1 0x40 MLOAD PUSH3 0x461BCD PUSH1 0xE5 SHL DUP2 MSTORE PUSH1 0x4 ADD PUSH2 0x57F SWAP1 PUSH2 0xBB1 JUMP JUMPDEST PUSH1 0x1 PUSH1 0x1 PUSH1 0xA0 SHL SUB DUP2 AND PUSH2 0x94F JUMPI PUSH1 0x40 MLOAD PUSH3 0x461BCD PUSH1 0xE5 SHL DUP2 MSTORE PUSH1 0x20 PUSH1 0x4 DUP3 ADD MSTORE PUSH1 0x26 PUSH1 0x24 DUP3 ADD MSTORE PUSH32 0x4F776E61626C653A206E6577206F776E657220697320746865207A65726F2061 PUSH1 0x44 DUP3 ADD MSTORE PUSH6 0x646472657373 PUSH1 0xD0 SHL PUSH1 0x64 DUP3 ADD MSTORE PUSH1 0x84 ADD PUSH2 0x57F JUMP JUMPDEST PUSH2 0x958 DUP2 PUSH2 0x9D1 JUMP JUMPDEST POP JUMP JUMPDEST PUSH1 0x68 DUP1 SLOAD PUSH1 0x1 PUSH1 0x1 PUSH1 0xA0 SHL SUB NOT AND PUSH1 0x1 PUSH1 0x1 PUSH1 0xA0 SHL SUB DUP4 AND OR SWAP1 SSTORE PUSH1 0x40 MLOAD PUSH32 0x3DAB95F89F74034BEEAC9F9FE9BEC350186CB958223E1791AFB0DBB64859CABD SWAP1 PUSH1 0x0 SWAP1 LOG1 POP JUMP JUMPDEST PUSH1 0x0 SLOAD PUSH2 0x100 SWAP1 DIV PUSH1 0xFF AND PUSH2 0x9C9 JUMPI PUSH1 0x40 MLOAD PUSH3 0x461BCD PUSH1 0xE5 SHL DUP2 MSTORE PUSH1 0x4 ADD PUSH2 0x57F SWAP1 PUSH2 0xBE6 JUMP JUMPDEST PUSH2 0x8BE PUSH2 0xA23 JUMP JUMPDEST PUSH1 0x33 DUP1 SLOAD PUSH1 0x1 PUSH1 0x1 PUSH1 0xA0 SHL SUB DUP4 DUP2 AND PUSH1 0x1 PUSH1 0x1 PUSH1 0xA0 SHL SUB NOT DUP4 AND DUP2 OR SWAP1 SWAP4 SSTORE PUSH1 0x40 MLOAD SWAP2 AND SWAP2 SWAP1 DUP3 SWAP1 PUSH32 0x8BE0079C531659141344CD1FD0A4F28419497F9722A3DAAFE3B4186F6B6457E0 SWAP1 PUSH1 0x0 SWAP1 LOG3 POP POP JUMP JUMPDEST PUSH1 0x0 SLOAD PUSH2 0x100 SWAP1 DIV PUSH1 0xFF AND PUSH2 0xA4A JUMPI PUSH1 0x40 MLOAD PUSH3 0x461BCD PUSH1 0xE5 SHL DUP2 MSTORE PUSH1 0x4 ADD PUSH2 0x57F SWAP1 PUSH2 0xBE6 JUMP JUMPDEST PUSH2 0x8BE CALLER PUSH2 0x9D1 JUMP JUMPDEST PUSH1 0x0 PUSH1 0x20 DUP3 DUP5 SUB SLT ISZERO PUSH2 0xA65 JUMPI PUSH1 0x0 DUP1 REVERT JUMPDEST POP CALLDATALOAD SWAP2 SWAP1 POP JUMP JUMPDEST PUSH1 0x0 DUP2 MLOAD DUP1 DUP5 MSTORE PUSH1 0x0 JUMPDEST DUP2 DUP2 LT ISZERO PUSH2 0xA92 JUMPI PUSH1 0x20 DUP2 DUP6 ADD DUP2 ADD MLOAD DUP7 DUP4 ADD DUP3 ADD MSTORE ADD PUSH2 0xA76 JUMP JUMPDEST DUP2 DUP2 GT ISZERO PUSH2 0xAA4 JUMPI PUSH1 0x0 PUSH1 0x20 DUP4 DUP8 ADD ADD MSTORE JUMPDEST POP PUSH1 0x1F ADD PUSH1 0x1F NOT AND SWAP3 SWAP1 SWAP3 ADD PUSH1 0x20 ADD SWAP3 SWAP2 POP POP JUMP JUMPDEST PUSH1 0xA0 DUP2 MSTORE PUSH1 0x0 PUSH2 0xACC PUSH1 0xA0 DUP4 ADD DUP9 PUSH2 0xA6C JUMP JUMPDEST DUP3 DUP2 SUB PUSH1 0x20 DUP5 ADD MSTORE PUSH2 0xADE DUP2 DUP9 PUSH2 0xA6C JUMP JUMPDEST PUSH1 0x1 PUSH1 0x1 PUSH1 0xA0 SHL SUB SWAP7 SWAP1 SWAP7 AND PUSH1 0x40 DUP5 ADD MSTORE POP POP PUSH1 0x60 DUP2 ADD SWAP3 SWAP1 SWAP3 MSTORE PUSH1 0x80 SWAP1 SWAP2 ADD MSTORE SWAP3 SWAP2 POP POP JUMP JUMPDEST DUP1 CALLDATALOAD PUSH1 0x1 PUSH1 0x1 PUSH1 0xA0 SHL SUB DUP2 AND DUP2 EQ PUSH2 0xB1C JUMPI PUSH1 0x0 DUP1 REVERT JUMPDEST SWAP2 SWAP1 POP JUMP JUMPDEST PUSH1 0x0 PUSH1 0x20 DUP3 DUP5 SUB SLT ISZERO PUSH2 0xB33 JUMPI PUSH1 0x0 DUP1 REVERT JUMPDEST PUSH2 0xB3C DUP3 PUSH2 0xB05 JUMP JUMPDEST SWAP4 SWAP3 POP POP POP JUMP JUMPDEST PUSH1 0x0 DUP1 PUSH1 0x40 DUP4 DUP6 SUB SLT ISZERO PUSH2 0xB56 JUMPI PUSH1 0x0 DUP1 REVERT JUMPDEST PUSH2 0xB5F DUP4 PUSH2 0xB05 JUMP JUMPDEST SWAP2 POP PUSH2 0xB6D PUSH1 0x20 DUP5 ADD PUSH2 0xB05 JUMP JUMPDEST SWAP1 POP SWAP3 POP SWAP3 SWAP1 POP JUMP JUMPDEST PUSH1 0x1 DUP2 DUP2 SHR SWAP1 DUP3 AND DUP1 PUSH2 0xB8A JUMPI PUSH1 0x7F DUP3 AND SWAP2 POP JUMPDEST PUSH1 0x20 DUP3 LT DUP2 EQ ISZERO PUSH2 0xBAB JUMPI PUSH4 0x4E487B71 PUSH1 0xE0 SHL PUSH1 0x0 MSTORE PUSH1 0x22 PUSH1 0x4 MSTORE PUSH1 0x24 PUSH1 0x0 REVERT JUMPDEST POP SWAP2 SWAP1 POP JUMP JUMPDEST PUSH1 0x20 DUP1 DUP3 MSTORE DUP2 DUP2 ADD MSTORE PUSH32 0x4F776E61626C653A2063616C6C6572206973206E6F7420746865206F776E6572 PUSH1 0x40 DUP3 ADD MSTORE PUSH1 0x60 ADD SWAP1 JUMP JUMPDEST PUSH1 0x20 DUP1 DUP3 MSTORE PUSH1 0x2B SWAP1 DUP3 ADD MSTORE PUSH32 0x496E697469616C697A61626C653A20636F6E7472616374206973206E6F742069 PUSH1 0x40 DUP3 ADD MSTORE PUSH11 0x6E697469616C697A696E67 PUSH1 0xA8 SHL PUSH1 0x60 DUP3 ADD MSTORE PUSH1 0x80 ADD SWAP1 JUMP INVALID LOG2 PUSH5 0x6970667358 0x22 SLT KECCAK256 SIGNEXTEND 0x25 SGT 0xB7 0x28 DUP13 ADDMOD 0xC8 DUP16 ADDMOD 0xBB 0x29 EXTCODECOPY DIFFICULTY 0x21 PC 0xEE AND 0x4A 0xF7 JUMP 0xC9 0xF7 EXTCODESIZE 0xA8 0xE9 DUP16 PUSH2 0xDB46 0x1F PUSH17 0x64736F6C634300080C0033000000000000 "
		},
		"gasEstimates": {
			"creation": {
				"codeDepositCost": "635000",
				"executionCost": "24905",
				"totalCost": "659905"
			},
			"external": {
				"": "infinite",
				"ERC721Address()": "2382",
				"MarketImplementationAddress()": "2382",
				"_adminAddress()": "2404",
				"_nftToCreators(uint256)": "2499",
				"_nftToOwners(uint256)": "2587",
				"_tokenAuctionEndTime(uint256)": "2504",
				"_tokenBids(uint256)": "4715",
				"_tokenIDToToken(uint256)": "infinite",
				"disableUpgrade()": "26597",
				"enableUpgrade()": "26566",
				"initialize(address,address)": "infinite",
				"instanceCreator()": "2381",
				"owner()": "2420",
				"renounceOwnership()": "28140",
				"transferOwnership(address)": "28400",
				"upgradeEnabled()": "2394",
				"upgradeTo(address)": "58225"
			},
			"internal": {
				"_setNewMarketImplementationAddress(address)": "25042"
			}
		},
		"methodIdentifiers": {
			"ERC721Address()": "574490cd",
			"MarketImplementationAddress()": "772908bb",
			"_adminAddress()": "5c1cb691",
			"_nftToCreators(uint256)": "ab101e72",
			"_nftToOwners(uint256)": "f67cf0eb",
			"_tokenAuctionEndTime(uint256)": "d2f658c0",
			"_tokenBids(uint256)": "3c6ac216",
			"_tokenIDToToken(uint256)": "12a63c40",
			"disableUpgrade()": "67fc9138",
			"enableUpgrade()": "28016f9a",
			"initialize(address,address)": "485cc955",
			"instanceCreator()": "b0cf428a",
			"owner()": "8da5cb5b",
			"renounceOwnership()": "715018a6",
			"transferOwnership(address)": "f2fde38b",
			"upgradeEnabled()": "8cf0e21e",
			"upgradeTo(address)": "3659cfe6"
		}
	},
	"abi": [
		{
			"inputs": [],
			"stateMutability": "nonpayable",
			"type": "constructor"
		},
		{
			"anonymous": false,
			"inputs": [
				{
					"indexed": false,
					"internalType": "uint256",
					"name": "_tokenID",
					"type": "uint256"
				},
				{
					"indexed": false,
					"internalType": "address",
					"name": "_bidder",
					"type": "address"
				},
				{
					"indexed": false,
					"internalType": "uint256",
					"name": "_bidAmount",
					"type": "uint256"
				}
			],
			"name": "BidPlace",
			"type": "event"
		},
		{
			"anonymous": false,
			"inputs": [
				{
					"indexed": false,
					"internalType": "uint256",
					"name": "_tokenID",
					"type": "uint256"
				},
				{
					"indexed": false,
					"internalType": "address",
					"name": "_from",
					"type": "address"
				},
				{
					"indexed": false,
					"internalType": "address",
					"name": "_recipient",
					"type": "address"
				}
			],
			"name": "Buy",
			"type": "event"
		},
		{
			"anonymous": false,
			"inputs": [
				{
					"indexed": false,
					"internalType": "uint256",
					"name": "_tokenID",
					"type": "uint256"
				},
				{
					"indexed": false,
					"internalType": "address",
					"name": "_tokenOwner",
					"type": "address"
				},
				{
					"indexed": false,
					"internalType": "address",
					"name": "_recipient",
					"type": "address"
				}
			],
			"name": "Claim",
			"type": "event"
		},
		{
			"anonymous": false,
			"inputs": [],
			"name": "ImplementationUpgraded",
			"type": "event"
		},
		{
			"anonymous": false,
			"inputs": [
				{
					"indexed": false,
					"internalType": "uint256",
					"name": "_royaltyPoints",
					"type": "uint256"
				},
				{
					"indexed": false,
					"internalType": "string",
					"name": "_uri",
					"type": "string"
				},
				{
					"indexed": false,
					"internalType": "string",
					"name": "_title",
					"type": "string"
				},
				{
					"indexed": false,
					"internalType": "address",
					"name": "_owner",
					"type": "address"
				}
			],
			"name": "MintToken",
			"type": "event"
		},
		{
			"anonymous": false,
			"inputs": [
				{
					"indexed": true,
					"internalType": "address",
					"name": "previousOwner",
					"type": "address"
				},
				{
					"indexed": true,
					"internalType": "address",
					"name": "newOwner",
					"type": "address"
				}
			],
			"name": "OwnershipTransferred",
			"type": "event"
		},
		{
			"anonymous": false,
			"inputs": [
				{
					"indexed": false,
					"internalType": "uint256",
					"name": "_tokenCounter",
					"type": "uint256"
				}
			],
			"name": "TokenCounter",
			"type": "event"
		},
		{
			"stateMutability": "payable",
			"type": "fallback"
		},
		{
			"inputs": [],
			"name": "ERC721Address",
			"outputs": [
				{
					"internalType": "address",
					"name": "",
					"type": "address"
				}
			],
			"stateMutability": "view",
			"type": "function"
		},
		{
			"inputs": [],
			"name": "MarketImplementationAddress",
			"outputs": [
				{
					"internalType": "address",
					"name": "",
					"type": "address"
				}
			],
			"stateMutability": "view",
			"type": "function"
		},
		{
			"inputs": [],
			"name": "_adminAddress",
			"outputs": [
				{
					"internalType": "address",
					"name": "",
					"type": "address"
				}
			],
			"stateMutability": "view",
			"type": "function"
		},
		{
			"inputs": [
				{
					"internalType": "uint256",
					"name": "",
					"type": "uint256"
				}
			],
			"name": "_nftToCreators",
			"outputs": [
				{
					"internalType": "address",
					"name": "",
					"type": "address"
				}
			],
			"stateMutability": "view",
			"type": "function"
		},
		{
			"inputs": [
				{
					"internalType": "uint256",
					"name": "",
					"type": "uint256"
				}
			],
			"name": "_nftToOwners",
			"outputs": [
				{
					"internalType": "address",
					"name": "",
					"type": "address"
				}
			],
			"stateMutability": "view",
			"type": "function"
		},
		{
			"inputs": [
				{
					"internalType": "uint256",
					"name": "",
					"type": "uint256"
				}
			],
			"name": "_tokenAuctionEndTime",
			"outputs": [
				{
					"internalType": "uint256",
					"name": "",
					"type": "uint256"
				}
			],
			"stateMutability": "view",
			"type": "function"
		},
		{
			"inputs": [
				{
					"internalType": "uint256",
					"name": "",
					"type": "uint256"
				}
			],
			"name": "_tokenBids",
			"outputs": [
				{
					"internalType": "address",
					"name": "_bidder",
					"type": "address"
				},
				{
					"internalType": "uint256",
					"name": "_bidAmount",
					"type": "uint256"
				}
			],
			"stateMutability": "view",
			"type": "function"
		},
		{
			"inputs": [
				{
					"internalType": "uint256",
					"name": "",
					"type": "uint256"
				}
			],
			"name": "_tokenIDToToken",
			"outputs": [
				{
					"internalType": "string",
					"name": "_title",
					"type": "string"
				},
				{
					"internalType": "string",
					"name": "_uri",
					"type": "string"
				},
				{
					"internalType": "address",
					"name": "_artist",
					"type": "address"
				},
				{
					"internalType": "uint256",
					"name": "_bidDuration",
					"type": "uint256"
				},
				{
					"internalType": "uint256",
					"name": "_price",
					"type": "uint256"
				}
			],
			"stateMutability": "view",
			"type": "function"
		},
		{
			"inputs": [],
			"name": "disableUpgrade",
			"outputs": [],
			"stateMutability": "nonpayable",
			"type": "function"
		},
		{
			"inputs": [],
			"name": "enableUpgrade",
			"outputs": [],
			"stateMutability": "nonpayable",
			"type": "function"
		},
		{
			"inputs": [
				{
					"internalType": "address",
					"name": "_ERC721Address",
					"type": "address"
				},
				{
					"internalType": "address",
					"name": "_superAdmin",
					"type": "address"
				}
			],
			"name": "initialize",
			"outputs": [],
			"stateMutability": "nonpayable",
			"type": "function"
		},
		{
			"inputs": [],
			"name": "instanceCreator",
			"outputs": [
				{
					"internalType": "address",
					"name": "",
					"type": "address"
				}
			],
			"stateMutability": "view",
			"type": "function"
		},
		{
			"inputs": [],
			"name": "owner",
			"outputs": [
				{
					"internalType": "address",
					"name": "",
					"type": "address"
				}
			],
			"stateMutability": "view",
			"type": "function"
		},
		{
			"inputs": [],
			"name": "renounceOwnership",
			"outputs": [],
			"stateMutability": "nonpayable",
			"type": "function"
		},
		{
			"inputs": [
				{
					"internalType": "address",
					"name": "newOwner",
					"type": "address"
				}
			],
			"name": "transferOwnership",
			"outputs": [],
			"stateMutability": "nonpayable",
			"type": "function"
		},
		{
			"inputs": [],
			"name": "upgradeEnabled",
			"outputs": [
				{
					"internalType": "bool",
					"name": "",
					"type": "bool"
				}
			],
			"stateMutability": "view",
			"type": "function"
		},
		{
			"inputs": [
				{
					"internalType": "address",
					"name": "_newMarketImplementationAddress",
					"type": "address"
				}
			],
			"name": "upgradeTo",
			"outputs": [],
			"stateMutability": "nonpayable",
			"type": "function"
		},
		{
			"stateMutability": "payable",
			"type": "receive"
		}
	]
}